:100000000C9436000C945E000C945E000C945E0020
:100010000C945E000C945E000C945E000C945E00E8
:100020000C945E000C945E000C945E000C945E00D8
:100030000C945E000C945E000C945E000C945E00C8
:100040000C94AC020C945E000C947A020C94540252
:100050000C945E000C945E000C945E000C945E00A8
:100060000C945E000C945E00F6020D0511241FBE78
:10007000CFEFD8E0DEBFCDBF22E0A0E4B1E001C009
:100080001D92A034B207E1F711E0A0E0B1E0E6E58F
:10009000FFE002C005900D92A034B107D9F710E03F
:1000A000C5E3D0E004C02197FE010E948C05C43353
:1000B000D107C9F70E9452030C949E070C940000CC
:1000C000EBE4F1E0A089B18982E08C93A485B58549
:1000D0001C92A685B7858FEC8C93108EA489B58968
:1000E00086E08C93A289B3898C9180618C93A289DC
:1000F000B3898C9188608C93A289B3898C91806834
:100100008C930288F389E02D80818F7D8083089510
:10011000CF92DF92EF92FF920F931F93CF93DF93D3
:100120006C017A018B01C0E0D0E0CE15DF0589F0CB
:10013000D8016D918D01D601ED91FC910190F08176
:10014000E02DC6010995892B11F47E0102C021968C
:10015000ECCFC701DF91CF911F910F91FF90EF90EE
:10016000DF90CF900895089580E090E00895FC011D
:10017000538D448D252F30E0842F90E0821B930B0C
:10018000541710F0CF96089501970895FC01918DB2
:10019000828D981761F0828DDF01A80FB11D5D96E9
:1001A0008C91928D9F5F9F73928F90E008958FEF57
:1001B0009FEF0895FC01918D828D981731F0828D0B
:1001C000E80FF11D858D90E008958FEF9FEF089562
:1001D000FC01918D228D892F90E0805C9F4F821BC6
:1001E00091098F73992708958BE491E00E94E800AC
:1001F00021E0892B09F420E0822F0895FC01848DF1
:10020000DF01A80FB11DA35ABF4F2C91848D90E040
:1002100001968F739927848FA689B7892C93A0891B
:10022000B1898C9180648C93938D848D981306C0D2
:100230000288F389E02D80818F7D80830895EF927D
:10024000FF920F931F93CF93DF93EC0181E0888F90
:100250009B8D8C8D981305C0E889F989808185FD77
:1002600024C0F62E0B8D10E00F5F1F4F0F73112768
:10027000E02E8C8DE8120CC00FB607FCFACFE8898F
:10028000F989808185FFF5CFCE010E94FE00F1CF74
:100290008B8DFE01E80FF11DE35AFF4FF0820B8FAB
:1002A000EA89FB898081806207C0EE89FF896083CB
:1002B000E889F98980818064808381E090E0DF9122
:1002C000CF911F910F91FF90EF900895CF93DF93FF
:1002D000EC01888D8823C9F0EA89FB89808185FD3E
:1002E00005C0A889B9898C9186FD0FC00FB607FC9F
:1002F000F5CF808185FFF2CFA889B9898C9185FFE0
:10030000EDCFCE010E94FE00E7CFDF91CF9108959F
:1003100080E090E0892B29F00E94F40081110C9478
:10032000000008953FB7F8948091450190914601EF
:10033000A0914701B091480126B5A89B05C02F3F69
:1003400019F00196A11DB11D3FBFBA2FA92F982FFB
:100350008827820F911DA11DB11DBC01CD0142E076
:10036000660F771F881F991F4A95D1F708952FB7F9
:10037000F894609141017091420180914301909104
:1003800044012FBF08950F931F930E94B7016093FC
:100390005301709354018093550190935601E0915D
:1003A0004B01F0914C010484F585E02D8BE491E044
:1003B000099597FF1FC00E94B7010091530110914A
:1003C00054012091550130915601DC01CB01801B75
:1003D000910BA20BB30B00914F0110915001209192
:1003E00051013091520180179107A207B307B8F26B
:1003F0008FEF9FEF1F910F9108956115710579F0AF
:10040000FB0101900020E9F73197AF01461B570B24
:10041000DC01ED91FC910280F381E02D099480E0F4
:1004200090E008950E948907EF92FF920F931F9327
:10043000CF93DF93EC017B018A018881998100973A
:1004400029F02A813B8124173507F8F4B8016F5F42
:100450007F4F0E94BF06009759F0998388831B83C2
:100460000A832C813D81232B81F4FC0110820DC075
:1004700088819981009711F00E94270619821882BD
:100480001D821C821B821A8207C01D830C83B70148
:10049000888199810E949707CE01DF91CF911F91AA
:1004A0000F91FF90EF9008951F920F920FB60F9249
:1004B00011242F933F934F935F936F937F938F9369
:1004C0009F93AF93BF93EF93FF938BE491E00E94D0
:1004D000FE00FF91EF91BF91AF919F918F917F911E
:1004E0006F915F914F913F912F910F900FBE0F90A1
:1004F0001F9018951F920F920FB60F9211242F93F1
:100500008F939F93EF93FF93E0915B01F0915C01D8
:100510008081E0916101F091620182FD12C09081C1
:10052000809164018F5F8F7320916501821751F074
:10053000E0916401F0E0E55BFE4F958F80936401EC
:1005400001C08081FF91EF919F918F912F910F902A
:100550000FBE0F901F9018951F920F920FB60F921B
:1005600011242F933F938F939F93AF93BF938091C9
:10057000410190914201A0914301B0914401309119
:10058000400123E0230F2D3720F40196A11DB11D5A
:1005900005C026E8230F0296A11DB11D209340013E
:1005A0008093410190934201A0934301B093440191
:1005B0008091450190914601A0914701B091480179
:1005C0000196A11DB11D8093450190934601A09312
:1005D0004701B0934801BF91AF919F918F913F9197
:1005E0002F910F900FBE0F901F901895EBE4F1E044
:1005F0001382128288EE93E0A0E0B0E084839583BA
:10060000A683B7838AE091E09183808385EC90E0B4
:100610009587848784EC90E09787868780EC90E0CC
:10062000918B808B81EC90E0938B828B82EC90E0BD
:10063000958B848B86EC90E0978B868B118E128E37
:10064000138E148EE8EEF1E0168217821086118662
:10065000128613861486158616861786108A118AC6
:10066000128A138A148A158AE6E3F2E01182108254
:10067000138212821582148247E050E068E171E033
:10068000CF010E941402E0E3F2E011821082138293
:100690001282158214824DE050E060E271E0CF01D9
:1006A0000C941402CF93DF93CDB7DEB7A5970FB6A6
:1006B000F894DEBF0FBECDBF789484B5826084BD50
:1006C00084B5816084BD85B5826085BD85B5816056
:1006D00085BD80916E00816080936E0010928100D4
:1006E000809181008260809381008091810081608F
:1006F0008093810080918000816080938000809150
:10070000B10084608093B1008091B00081608093DB
:10071000B00080917A00846080937A0080917A00A2
:10072000826080937A0080917A00816080937A0061
:1007300080917A00806880937A001092C1001092B4
:100740002C0210922D0210922E0210922F02109263
:10075000EA011092EB011092EC011092ED010E945F
:10076000B7016B017C014B015C0128EB820E2BE091
:10077000921EA11CB11C0E94B7016C157D058E054F
:100780009F0528F086169706A806B906A0F78BE401
:1007900091E090932B0280932A020E9460000E94B5
:1007A000B7016093EA017093EB018093EC019093A1
:1007B000ED016EE271E080912A0290912B020E947D
:1007C000FD010E94B7016B017C014B015C018AE0D5
:1007D000880E911CA11CB11C0E94B7016C157D05EF
:1007E0008E059F0528F086169706A806B906A0F77D
:1007F00081E08093FE010E9460009AE0892E912C96
:10080000A12CB12C40913A0250913B0260913602EA
:10081000709137028BE491E00E9488006DE371E0F3
:100820008BE491E00E94FD018BE491E00E94E800DE
:10083000892BD1F30E94C301FC0197FD11C08D32B9
:10084000910591F0C0970A9778F0E0914B01F091F3
:100850004C010284F385E02D8BE491E00995EACF09
:1008600080E090E0DC012DC020E030E0A90110E044
:10087000E130F10509F0AFC0E0914B01F0914C017E
:100880000284F385E02D8BE491E02AA33BA34CA3E3
:100890005DA309950E94C301FC01C0972AA13BA159
:1008A0004CA15DA10A9720F3E130F10509F3112372
:1008B00009F4B0C088279927DC01821B930BA40B95
:1008C000B50B90934A0180934901409134025091B5
:1008D000350260913002709131028BE491E00E9408
:1008E0008800C0904901D0904A010D2C000CEE0800
:1008F000FF08F7FE26C0E0914B01F0914C010190FA
:10090000F081E02D6DE28BE491E0099522273327F9
:10091000A9012C193D094E095F0919A28E010F5D2D
:100920001F4FCA01B901A50194010E941905605D1C
:10093000F80162938F01211531054105510589F7B1
:1009400015C0A701960119A28E010F5D1F4FCA01A4
:10095000B901A50194010E941905605DF801629337
:100960008F01211531054105510589F7B8018BE447
:1009700091E00E94FD016DE371E08BE491E00E9443
:10098000FD010E9492012B013C0188EEC82E83E0FC
:10099000D82EE12CF12C0E949201DC01CB018419AC
:1009A0009509A609B709883E9340A105B10558F0FD
:1009B000F1E0CF1AD108E108F10828EE420E23E059
:1009C000521E611C711CC114D104E104F10419F719
:1009D0000E94880117CFED32F105D1F0CF01C09709
:1009E0000A9708F049CFAAE0B0E00E943B056F01EA
:1009F000FF0FEE08FF08DC01CB018C0D9D1DAE1D25
:100A0000BF1D9C01AD01205331094109510934CF6B
:100A100011E032CFDA01C90154CF809130029091B8
:100A200031020E94270680913602909137020C9481
:100A30002706A1E21A2EAA1BBB1BFD010DC0AA1F8F
:100A4000BB1FEE1FFF1FA217B307E407F50720F037
:100A5000A21BB30BE40BF50B661F771F881F991FB2
:100A60001A9469F760957095809590959B01AC01FB
:100A7000BD01CF0108950E947D05A59F900DB49FF3
:100A8000900DA49F800D911D112408952F923F92E7
:100A90004F925F926F927F928F929F92AF92BF928E
:100AA000CF92DF92EF92FF920F931F93CF93DF933A
:100AB000CDB7DEB7CA1BDB0B0FB6F894DEBF0FBE97
:100AC000CDBF09942A88398848885F846E847D84E4
:100AD0008C849B84AA84B984C884DF80EE80FD80E6
:100AE0000C811B81AA81B981CE0FD11D0FB6F8945C
:100AF000DEBF0FBECDBFED010895A29FB001B39F31
:100B0000C001A39F700D811D1124911DB29F700D16
:100B1000811D1124911D0895EE0FFF1F0590F49182
:100B2000E02D0994CF93DF938230910510F482E099
:100B300090E0E0913E02F0913F0220E030E0C0E022
:100B4000D0E0309711F14081518148175907C0F02A
:100B50004817590761F482819381209719F09B838C
:100B60008A832BC090933F0280933E0226C02115BA
:100B7000310519F04217530718F49A01BE01DF013D
:100B8000EF010280F381E02DDCCF2115310509F161
:100B9000281B390B2430310590F412968D919C91CD
:100BA00013976115710521F0FB019383828304C0C3
:100BB00090933F0280933E02FD01329644C0FD01B6
:100BC000E20FF31F81939193225031092D933C93AF
:100BD0003AC020913C0230913D02232B41F42091F8
:100BE00002013091030130933D0220933C02209199
:100BF0000001309101012115310541F42DB73EB7B7
:100C00004091040150910501241B350BE0913C02F9
:100C1000F0913D02E217F307A0F42E1B3F0B2817BB
:100C2000390778F0AC014E5F5F4F2417350748F065
:100C30004E0F5F1F50933D0240933C02819391936E
:100C400002C0E0E0F0E0CF01DF91CF9108950F9373
:100C50001F93CF93DF93009709F48CC0FC01329768
:100C60001382128200913E0210913F02011511057C
:100C700081F420813181820F931F20913C023091B9
:100C80003D022817390779F5F0933D02E0933C02C5
:100C900071C0D80140E050E0AE17BF0750F4129683
:100CA0002D913C911397AD012115310509F1D90121
:100CB000F3CF9D01DA013383228360817181860F36
:100CC000971F8217930769F4EC0128813981260F59
:100CD000371F2E5F3F4F318320838A819B8193830F
:100CE0008283452B29F4F0933F02E0933E0242C0F9
:100CF0001396FC93EE931297ED01499159919E0141
:100D0000240F351FE217F30771F480819181840F5E
:100D1000951F029611969C938E93828193811396D0
:100D20009C938E931297E0E0F0E0D80112968D919B
:100D30009C911397009719F0F8018C01F6CF8D91D3
:100D40009C9198012E5F3F4F820F931F20913C0290
:100D500030913D022817390769F4309729F4109231
:100D60003F0210923E0202C01382128210933D0293
:100D700000933C02DF91CF911F910F910895A0E065
:100D8000B0E0E5ECF6E00C944A05EC01009721F4A4
:100D9000CB010E949205B8C0FC01E60FF71F9C0131
:100DA00022503109E217F30708F4ACC0D9010D91C4
:100DB0001C91119706171707B0F00530110508F4BC
:100DC0009FC0C80104978617970708F499C002507E
:100DD0001109061B170B019311936D937C93CF019F
:100DE0000E9427068DC05B01A01AB10A4C01800E3B
:100DF000911EA0913E02B0913F0240E050E0E12CF4
:100E0000F12C109709F44AC0A815B905D1F56D90D9
:100E10007C901197630182E0C80ED11CCA14DB04D8
:100E200080F1A3014A195B096A0182E0C80ED11C56
:100E30001296BC9012971396AC91B5E0CB16D104E4
:100E400040F0B282A38351834083D9016D937C9398
:100E50000AC00E5F1F4FC301800F911FF9019183DC
:100E60008083EB2DFA2FE114F10431F0D7011396B2
:100E7000FC93EE93129744C0F0933F02E0933E023E
:100E80003FC08D919C9111974817590708F4AC0108
:100E90007D0112960D90BC91A02DB3CF80913C02A4
:100EA00090913D0288159905E1F446175707C8F45B
:100EB0008091000190910101009741F48DB79EB798
:100EC0004091040150910501841B950BE817F90727
:100ED000C8F4F0933D02E0933C02F9017183608312
:100EE0000FC0CB010E9492057C01009759F0A80128
:100EF000BE010E948E07CE010E942706C70104C0D2
:100F0000CE0102C080E090E0CDB7DEB7EEE00C94F9
:100F1000660581E090E0F8940C949E07FB01DC01EB
:100F200002C001900D9241505040D8F70895FB0146
:100F3000DC0101900D920020E1F7089510E0C5E377
:100F4000D0E004C0FE010E948C052196C633D10773
:060F5000C9F7F894FFCF81
:100F5600000040028000000000001F018800B7006A
:100F66006601E800C600DA0052656164793A20003D
:100F7600596F7520456E74657265643A2000564D4A
:100F86004450565F317C315F564D4450560D0A0031
:107E0000112484B714BE81FFF0D085E080938100F7
:107E100082E08093C00088E18093C10086E0809377
:107E2000C20080E18093C4008EE0C9D0259A86E02C
:107E300020E33CEF91E0309385002093840096BBD3
:107E4000B09BFECF1D9AA8958150A9F7CC24DD24C4
:107E500088248394B5E0AB2EA1E19A2EF3E0BF2EE7
:107E6000A2D0813461F49FD0082FAFD0023811F036
:107E7000013811F484E001C083E08DD089C08234E0
:107E800011F484E103C0853419F485E0A6D080C0E4
:107E9000853579F488D0E82EFF2485D0082F10E0AE
:107EA000102F00270E291F29000F111F8ED06801E7
:107EB0006FC0863521F484E090D080E0DECF843638
:107EC00009F040C070D06FD0082F6DD080E0C81688
:107ED00080E7D80618F4F601B7BEE895C0E0D1E017
:107EE00062D089930C17E1F7F0E0CF16F0E7DF06D8
:107EF00018F0F601B7BEE89568D007B600FCFDCFD4
:107F0000A601A0E0B1E02C9130E011968C91119780
:107F100090E0982F8827822B932B1296FA010C0160
:107F200087BEE89511244E5F5F4FF1E0A038BF0790
:107F300051F7F601A7BEE89507B600FCFDCF97BE46
:107F4000E89526C08437B1F42ED02DD0F82E2BD052
:107F50003CD0F601EF2C8F010F5F1F4F84911BD097
:107F6000EA94F801C1F70894C11CD11CFA94CF0C13
:107F7000D11C0EC0853739F428D08EE10CD085E9AC
:107F80000AD08FE07ACF813511F488E018D01DD067
:107F900080E101D065CF982F8091C00085FFFCCF94
:107FA0009093C60008958091C00087FFFCCF809118
:107FB000C00084FD01C0A8958091C6000895E0E648
:107FC000F0E098E1908380830895EDDF803219F02E
:107FD00088E0F5DFFFCF84E1DECF1F93182FE3DFCA
:107FE0001150E9F7F2DF1F91089580E0E8DFEE27F6
:047FF000FF270994CA
:027FFE00040479
:0400000300007E007B
:00000001FF