:100000000C9465000C948D000C948D000C948D0064
:100010000C948D000C948D000C948D000C948D002C
:100020000C948D000C948D000C948D000C948D001C
:100030000C948D000C948D000C948D000C948D000C
:100040000C948E180C948D000C94A3170C947D17AF
:100050000C948D000C948D000C948D000C948D00EC
:100060000C948D000C948D00BD10D41056114712C5
:100070006912841290123B12000000002400270035
:100080002A0000000000250028002B0004040404BE
:100090000404040402020202020203030303030332
:1000A000010204081020408001020408102001020F
:1000B00004081020000000080002010000030407EB
:1000C00000000000000000001D1C11241FBECFEF27
:1000D000D8E0DEBFCDBF12E0A0E0B1E0ECE6FFE388
:1000E00002C005900D92AC33B107D9F726E0ACE31E
:1000F000B2E001C01D92AB32B207E1F710E0C5E6F5
:10010000D0E004C02197FE010E946C1EC436D107C6
:10011000C9F70E94A91C0C94B41F0C940000DC01C8
:100120001C96ED91FC911D97309731F08681978157
:10013000982789279827089580E090E00895CF9325
:10014000DF93FC01EB01AC85BD85109791F0129611
:100150009C91129713968C9113973C9111962C9128
:1001600047E951E05183408332832383948385831D
:1001700008C087E991E09183808312821382148200
:100180001582CF01DF91CF910895CF93DF931F9216
:10019000CDB7DEB7DC01ED91FC91048CF58DE02D3F
:1001A00041E050E0BE016F5F7F4F099518161906B8
:1001B0001CF4898190E002C08FEF9FEF0F90DF91D8
:1001C000CF910895CF93DF931F92CDB7DEB76983A8
:1001D000DC01ED91FC910280F381E02D41E050E0E3
:1001E000BE016F5F7F4F09950F90DF91CF9108950A
:1001F00080E00895FB0141505109460F571FE41755
:10020000F50778F4208130E0322F22276181260F14
:10021000311D820F931F8217930708F401963296BF
:10022000EECFE417F50751F4208130E0322F22277A
:10023000820F931F8217930708F40196089508957B
:1002400080E090E00895DC01ED91FC91048CF58D47
:10025000E02D0994CF93DF93EC018A89882369F01C
:100260009A01AB016E857F850E94F21A2E853F852B
:10027000280F391F3F872E8702C080E090E0DF9172
:10028000CF910895CF93DF93DC011C96ED91FC9103
:100290001D973097B1F0EC011582148212861186F9
:1002A0001D861C8689890E94D81888890E94D818C2
:1002B0008A890E94D8182E9686E0FE0111928A95AE
:1002C000E9F7DF91CF9108950F931F93CF93DF93B9
:1002D000EC018B018C859D85892B41F460E070E0F9
:1002E00080E090E00E943B139D878C87EC85FD8524
:1002F000309751F0102701271027158304832E967D
:10030000D287C18781E001C080E0DF91CF911F914A
:100310000F910895EF92FF920F931F93CF93DF9366
:10032000C0918202C1FF0FC02091800230E04DE8F1
:1003300052E060E070E0809183020E94F21ACD7F6B
:10034000C093820215C08091890290918A020E9416
:100350004E1A80938302882309F44BC020918902AE
:1003600030918A024DE852E060E070E00E94F21A9B
:100370000091830285E0089FF0011124EC5EFC4FA0
:10038000C081D1812197E280F380EC0EFD1ECE0169
:100390000E94E619182F882321F060E0CE010E9408
:1003A000CE19BE0184E00E946019B70186E00E9468
:1003B000601948E06FE180E80E941B198CE10E94FF
:1003C0003E196CE180E00E948F1981FF05C048E072
:1003D0006FE180EA0E941B19112321F0612FCE01E9
:1003E0000E94CE19802F0E94D8181092830281E0BB
:1003F00001C080E0DF91CF911F910F91FF90EF90AE
:100400000895CF93DF93EC010E94AA0A20918902FC
:1004100030918A02909182022A32310521F41092A1
:1004200083029D7F03C01D821C8292609093820292
:10043000DF91CF910C948A01CF93DF93EC018C85EF
:100440009D85892B19F480E090E024C0EA89EE2391
:10045000D1F381E08B8B8E859F8525E0E29FF001B3
:100460001124EC5EFC4F938382838C859D85909351
:1004700085028093840285E00E941B0C8091890292
:1004800090918A02892BF9F2CE010E960E94010208
:1004900081E090E0DF91CF910895CF92DF92EF92CB
:1004A000FF920F931F93CF93DF938091810281116D
:1004B00059C089E30E943E1969E380E00E948F19C8
:1004C000882309F44DC060911D0470911E048B01B6
:1004D0000A5F1F4F011528E0120710F00F5F174049
:1004E00080E00E94601960E08AE30E948F1990E02A
:1004F00090931E0480931D0460E08AE30E948F198C
:1005000020911D0430911E04382B30931E0420933B
:100510001D0460E08AE30E948F19C82F60E08AE31F
:100520000E948F19D82F60E08AE30E948F19F82E5D
:1005300040E46EE180E80E941B19F7FE0EC01093A4
:100540001A06009319068C2F90E09D2B0497909328
:100550001C0680931B068FEF03C00E94891B80E05E
:1005600080938102C0918102CC2309F41EC181E0F5
:10057000809382028C2F0E94741B90938A02809336
:100580008902892B09F409C142E650E060E070E07D
:100590008C2F0E94391B6DE872E00E94F8180091C0
:1005A000990210919A020830110509F042C0C093D7
:1005B00083028091890290918A020E9790938A0219
:1005C0008093890220911003309111038091A7023A
:1005D0009091A80282279327209108033091090364
:1005E00082239323892BC1F42091120330911303AA
:1005F0008091A9029091AA028227932720910A0351
:1006000030910B0382239323892B31F463E972E049
:1006100087EA92E00E949E0B81E00E941B0C809171
:10062000890290918A02892B09F4B7C00E94AA0A14
:10063000B2C0083036E0130709F0AFC080918902DC
:1006400090918A0210928A02109289028A9708F485
:100650009CC08091A1029091A202811541E0940773
:1006600029F08115924009F474C08FC02091B30223
:100670003091B4028091100390911103281739072B
:1006800009F083C02091B5023091B6028091120327
:10069000909113032817390709F077C063EA72E0D5
:1006A00089EA92E00E949E0B80E092E09093A20281
:1006B0008093A10286E0E3EAF2E0ADEAB2E00190C5
:1006C0000D928A95E1F786E0E7E2F5E0A3EAB2E071
:1006D00001900D928A95E1F786E0E7E2F5E0A3E963
:1006E000B2E001900D928A95E1F786E0EDEAF2E042
:1006F000ADE8B2E001900D928A95E1F78091A902F0
:100700009091AA029093B4028093B3028091AB02BD
:100710009091AC029093B6028093B5028091100341
:10072000909111039093AA028093A90280911203E1
:10073000909113039093AC028093AB0210939A02B2
:10074000009399028AE290E090938A028093890252
:100750001CC02091B3023091B4028091100390919B
:1007600011032817390789F42091B5023091B60298
:1007700080911203909113032817390731F463EA2B
:1007800072E089EA92E00E949E0B8091890290912A
:100790008A02892B11F00E948A018091820280FFD7
:1007A00004C00E94891B109281020E9482186B0172
:1007B0007C0180912D0590912E05A0912F05B0917F
:1007C0003005A7019601281B390B4A0B5B0BDA0198
:1007D000C90180959095A095B0958827B7FD839520
:1007E0009927AA27BB27C82F0DE414E0109388028D
:1007F00000938702CC2311F082E012C0D8015C96EE
:10080000ED91FC915D9785859685A785B089A701B7
:100810009601281B390B4A0B5B0B57FD0DC083E07B
:100820000E941B0C8091890290918A02892B21F0F1
:100830000E94AA0A0E948A01025E1F4F34E0053C12
:100840001307A1F6CC2331F1D701C60186509F4F83
:10085000AF4FBF4F80932D0590932E05A0932F058A
:10086000B0933005CFE1D4E0D0938502C0938402E9
:1008700085E00E941B0C8091890290918A02892B4D
:1008800021F089859A850E9401022B9644E0CB34A1
:10089000D40751F7DF91CF911F910F91FF90EF9007
:1008A000DF90CF900895CF93DF93EC010E944D022B
:1008B00089890E94D818198ADF91CF9108950F93E2
:1008C0001F93CF93DF931F92CDB7DEB78C010E94A9
:1008D0004D02F8018189882391F041E050E060E009
:1008E00070E00E94391B8C01BE016F5F7F4F0E9438
:1008F000F8180130110519F4898190E002C08FEFDA
:100900009FEF0F90DF91CF911F910F910895CF929C
:10091000DF92EF92FF920F931F93CF93DF9300D05C
:10092000CDB7DEB77C016B0149835A830E944D022B
:10093000F701818949815A81882351F160E070E093
:100940000E94391B8C01B6010E94F818F701D1886A
:100950008D2D0E94741B0817190731F48D2D0E94EC
:10096000D818F701118A12C085E0D89EF001112431
:10097000EC5EFC4F80819181800F911F9183808379
:1009800082819381801B910B93838283C80102C073
:1009900080E090E00F900F90DF91CF911F910F9129
:1009A000FF90EF90DF90CF900895CF93DF93EC010D
:1009B0000E944D028989DF91CF910C94741BCF93D3
:1009C000DF93EC010E944D0289890E94D818888922
:1009D000898B188ADF91CF910C94741BCF92DF9290
:1009E000EF92FF920F931F93CF93DF9300D000D02D
:1009F000CDB7DEB78C016B017A010E944D02F60182
:100A000082819381A481B581892B8A2B8B2B41F123
:100A1000E114F10429F1828190E0982F8827238145
:100A2000822B9827892798279A838983248130E00D
:100A3000322F22274581242B3227232732273C833C
:100A40002B83D8011C96ED91FC911D977E2D6F2D67
:100A5000309729F177836683918380833383228360
:100A6000D8011C968D919C911D97892BA9F05296C7
:100A70008C91811111C086E096E00E944E1AF80117
:100A8000828B2AE230E03787268721E090E08111CF
:100A900001C020E0822F15C080E090E012C0CE019E
:100AA00001960E943B13D8011D969C938E931C9730
:100AB000009791F39801225F3F4FFC013287218715
:100AC000CFCF0F900F900F900F90DF91CF911F918C
:100AD0000F91FF90EF90DF90CF9008954F925F922B
:100AE0006F927F928F929F92AF92BF92CF92DF923E
:100AF000EF92FF920F931F93CF93DF93CDB7DEB7A3
:100B0000E7970FB6F894DEBF0FBECDBF5C018B0137
:100B10004A0187E991E09A8389831C861B8648EE07
:100B200053E060E070E04D875E876F87788B2FE63B
:100B300031E03A8729871E8A1D8AFE01779626E0D2
:100B4000DF011D922A95E9F79AA789A71BA61CA683
:100B50001DA61EA68091D1059091D205A091D30526
:100B6000B091D4058F8F98A3A9A3BAA38B839C833C
:100B7000AD83BE8318861F82F801D8018D9188232A
:100B800031F08E32D9F380538A30C0F34EC020E06A
:100B900030E080E090E05AE04191442311F184304C
:100BA00091050CF042C04E3279F42F3F310509F027
:100BB000E4F5ABE2B0E0AC0FBD1FA80FB91F2C935A
:100BC000019620E030E0E8CF529FB001539F700DB6
:100BD0001124242F440F330B20533109260F371FC4
:100BE000DBCF2F3F310509F004F584309105ECF49B
:100BF000FE01E80FF91F23A7D501ED91FC910488B0
:100C0000F589E02D87E991E09E8F8D8F8BA59CA5BE
:100C1000ADA5BEA58F8F98A3A9A3BAA3A401BE01B9
:100C2000635E7F4FC501099538C24B815C816D8140
:100C30007E818091D7059091D805A091D905B0917A
:100C4000DA05481759076A077B0709F421C20E9491
:100C500082186F7077277C5FCE0109960E9464012D
:100C6000813009F018C287E991E09E8F8D8F8B81CA
:100C70009C81AD81BE818F8F98A3A9A3BAA345E3C0
:100C800050E0BE01635E7F4FCE0109960E94EE04E4
:100C9000892B19F400E010E0F1C10E9482187887D6
:100CA0006F8342E050E0BE01695F7F4FCE0109963D
:100CB0000E942A0181E090E09E8F8D8F42E050E0FB
:100CC000BE01635E7F4FCE0109960E942A0180E03B
:100CD00091E09E8F8D8F42E050E0BE01635E7F4FBA
:100CE000CE0109960E942A011E8E1D8E42E050E020
:100CF000BE01635E7F4FCE0109960E942A0142E049
:100D000050E0BE01635E7F4FCE0109960E942A012A
:100D100042E050E0BE01635E7F4FCE0109960E9423
:100D20002A017801F7018081882319F1F8017F01F8
:100D30008191811117C06701C01AD10A1C141D04CA
:100D4000A4F4CFA641E050E0BE01615D7F4FCE012B
:100D500009960E942A01A601B801CE0109960E94B7
:100D60002A0103C08E3219F7E6CF87010F5F1F4FAC
:100D7000D9CF1FA641E050E0BE01615D7F4FCE019B
:100D800009960E942A0100E011E01E8F0D8F42E0BB
:100D900050E0BE01635E7F4FCE0109960E942A019A
:100DA0001E8F0D8F42E050E0BE01635E7F4FCE018B
:100DB00009960E942A01CE0109960E941C02892BE5
:100DC00009F468CF83E0E82EF12C0E9482182B01F1
:100DD0003C01CE0109960E94DF04181619068CF01A
:100DE0000E948218DC01CB0184199509A609B70974
:100DF00089389341A105B10508F02EC10E94A414C1
:100E0000E8CF4B805C806D807E80BE01675F7F4F46
:100E1000CE014D960E949F008F8D98A1A9A1BAA1E5
:100E2000481659066A067B0609F019C1CE010996D3
:100E30000E948F00C59709F012C1CE0109960E9449
:100E4000D5040C970CF40EC14CE050E0BE01635E7B
:100E50007F4FCE0109960E9487048F8D98A1982715
:100E6000892798279CAB8BAB4F8158852D8D3E8D64
:100E70004217530711F497FD07C0CE0109960E944F
:100E800053042CEF3FEFF0C08F709270892B39F034
:100E9000CE0109960E9453042BEF3FEFE5C00BA152
:100EA0001CA11027012710270115110539F4CE01C7
:100EB00009960E9453042AEF3FEFD6C0C12CD12CD3
:100EC00089A19AA1982789279827C816D90670F56D
:100ED00041E050E0BE01615D7F4FCE0109960E9466
:100EE00087048FA5811117C08FA58111F1CFCE0185
:100EF00009960E94C500CE0109960E94C500CE0148
:100F000009960E94C500CE0109960E94C5002FEFE8
:100F1000C21AD20AD5CF8FA59FEF980F9FA788231B
:100F200019F3CE0109960E94C500F5CFC12CD12C32
:100F300041E050E0BE016B5C7F4FCE0109960E94FC
:100F400087048DA9982F907C69F4882381F08DA95E
:100F50009FEF980F9DAB882351F0CE0109960E9418
:100F6000C500F5CFCE0109960E94C5001DAA8DA926
:100F70008111DECF42E050E0BE016F5C7F4FCE01B9
:100F800009960E94870442E050E0BE01615D7F4FF8
:100F9000CE0109960E948704CE0109960E94C500E1
:100FA000CE0109960E94C500CE0109960E94C50097
:100FB000CE0109960E94C50042E050E0BE016D5C82
:100FC0007F4FCE0109960E94870489A99AA98115AD
:100FD000914011F52FA538A9322723273227213038
:100FE0003105D1F48BA99CA98115944039F0CE012B
:100FF00009960E94530427EF3FEF36C044E050E0CB
:10100000BE01655D7F4FCE0109962EAB3FAB0E94BE
:1010100087042EA93FA928C0612C712C8BA99CA9FB
:101020009827892798276816790640F4CE010996F3
:101030000E94C500BFEF6B1A7B0AF0CFEFEFCE1A0C
:10104000DE0AC016D10609F073CFCE0109960E94C0
:10105000530426EF3FEF08C02FEF3FEF05C02EEF00
:101060003FEF02C02DEF3FEF8901F1E0EF1AF108E9
:1010700029F00F3F2FEF120709F4A7CECE010996F2
:101080000E9442010130110509F4B6CDC80105C026
:101090008EEF9FEF02C080E090E0E7960FB6F894E5
:1010A000DEBF0FBECDBFDF91CF911F910F91FF909B
:1010B000EF90DF90CF90BF90AF909F908F907F90F8
:1010C0006F905F904F900895FF920F931F93CF936F
:1010D000DF93E0918402F0918502C185D28520974B
:1010E00009F44FC08091860281FF2FC08A8181114F
:1010F0002CC08091AF029091B0029783868380913B
:10110000A7029091A802918380838091A902909177
:10111000AA02938382838091B3029091B4029827AC
:101120008927982708970E944E1AF82E8A838823C9
:1011300061F00E94741B8C012AE230E04091810230
:1011400060E070E08F2D0E94981B8091860283FFE3
:1011500018C08D818823A9F08C81809383028AE254
:1011600080938002688179816A52710980918B0233
:1011700090918C02DF91CF911F910F91FF900C9471
:10118000070CDF91CF911F910F91FF900895EF927F
:10119000FF920F931F93CF93DF93C82FE0909E028F
:1011A000F12C84E1E81AF10820919D0230E0322F01
:1011B0002227E20EF31E48E050E067EA72E0C70122
:1011C0008C0F911D0E94FA00C13131F0C091BB0219
:1011D000C695C695CC7301C0C8E0D0E0AE016FEAF9
:1011E00072E00E94FA008C01CE15DF0508F04CC0B9
:1011F000A7014C1B5D0BBE016E5D7F4F809183028A
:101200000E94391BEC01219760E08AE00E94D5170B
:101210008AE38EBD0DB407FEFDCFA80160E070E04B
:101220006C177D07C8F41EBC0DB407FEFDCF2EB5AC
:1012300030E0322F22271EBC0DB407FEFDCF8EB545
:10124000280F311D420F531F4217530710F44F5FF1
:101250005F4F6E5F7F4FE4CF8A016C177D0781F48B
:101260001EBC0DB407FEFDCF8EB590E0982F8827E9
:101270008A01080F191F0817190710F40F5F1F4F75
:1012800061E08AE00E94D5170115110519F0902F31
:10129000812F02C08FEF9FEFDF91CF911F910F91B0
:1012A000FF90EF90089544E150E06BE972E080E038
:1012B00090E00E94FA00009721F09827892798274C
:1012C00008958FEF9FEF0895CF92DF92EF92FF92F4
:1012D0000F931F93CF93DF93A0918702B091880261
:1012E0005C96CD91DC915D9750918602209749F5EF
:1012F00056FF6CC0ECE3F2E080E090E02081211129
:101300001AC061E1689F9001699F300D1124E901C5
:10131000C45CDD4F80618883235C3D4F80E1F9012F
:1013200011928A95E9F7209709F450C05D96DC93F5
:10133000CE935C9706C00196719684309105F1F6C4
:1013400045C051FF07C08091890290918A02892B84
:1013500009F052C0888187FF0EC08F778883809103
:101360008602826080938602E0918702F091880273
:10137000818D8F7E818F8091860284FF7CC07E016B
:10138000E6E0EE0EF11C6E01FBE0CF0ED11CF70182
:1013900080810E94D818F70111927F01EC15FD059C
:1013A000B1F78981882309F469C0E0918702F0913F
:1013B0008802848195819F838E838881806488835D
:1013C000E0918702F0918802158E148EE12CF12CA9
:1013D000B70180918B0290918C020E94070CF092D1
:1013E0008A02E0928902DF91CF911F910F91FF90C5
:1013F000EF90DF90CF9008958881807609F0AACF92
:101400006E01FFEFCF1ADF0AF12CF6018081811106
:101410001EC08091890290918A020E944E1AF601A4
:1014200080838823A1F00091890210918A02209183
:101430008B0230918C022D5832404091810260E045
:1014400070E00E94981BF4E0FF1284CF0CC0F3946C
:101450008FEFC81AD80A95E0F912D7CF809182028F
:101460008E7F80938202E0918702F0918802818DC5
:101470008061818F6FCF87FF03C081CF1882A0CF9B
:1014800080FF0FC08E810E94D818DE011796FE01E2
:101490003696CE010A962D912193E817F907D9F7D0
:1014A0001A86809186028C70E1F18E818823C9F1C1
:1014B0009F8191110FC0EB84FC84E114F10409F4C5
:1014C00087CF95E0899FF0011124EC5EFC4FF382F9
:1014D000E28206C00E94741B7C01892B09F478CF3C
:1014E00060918B0270918C026D5872406093800203
:1014F0006B01DD24C7018C0D9D1D0E944E1A809347
:101500008302882309F464CF870120E030E04E8114
:10151000B6010E94981B80918202826080938202B1
:1015200057CF888185FF52CF8E8181110BC01882E1
:10153000E0918702F0918802158E148E80E18093ED
:10154000860244CFE0918702F0918802818D80610C
:10155000818F3CCF8091AB029091AC028F3F2FEFF7
:10156000920759F42091AD023091AE022F3F3F4FC8
:1015700021F486E0E7E0F1E05AC0209110033091B9
:101580001103282739274091080350910903242388
:101590003523232B91F46091AD027091AE0220911E
:1015A0001203309113032627372740910A035091E5
:1015B0000B0324233523232B89F080910C03909176
:1015C0000D03909305038093040380910E03909183
:1015D0000F03909307038093060308C090930503BD
:1015E0008093040370930703609306032091040320
:1015F00030910503409106035091070380E09BE082
:1016000001C08F5F883071F1989FF0011124E2537F
:10161000FB4F608171812617370799F762817381CB
:101620004617570771F780932605349686E0ADE894
:10163000B2E001900D928A95E1F786E0E7E2F5E0ED
:10164000A3E9B2E001900D928A95E1F788E090E07D
:1016500090939A02809399028091890290918A02D4
:101660000E9667C08093260546E050E06FEF70E06D
:101670008DE892E00E94AD1F86E0EDEAF2E0DF0126
:10168000282F1D922A95E9F7E7E2F5E0A3E9B2E0F9
:10169000982F01900D929A95E1F7E7E2F5E0A3EA21
:1016A000B2E0982F01900D929A95E1F720910403F2
:1016B000309105033093B4022093B30220910603C6
:1016C000309107033093B6022093B50220911003A6
:1016D000309111033093AA022093A90220911203A2
:1016E000309113033093AC022093AB0220E031E041
:1016F0003093A2022093A10230939C0220939B027C
:1017000028E030E030939E0220939D0280939F0258
:1017100084E08093A00288E096E090939A02809300
:10172000990283EC92E090938C0280938B028AE280
:1017300090E090938A02809389020895EF92FF923D
:101740000F931F93CF93DF939C01FB01109226050B
:1017500090E08BE0983031F1899F70011124E7010E
:10176000C253DB4F6881798161157105C9F04A81E7
:101770005B8141155105A1F0D9010D911C91119783
:101780000617170769F412966D917C9113976417E9
:10179000750731F490932605D701AE52BB4F2AC08E
:1017A0009F5FD8CF90E08BE0983091F0899FE00167
:1017B0001124C253DB4F48815981452B39F44A81AA
:1017C0005B81452B19F4909326050AC09F5FECCFEF
:1017D000109203031092020310922605CEECD4E07F
:1017E000D9014D915D916D917C91DE014D935D9399
:1017F0006D937D9386E001900D928A95E1F71A86AC
:10180000DF91CF911F910F91FF90EF9008959C0170
:10181000AB0170930103609300031616170654F48E
:101820008091FE029091FF022817390719F0B90143
:101830000C94A41F0895BF92CF92DF92EF92FF9273
:101840000F931F93CF93DF93C0918702D0918802AB
:10185000843009F4CAC123EC32E030938C02209327
:101860008B023093FF022093FE02833059F4898D5E
:101870008F70833009F0EFC688899989892B09F028
:10188000EAC67EC0823009F07FC08091FD028F5F82
:101890008093FD02811113C08091FC028F5F8093C1
:1018A000FC0281110CC08091FB028F5F8093FB02D0
:1018B000811105C08091FA028F5F8093FA02109225
:1018C0008A02109289021092010310920003898DFE
:1018D000982F9D7F953041F48A8D8F5F8A8F88374E
:1018E00009F0B9C6198EB7C6882309F4B4C6288989
:1018F0003989232B09F440C09A8D2FEF290F2A8FA5
:101900009111A9C69B8D983031F02FEF280F22300E
:1019100048F4953039F4198E80E8809386020E944D
:1019200064094DC5953038F423E0092E01C0220F1B
:101930000A94EAF701C020E32A8F9F5F9B8F8F7084
:101940008330A1F048F4813009F43AC3823009F0C1
:1019500082C61092BC0237C3863009F43FC5883076
:1019600009F43CC5843009F076C638C584E080931C
:1019700086020E94640958C58F70833009F06BC6D7
:1019800088E08093860210C5853019F5E0918402C5
:10199000F091850284819581892B09F45CC61092AF
:1019A00088021092870287EB92E090938C028093DA
:1019B0008B029093FF028093FE021092010310921B
:1019C000000310928A021092890288E080938602B6
:1019D0000AC180919B02853409F03DC6E0909D02CA
:1019E000F12CFE2CEE2480919E02E80EF11C8091D9
:1019F000890290918A028E159F0508F42CC6F092F8
:101A00008A02E09289028091A1028F7309F023C6B5
:101A1000D090A202D1101FC6C0911003D091110323
:101A2000209731F48091120390911303892B21F1B7
:101A30002091A4028091AB029091AC02213161F41B
:101A40008F3F1FEF910741F42091AD023091AE021C
:101A50002F3F3F4F09F452C08C179D0709F0FBC57B
:101A60002091AD023091AE02809112039091130348
:101A70002817390709F0EFC50E945309019609F0AC
:101A8000EAC58091A402863009F413C18131B1F115
:101A9000813009F0E0C58091AF02883009F0DBC5E4
:101AA0001092AF028091B1029091B202873FBFEFD6
:101AB0009B0710F0099601C008969093B20280939C
:101AC000B1028091A7029091A8029093AC028093FA
:101AD000AB028091A9029091AA029093AE028093EA
:101AE000AD02D093A802C093A702809112039091F7
:101AF00013039093AA028093A902B1C5CCE1EC1A1A
:101B0000F108F0928A02E092890287EB92E09093CA
:101B10008C0280938B028091B5029091B602892B42
:101B200099F42091B1023091B2024091AF025091EC
:101B3000B0026091A7027091A802A091A902B09191
:101B4000AA02EFE1F4E00CC081E10E94C70801960F
:101B500009F081C5E6CF84819581009731F43B96E9
:101B600084E0EB34F807B8F324C028173907B9F735
:101B700086819781009719F04817590781F780816E
:101B80009181009729F4C281D381CD2B49F416C0ED
:101B90008F3F1FEF910721F4C281D381219671F00D
:101BA00068177907E1F682819381A817B907B9F61A
:101BB00005C0F0938502E09384024DC5F093850241
:101BC000E0938402109288021092870282E0809350
:101BD000860287EB92E09093FF028093FE021092C0
:101BE0000103109200030E94640880910003909109
:101BF0000103009709F42FC59C01245E3F4F3093E9
:101C00008A022093890230939D0220939E02E091E4
:101C10008402F091850220852093A30221E1209384
:101C2000A40208969827892798279093B402809356
:101C3000B3021092B6021092B502848195819093FE
:101C4000B0028093AF02868197819093B202809315
:101C5000B10280911003909111039093A802809398
:101C6000A70280911203909113039093AA0280938C
:101C7000A902808191819093AC028093AB02828112
:101C800093819093AE028093AD0283EC92E09093A7
:101C90008C0280938B0281E10E94C7088095909509
:101CA000009711F48FEF9FEF9093B6028093B502E7
:101CB000AFC486E00E94C708019609F0CCC44091E9
:101CC000B1025091B2028091AF029091B002609146
:101CD000A7027091A802E091A902F091AA020DE476
:101CE00014E0E801298D2223A9F0AC81BD814A17B7
:101CF0005B0781F4AE81BF818A179B0759F4A881E5
:101D0000B9816A177B0731F4AA81BB81EA17FB0707
:101D100009F470C1025E1F4FD4E0053C1D0709F7AE
:101D20008091BC028F738230E1F45093F9024093AA
:101D3000F80280E0843099F0E82FF0E0EE0FFF1F0A
:101D4000EB53FB4F208131818F5F4217530791F78F
:101D50001092CD0480E0C0E0D0E09EE17CC0809392
:101D6000CD048091BC0282FD76C484E18093BC02E4
:101D700088E290E090938A028093890280E58093C4
:101D8000BB023091B6028091BA028093B6022091D4
:101D9000B5028091B9028093B5022093B902909167
:101DA000B4028091B8028093B4029093B8028091FB
:101DB000B3028093CD044091B7024093B302809365
:101DC000B7023F5F3093BA0231110DC02F5F2093ED
:101DD000B902211108C09F5F9093B802911103C00E
:101DE0008F5F8093B7028091AF029091B002909381
:101DF000F9028093F8022091B1023091B20230933F
:101E0000B0022093AF029093B2028093B10280910E
:101E1000A7029091A8029093AC028093AB028091AC
:101E2000A9029091AA029093AE028093AD02809194
:101E30001003909111039093A8028093A7028091C0
:101E40001203909113039093AA028093A902C4C332
:101E5000473099F08F5F8430F1F0282F30E0929F67
:101E6000F001939FF00D1124E35BFB4F418D411175
:101E7000EFCF8093CD04EF0110C0209721F0528D59
:101E80004A8D451738F7929FE001939FD00D11249A
:101E9000C35BDB4FDFCF8093CD04209709F4DBC316
:101EA000D0938802C093870283E08A8F888F1E8A2E
:101EB00084E08F8B1B8E8091B1029091B2029D8342
:101EC0008C838091AF029091B0029F838E8380912A
:101ED000A7029091A802998388838091A90290918A
:101EE000AA029B838A8381E0898F8091FA028C8782
:101EF0008091FB028D878091FC028E878091FD028C
:101F00008F8781E090E0998B888B8091B6028B87D8
:101F10008091B5028A878091B40289878091B3024B
:101F2000888781E090E00E94051C8091BB02982F79
:101F3000907F913508F444C082958F7090E00597AA
:101F4000880F991F880F991F2091F702ED2DF0E05F
:101F5000E817F9078CF5E357FD4F26A9211105C0B5
:101F6000D092CD041092F7022BC0213011F4D394FB
:101F7000EDCF2230E1F437A93430C9F4D092CD044A
:101F80002093F70280AD90E0982F882721AD822B17
:101F90009093F9028093F8028130E2E09E0710F0FE
:101FA00080E092E09B8B8A8B9D8B8C8B09C037A93C
:101FB000332311F0D30ECACFD092CD042093F70271
:101FC00080E18093BC028091BC0282608093BC025D
:101FD00082E08093C30294E09093C4028093C50290
:101FE0001092C6028CE290E090938A02809389025C
:101FF00080E6A0C2E8011093880200938702109245
:1020000086029091BC02F92FF470BF2E92FF03C09C
:10201000198E80E237C28091BB0282958F70880F43
:10202000880F8093CD046701C81AD108760144E176
:10203000E41AF108F0928A02E09289022F702230AD
:1020400021F4892F8F73823111F1E114F10419F415
:10205000892F8370E1F02091B302D80118968C91FA
:10206000189728135DC22091B40219968C91199784
:10207000281356C22091B5021A968C911A972813EC
:102080004FC22091B6021B968C91281349C294FF2F
:1020900063C0F801608971896115710509F45CC03C
:1020A000C8010C960E94CF1B3091B7028091F302B9
:1020B000381352C02091B8028091F40228134CC00A
:1020C0009091B9028091F502981346C08091BA02AE
:1020D0004091F602841340C0D8011C963C931C9793
:1020E0001D962C931D971E969C931E971F968C935E
:1020F0001F975B968C915B97811126C056969C9199
:10210000569758968C9158975A962C915A97821BAD
:10211000292F269526952695821B980F56969C93D7
:10212000569787FD819557962C915797322F369564
:102130003695231B820F57968C93579796959695B5
:102140009695890F58968C9381E080938602F801CA
:10215000808D828F118A108AD80159962C91E22F96
:10216000EF708E2F90E0FC013197E830F10508F018
:1021700072C2EC5CFF4F0C946C1E8091860280FF53
:102180006AC283E0F801818F80E480938602118A1D
:10219000108AE114F10409F403C182E480938602F9
:1021A000C7010E94051CFCC08091860280FF76C09A
:1021B0008091BC028F73823109F070C08091BB02A4
:1021C000982F907F913508F449C082958F7090E0E8
:1021D0000597880F991F880F991F2091F702EB2D03
:1021E000F0E0E817F907B4F5E357FD4F26A92111F0
:1021F00005C0B092CD041092F70230C0213011F426
:10220000B394EDCF223009F537A93430F1F4B09210
:10221000CD042093F70280AD90E0982F882721AD60
:10222000822B9093F9028093F8028130F2E09F07AD
:1022300010F080E092E0D80153969C938E935297D1
:1022400055969C938E93549709C037A9332311F068
:10225000B30EC5CFB092CD042093F70283E0F8010E
:10226000818F8091B30280878091B40281878091B1
:10227000B50282878091B602838781E090E00E9458
:10228000051C82E480938602D80151961C921E920E
:10229000509710928A021092890282C080E2809345
:1022A00086020E946409E801198E5BCD8091BC0210
:1022B00080FF27C024FD25C0F80180899189892BE2
:1022C00009F0C9C1C60143970E94051C809186028E
:1022D000982F906190938602EF2819F08261809385
:1022E00086020E94640981E090E0D80151969C9397
:1022F0008E93509788E059968C9359975B961C92D1
:102300006DC085FF15C08091C10290E0982F88278D
:102310003091C202832BAC014D535D4F50938C0220
:1023200040938B02E81AF90AF0928A02E09289023D
:102330004091890250918A024115510551F024FDC6
:1023400008C090918602926090938602CA010E9412
:10235000051C8091BD0290E0982F88272091BE0235
:10236000820F911D9093F9028093F802F80124895D
:1023700035892817390710F0892B21F43093F90299
:102380002093F8028091F8029091F902D8015396B7
:102390009C938E93529780918602837009F45BC15F
:1023A00010920103109200030E946409809186023A
:1023B00085FF07C01092010310920003198E84E17B
:1023C000B0C084FF0DC0109201031092000381E0A1
:1023D00090E0998B888B84E0898F1B8E81E1A1C06E
:1023E000209100033091010321153105E1F080FFB8
:1023F00002C0198A188A88899989009781F48A8984
:102400009B898217930720F4909301038093000324
:102410008091000390910103998B888B04C0909365
:102420000103809300031B8E8091FE029091FF02B6
:1024300090938C0280938B02809100039091010312
:10244000892B59F088899989009739F0889690935B
:102450008A028093890288E10BC08091860281FF05
:10246000FAC088E290E090938A028093890280E12A
:102470008093BC025EC08091860280FFECC0E801C0
:10248000198E80E1809386020E946409E4C0E11401
:10249000F10419F0C7010E94051C9091BC028091C3
:1024A000860290FF0EC080FF07C087E0F801818F91
:1024B000128E118A108A1BC086E0D80159968C931F
:1024C00016C080FF1EC085E0E801898F198A188A2E
:1024D000C2C0E114F10419F0C7010E94051C8091EB
:1024E000BC0280FF0EC087E0F801818F128E81E070
:1024F00090E00E94051C80E1809386020E9464099E
:102500000FC0EF2869F4A7C08091860280FFA3C0A6
:1025100087E0D80159968C9359975A961C929BC084
:1025200080E18093BC0288E290E090938A028093DD
:10253000890280E58093BB0288858093B7028985F4
:102540008093B8028A858093B9028B858093BA0202
:102550008C858093B3028D858093B4028E858093A1
:10256000B5028F858093B60286E08093A4028C81A9
:102570009D819093B0028093AF028E819F81909352
:10258000B2028093B1028091100390911103909355
:10259000A8028093A7028091120390911303909355
:1025A000AA028093A902888199819093AC028093BA
:1025B000AB028A819B819093AE028093AD02898D9C
:1025C00084FF05C01092BE021092BD0205C082E0D9
:1025D0008093BD021092BE0280E48093A30280919A
:1025E000890290918A0290939D0280939E0210929C
:1025F000C2021092C1021092C0021092BF0286E085
:102600000E94C708809590959093C0028093BF0266
:1026100085E480939B0210929C021092A202109279
:10262000A1028091F1029091F20201969093F20240
:102630008093F10290939F028093A0021092A602D1
:102640001092A5020E945309809590959093A6023E
:102650008093A50204C010928A02109289021092FF
:102660008602DF91CF911F910F91FF90EF90DF9045
:10267000CF90BF9008950F931F93CF93DF93DC010A
:1026800020914B0430914C042F5F3F4F21158DE773
:10269000380710F020E030E1522F432FEFE1F4E053
:1026A00080E0843041F0C481D5818F5F3B96C417B0
:1026B000D507B9F7E9CF30934C0420934B0490E051
:1026C0008BE09430D1F0292F30E041E0490F829F18
:1026D000F001839FF00D1124E15EFB4FEF01249682
:1026E00004811581012B39F49093CD04309741F486
:1026F00080E090E02EC0942FE4CF9093CD04F8CFEB
:1027000080914B0490914C049827892798279983AE
:10271000888377836683109729F41082118212824E
:1027200013820BC08D919C91119791838083129697
:102730008D919C911397938382838BE0829FD0012C
:10274000839FB00D1124A15EBB4F80E418968C933B
:10275000CF01DF91CF911F910F910895CF92DF921A
:10276000EF92FF920F931F93CF93DF936C017A0147
:102770008B01C0E0D0E0CE15DF0589F0D8016D9166
:102780008D01D601ED91FC910190F081E02DC60103
:102790000995892B11F47E0102C02196ECCFC70167
:1027A000DF91CF911F910F91FF90EF90DF90CF902D
:1027B000089582E395E00E94DB1621E0892B09F45D
:1027C00020E0822F08956115710579F0FB010190D9
:1027D0000020E9F73197AF01461B570BDC01ED9163
:1027E000FC910280F381E02D099480E090E008954F
:1027F000BC0182E395E00C94E3134F925F926F92D9
:102800007F92EF92FF920F931F93CF93DF93CDB7F9
:10281000DEB7A1970FB6F894DEBF0FBECDBF7C0127
:10282000FA01CB0119A2223008F42AE08E010F5DD3
:102830001F4F422E512C612C712CBF01A30192011C
:102840000E944A1EF901CA01015011096A3014F4AC
:10285000605D01C0695CD8016C93232B242B252B70
:1028600061F7B801C7010E94E313A1960FB6F8946F
:10287000DEBF0FBECDBFDF91CF911F910F91FF90B3
:10288000EF907F906F905F904F9008950F931F93FC
:10289000CF93DF93EC010E94E3138C016FE971E0A9
:1028A000CE010E94E313800F911FDF91CF911F9102
:1028B0000F9108958F929F92AF92BF92CF92DF9225
:1028C000EF92FF920F931F93CF93DF937C01EB0165
:1028D0006C0182E0C80ED11C4701E5E08E0E911C10
:1028E00000E010E0F60141916F0150E060E070E01F
:1028F0002AE0CE010E94FD135C01E881F98101907C
:10290000F081E02D6EE2CE0109958A0D9B1D080F26
:10291000191FC814D90431F7F701458150E060E070
:1029200070E02AE0CE010E94FD13800F911FDF911D
:10293000CF911F910F91FF90EF90DF90CF90BF90BC
:10294000AF909F908F9008958F929F92AF92BF9279
:10295000CF92DF92EF92FF920E945D184B015C01D3
:1029600082E3C82ED12CE12CF12C0E945D18DC01F1
:10297000CB0188199909AA09BB09883E9340A10592
:10298000B10558F021E0C21AD108E108F10888EE3B
:10299000880E83E0981EA11CB11CC114D104E1046F
:1029A000F10419F7FF90EF90DF90CF90BF90AF90B8
:1029B0009F908F9008950F931F93CF93DF93CDB780
:1029C000DEB7C254D1090FB6F894DEBF0FBECDBF3B
:1029D0008C01FB0182819381A481B58123968CAF08
:1029E0009DAFAEAFBFAF239721E023962FAF2397C4
:1029F00023964CAD5DAD6EAD7FAD23974BAB5CAB1D
:102A00006DAB7EAB89AF9AAFABAFBCAF8DA79EA7C6
:102A1000AFA7B8AB28AB4DA55EA56FA578A94FA30E
:102A200058A769A77AA72EAB4BA95CA96DA97EA967
:102A300049A35AA36BA37CA38B8F9C8FAD8FBE8FB2
:102A40002AA74FA158A569A57AA54D8B5E8B6F8BE0
:102A5000788F2CA349A15AA16BA17CA14F87588BD9
:102A6000698B7A8B89879A87AB87BC870E9482188B
:102A7000DC01CB0186509F4FAF4FBF4F80932D0598
:102A800090932E05A0932F05B093300589E091E037
:102A9000E4E1F3E0DF019C011D9221503040E1F7B9
:102AA00081E098E0909315038093140361E08AE03D
:102AB0000E94211861E08AE00E94D51761E08BE056
:102AC0000E94211861E08DE00E94211860E08CE0F6
:102AD0000E94211861E08AE00E94211860E08BE0EA
:102AE0000E94D51760E08DE00E94D51780E58CBD6F
:102AF0008DB581608DBD4FEF60E08FEF0E941B1997
:102B00000E94A41410921E0410921D0460E070E054
:102B100088E00E94601960E070E08CE00E9460191B
:102B20006FEF77E08AE00E94601961EB88E30E9412
:102B30007C196FE370E388E20E94601969EF77EF18
:102B400080E30E9460196DE070E080EC0E946019E3
:102B500042E362EC80E80E941B1962E17CE086ECB3
:102B60000E94601962E184EC0E947C196CED75E0B2
:102B70008AEC0E946019D8016C9184EE0E947C1945
:102B8000F801618185EE0E947C19D80112966C9142
:102B900082EE0E947C19F801638183EE0E947C1909
:102BA000D80114966C9180EE0E947C19F801658121
:102BB00081EE0E947C1960E071E080E10E94B11911
:102BC0008FE10E943E1940EC6BE180E80E941B19E6
:102BD00044E06FE180E80E941B1966E774E084E13D
:102BE0000E94B119D8018C918093270511968C9180
:102BF00011978093280512968C911297809329053E
:102C000013968C91139780932A0514968C911497A0
:102C100080932B0515968C9180932C0580E0E82FEE
:102C2000F0E0EE0FFF1FEB53FB4F118210828F5F1E
:102C30008430A9F780E09EE1989FF0011124E35BC6
:102C4000FB4F118E8F5F8430B9F780E094E0909352
:102C50004C0480934B0480E09BE0989FF00111248A
:102C6000E15EFB4F158214828F5F8430B1F7809351
:102C7000CD04109226059BE080912605883068F4EB
:102C8000989FF0011124E253FB4F108211821282AF
:102C900013828F5F80932605EFCF7D894E896F89E0
:102CA00051E05A8B8F859889A989BA898B839C8337
:102CB000AD83BE838B8590E0982F88272C85822B4F
:102CC000982789279827298530E0322F2227EA85FF
:102CD0002E2B322723273227309311032093100302
:102CE0009093130380931203842F90E0972B9427E3
:102CF0008927982790930D0380930C03862F90E0EB
:102D0000916090930F0380930E038FEF9FEF90934A
:102D10000903809308038FEF90E090930B03809357
:102D20000A035E838B819C81AD81BE818093D10536
:102D30009093D205A093D305B093D405CE5BDF4F1B
:102D40000FB6F894DEBF0FBECDBFDF91CF911F91BC
:102D50000F910895FC01538D448D252F30E0842F71
:102D600090E0821B930B541710F0CF9608950197B3
:102D70000895FC01918D828D981761F0828DDF019D
:102D8000A80FB11D5D968C91928D9F5F9F73928F5E
:102D900090E008958FEF9FEF0895FC01918D828D53
:102DA000981731F0828DE80FF11D858D90E0089520
:102DB0008FEF9FEF0895FC01918D228D892F90E078
:102DC000805C9F4F821B91098F7399270895FC01A6
:102DD000848DDF01A80FB11DA35ABF4F2C91848DA4
:102DE00090E001968F739927848FA689B7892C93D9
:102DF000A089B1898C9180648C93938D848D981374
:102E000006C00288F389E02D80818F7D808308953C
:102E1000EF92FF920F931F93CF93DF93EC0181E02A
:102E2000888F9B8D8C8D981305C0E889F9898081E6
:102E300085FD24C0F62E0B8D10E00F5F1F4F0F7322
:102E40001127E02E8C8DE8120CC00FB607FCFACFCC
:102E5000E889F989808185FFF5CFCE010E94E716C8
:102E6000F1CF8B8DFE01E80FF11DE35AFF4FF08289
:102E70000B8FEA89FB898081806207C0EE89FF8918
:102E80006083E889F98980818064808381E090E0B3
:102E9000DF91CF911F910F91FF90EF900895CF9305
:102EA000DF93EC01888D8823C9F0EA89FB89808152
:102EB00085FD05C0A889B9898C9186FD0FC00FB624
:102EC00007FCF5CF808185FFF2CFA889B9898C9165
:102ED00085FFEDCFCE010E94E716E7CFDF91CF91BE
:102EE000089580E090E0892B29F00E94D913811188
:102EF0000C94000008950E949F1F1F920F920FB61E
:102F00000F9211242F933F934F935F936F937F936F
:102F10008F939F93AF93BF93EF93FF9382E395E0DB
:102F20000E94E716FF91EF91BF91AF919F918F9112
:102F30007F916F915F914F913F912F910F900FBEB5
:102F40000F901F9018951F920F920FB60F92112499
:102F50002F938F939F93EF93FF93E0914205F0910E
:102F600043058081E0914805F091490582FD12C03A
:102F7000908180914B058F5F8F7320914C05821754
:102F800051F0E0914B05F0E0EE5CFA4F958F8093A5
:102F90004B0501C08081FF91EF919F918F912F91FF
:102FA0000F900FBE0F901F90189590E0FC01EC540D
:102FB000FF4F3491FC01E056FF4F2491FC01E45790
:102FC000FF4FE491EE2309F43BC0332339F1333052
:102FD00091F038F43130A9F0323001F584B58F7DAD
:102FE00012C0373091F03830A1F03430B9F480910C
:102FF00080008F7D03C0809180008F778093800058
:103000000DC084B58F7784BD09C08091B0008F77E3
:1030100003C08091B0008F7D8093B000F0E0EE0F90
:10302000FF1FEE57FF4FA591B4918FB7F894EC9125
:10303000611103C020952E2301C02E2B2C938FBF2E
:103040000895CF93DF9390E0FC01E056FF4F249169
:10305000FC01E457FF4F8491882361F190E0880FD1
:10306000991FFC01E858FF4FC591D491FC01EE5720
:10307000FF4FA591B491611109C09FB7F894888161
:10308000209582238883EC912E230BC0623061F45B
:103090009FB7F8943881822F809583238883EC91A1
:1030A0002E2B2C939FBF06C08FB7F894E8812E2B50
:1030B00028838FBFDF91CF9108953FB7F894809117
:1030C000230690912406A0912506B091260626B5E8
:1030D000A89B05C02F3F19F00196A11DB11D3FBF50
:1030E000BA2FA92F982F8827820F911DA11DB11DDE
:1030F000BC01CD0142E0660F771F881F991F4A95DA
:10310000D1F708952FB7F89460911F0670912006AB
:1031100080912106909122062FBF08951F920F9251
:103120000FB60F9211242F933F938F939F93AF93DA
:10313000BF9380911F0690912006A0912106B09127
:10314000220630911E0623E0230F2D3720F401962E
:10315000A11DB11D05C026E8230F0296A11DB11DBA
:1031600020931E0680931F0690932006A0932106AD
:10317000B09322068091230690912406A091250603
:10318000B09126060196A11DB11D80932306909350
:103190002406A0932506B0932606BF91AF919F9178
:1031A0008F913F912F910F900FBE0F901F90189508
:1031B0008823E9F0A4E1B3E025E014969C911497EC
:1031C00098130DC095E0899FF0011124EC5EFC4F2F
:1031D000848114968C931382128214820895992309
:1031E00031F0299FD0011124AC5EBC4FE6CF089589
:1031F0000F931F93CF93DF938C01EB0160E08AE084
:103200000E94D5178AE38EBD0DB407FEFDCF0C0FCB
:103210001D1FC017D10739F01EBC0DB407FEFDCF2E
:103220008EB58993F6CF61E08AE0DF91CF911F914F
:103230000F910C94D5170F931F93CF93DF931F9289
:10324000CDB7DEB7182F062F60E08AE049830E94D1
:10325000D517802F8F71812B8EBD49810DB407FE4C
:10326000FDCF4EBD0DB407FEFDCF61E08AE00F90AB
:10327000DF91CF911F910F910C94D5171F93CF938E
:10328000DF93182F1076C12FD0E02091000130E09D
:10329000C217D30789F043E06FE180EA0E941B194F
:1032A000AE0185E0559547958A95E1F76FE180E895
:1032B0000E941B1910930001DF91CF911F91089577
:1032C0001F93CF93DF9300D0CDB7DEB7182F69835C
:1032D0007A830E943E194981612F80E40E941B1964
:1032E00061E0610F7A81472F80E40F900F90DF91AA
:1032F000CF911F910C941B191F93CF93DF931F92B3
:10330000CDB7DEB7182F69830E943E194981612F1E
:1033100080E40F90DF91CF911F910C941B19CF93F4
:10332000DF93C82FD62F60E08AE00E94D5178D2F3B
:103330008F71C82BCEBD0DB407FEFDCF1EBC0DB4E2
:1033400007FEFDCFD7FD08C061E08AE00E94D517D7
:103350008EB5DF91CF9108951EBC0DB407FEFDCF51
:10336000F3CFCF93DF93EB01682F84ED0E947C199C
:10337000BE0186ED0E946019C7E3D0E08AEE0E948C
:103380003E196AEE80E00E948F1980FF04C0CE01D2
:103390000197F1F7F3CFDF91CF910895CF93C62F27
:1033A000BC0182E00E94601960E08AE00E94D517AB
:1033B0008AE78EBD0DB407FEFDCFCEBD0DB407FE6E
:1033C000FDCF61E08AE0CF910C94D517BC0180E07D
:1033D0000E94601960E08AE00E94D5178AE38EBDE2
:1033E0000DB407FEFDCF1EBC0DB407FEFDCF61E09E
:1033F0008AE00E94D5178EB50895CF92DF92EF92A2
:10340000FF920F931F93CF93DF936C018B01413099
:10341000510579F4CB010E94E619682FC601DF91AE
:10342000CF911F910F91FF90EF90DF90CF900C9470
:10343000CE19EA01C60FD71F7E0181E0E81AF10814
:1034400080E10E946019B60184E10E9460190115B3
:10345000184038F4E11488E0F80618F07E0188E09E
:10346000F81AB70182E10E94601940E16FE180EA39
:103470000E941B1940E26FE180E80E941B196FE176
:1034800080E00E948F1985FDFACFDF91CF911F91C7
:103490000F91FF90EF90DF90CF900895CF92DF9241
:1034A000EF92FF920F931F93CF93DF938C01609164
:1034B0001403709115036150784EC12C98E1D92EF8
:1034C000E4E1F3E080E0C0E0D0E045E094819923BE
:1034D00049F0499F900111242C5E3C4FD9012D9158
:1034E0003C9101C09B01E080F1802E193F090280D0
:1034F000F381E02D2E1B3F0B2017310739F4B5E087
:103500008B9FE0011124CC5EDC4F49C002171307EA
:1035100048F42C153D0530F4489FE0011124CC5EA1
:10352000DC4F6901911107C02097C9F5C4E1D3E0D0
:1035300085E0D82E1EC0499FF0011124EC5EFC4F9F
:10354000892FC4CFEA80FB8028813981E20EF31EE7
:10355000D89EE0011124CC5EDC4F68817981E616AB
:10356000F70639F04A815B81C7010E94FD19F98293
:10357000E8828C818111E6CF2091140330911503EC
:1035800088819981281B390B8A819B81281B390BE3
:103590002150384E2017310710F480E01AC0E9E1BD
:1035A000F3E091E022813381232B29F035969F5F50
:1035B0009533C1F7F2CF4A815B8128813981240F8D
:1035C000351F31832083138302838C8184839C8302
:1035D000892FDF91CF911F910F91FF90EF90DF9096
:1035E000CF900895CF92DF92EF92FF920F931F93A7
:1035F000CF93DF937B018A01690125E0829FC0019F
:103600001124EC01CC5EDC4F688179816E0D7F1D49
:1036100082E00E9460190A80DB81C02DCE19DF098B
:10362000CC16DD0608F4E60160E08AE00E94D517BA
:103630008AE78EBD0DB407FEFDCFC8018C0F9D1F1C
:103640000817190741F0F80121918F012EBD0DB423
:1036500007FEFDCFF5CF61E08AE00E94D517CE01CD
:10366000DF91CF911F910F91FF90EF90DF90CF905E
:103670000895EF92FF920F931F93CF93DF938B01E7
:103680007A018F3FD1F025E0829FE0011124CC5ECA
:10369000DC4F02C0C9E1D6E088819981B801680F8A
:1036A000791F80E00E9460198A819B81801B910BA9
:1036B000E816F90690F4C70110C0809119069091A0
:1036C0001A06860F971F811528E0920718F3BC0190
:1036D0006F5F7740C9E1D6E0E4CFDF91CF911F91D2
:1036E0000F91FF90EF900895882381F08F3F29F488
:1036F00080911B0690911C06089595E0899FF0012A
:103700001124EC5EFC4F82819381089580E090E06B
:10371000089560911D0470911E046115710519F0E2
:103720006150710902C06FEF77E08CE00C94601972
:103730000F931F93DB01E42FA80190E0EF3F09F105
:1037400065E0E69FF0011124EC5EFC4F02C0E9E168
:10375000F6E00190F081E02D2E0F3F1F65E0689F9D
:10376000F001699FF00D1124EC5EFC4F8081918186
:10377000B9018A0F9B1F0E94FD191F910F910C9494
:10378000891BE0911906F0911A06E20FF31FE1156B
:1037900068E0F607E0F29F012F5F3740DFCFFC01C2
:1037A0002381260F2093F602A72FBB2792819A0F21
:1037B0009093F50231813093F40240814093F302FB
:1037C000E92FF0E0EA17FB0748F481E0830F8093CC
:1037D000F402811103C04F5F4093F30230E077277A
:1037E0002617370788F49F5F9093F50291110CC05C
:1037F0008091F4028F5F8093F402811105C0809163
:10380000F3028F5F8093F3020895CF93DF93C0910B
:103810008702D0918802BC01CE0108960E94CF1B7E
:10382000E3EFF2E0808188878181898782818A87BE
:1038300083818B87DF91CF910895EBEDF5E087E9E8
:1038400091E0918380831282138214821582E2E3D5
:10385000F5E01382128248EE53E060E070E04483AA
:1038600055836683778327E131E03183208325EC1C
:1038700030E03587248724EC30E03787268720EC3A
:1038800030E0318B208B21EC30E0338B228B22EC2B
:1038900030E0358B248B26EC30E0378B268B118E75
:1038A000128E138E148EE1EEF5E0918380831282E6
:1038B000138214821582E7EEF5E0918380831282F1
:1038C000138214821582EDEEF5E0918380831282DB
:1038D000138214821582EFECF5E0918380831282CB
:1038E000138214821582E3EFF5E0918380831282C4
:1038F000138214821582E5EDF5E0918380831282B4
:10390000138214821582E9EFF5E09183808312829D
:10391000138214821582E3E1F6E0918380831282A0
:10392000138214821582EFEFF5E013821282448332
:103930005583668377838FE691E091838083158634
:10394000148686E0EDE0F6E0DF011D928A95E9F746
:103950000895CF93DF93CDB7DEB72C970FB6F894C9
:10396000DEBF0FBECDBF789484B5826084BD84B5C0
:10397000816084BD85B5826085BD85B5816085BD6A
:1039800080916E00816080936E0010928100809122
:1039900081008260809381008091810081608093AA
:1039A0008100809180008160809380008091B100CF
:1039B00084608093B1008091B00081608093B000FA
:1039C00080917A00846080937A0080917A0082608E
:1039D00080937A0080917A00816080937A00809150
:1039E0007A00806880937A001092C100E0914205CD
:1039F000F091430582E08083E0913E05F0913F0520
:103A00001082E0914005F09141058FEC8083109287
:103A10004A05E0914605F091470586E08083E091F4
:103A20004405F0914505908190619083E0914405B3
:103A3000F0914505908198609083E0914405F09164
:103A40004505908190689083E0914405F09145058B
:103A500090819F7D9083EDE0F1E0DE01179601906B
:103A60000D928A95E1F787E991E09A83898380EC4A
:103A70008B8388EA8C8381E08D838DE68E83BE0103
:103A80006F5F7F4FCE0107960E94DB1468E873E1F9
:103A90008FEF95E00E946401F82E81EB91E00E9487
:103AA000F813F11003C06AEA71E002C062EA71E043
:103AB00082E395E00E9446148FEF95E00E94DF04B8
:103AC000181619060CF0E3C07C012FEFE21AF20A77
:103AD000C7010E94721E6C01A701BC018FEF95E027
:103AE0000E9423018C0D9D1DFC0110828EEB91E044
:103AF0000E94F813C6010E94F813C6010E94071F16
:103B00008FEF95E00E94D50418161906ECF28FEF9E
:103B100095E00E94530468EC71E082E395E00E9416
:103B200046148AEC91E00E94F8136FEF75E0CE0125
:103B300001960E949F00E981FA810190F081E02DB9
:103B400062E375E0CE01019609956FE971E082E3C9
:103B500095E00E94E31386ED91E00E94F8138FEF49
:103B600095E00E948F00AC0160E070E02AE082E303
:103B700095E00E94FD136FE971E082E395E00E94F9
:103B8000E3138FEF95E00E948F007C016FEF75E0EB
:103B9000CE0101960E949F00A701BE016F5F7F4F7B
:103BA0008FEF95E00E94EE047C0184EE91E00E948C
:103BB000F813E114F10419F46AEA71E002C062EA50
:103BC00071E082E395E00E944614EF2809F4A9CF42
:103BD00062EF71E08FEF95E00E9446146C018BE07C
:103BE00092E00E94F8130D2C000CEE08FF08F7FE7F
:103BF00014C0E0913205F09133050190F081E02D81
:103C00006DE282E395E0099544275527BA014C19E6
:103C10005D096E097F092AE003C02AE0B701A60109
:103C200082E395E00E94FD136FE971E082E395E085
:103C30000E94E3138FEF95E00E941C027C018BE150
:103C400092E00E94F813EF2819F46AEA71E002C0CA
:103C500062EA71E082E395E00E9446148FEF95E0FE
:103C60000E94420187E292E00E94F81368E873E143
:103C70008FEF95E00E946401811103C06AEA71E050
:103C800002C062EA71E082E395E00E9446140E945D
:103C9000711712CFA1E21A2EAA1BBB1BFD010DC08A
:103CA000AA1FBB1FEE1FFF1FA217B307E407F507EC
:103CB00020F0A21BB30BE40BF50B661F771F881FC8
:103CC000991F1A9469F760957095809590959B015E
:103CD000AC01BD01CF010895EE0FFF1F0590F491D7
:103CE000E02D0994CF93DF938230910510F482E0A8
:103CF00090E0E0912906F0912A0620E030E0C0E053
:103D0000D0E0309711F14081518148175907C0F038
:103D10004817590761F482819381209719F09B839A
:103D20008A832BC090932A068093290626C02115EA
:103D3000310519F04217530718F49A01BE01DF014B
:103D4000EF010280F381E02DDCCF2115310509F16F
:103D5000281B390B2430310590F412968D919C91DB
:103D600013976115710521F0FB019383828304C0D1
:103D700090932A0680932906FD01329644C0FD01E6
:103D8000E20FF31F81939193225031092D933C93BD
:103D90003AC02091270630912806232B41F4209128
:103DA00003013091040130932806209327062091C7
:103DB0000101309102012115310541F42DB73EB7C3
:103DC0004091050150910601241B350BE091270617
:103DD000F0912806E217F307A0F42E1B3F0B2817DB
:103DE000390778F0AC014E5F5F4F2417350748F074
:103DF0004E0F5F1F5093280640932706819391939F
:103E000002C0E0E0F0E0CF01DF91CF9108950F9381
:103E10001F93CF93DF93009709F48CC0FC01329776
:103E2000138212820091290610912A0601151105AC
:103E300081F420813181820F931F209127063091D8
:103E400028062817390779F5F0932806E093270606
:103E500071C0D80140E050E0AE17BF0750F4129691
:103E60002D913C911397AD012115310509F1D9012F
:103E7000F3CF9D01DA013383228360817181860F44
:103E8000971F8217930769F4EC0128813981260F67
:103E9000371F2E5F3F4F318320838A819B8193831D
:103EA0008283452B29F4F0932A06E093290642C029
:103EB0001396FC93EE931297ED01499159919E014F
:103EC000240F351FE217F30771F480819181840F6D
:103ED000951F029611969C938E93828193811396DF
:103EE0009C938E931297E0E0F0E0D80112968D91AA
:103EF0009C911397009719F0F8018C01F6CF8D91E2
:103F00009C9198012E5F3F4F820F931F20912706AF
:103F1000309128062817390769F4309729F4109250
:103F20002A061092290602C01382128210932806D4
:103F300000932706DF91CF911F910F91089581E0A3
:103F400090E0F8940C94B41FFB01DC0102C00190D6
:103F50000D9241505040D8F70895DC0101C06D9397
:0C3F600041505040E0F70895F894FFCF66
:103F6C00FF00002B068000FFFFFFFFFFFF00010298
:103F7C00030405000000000817AE13AA164F17DB48
:103F8C0016B916CD16000000007B177B1720017B9D
:103F9C00177B177B177B177B17F8007B177B177B1F
:103FAC00177B177B177B177B177B177B1700000082
:103FBC00007B17AE1320011F017B177B177B1700AB
:103FCC000000007B17AE1320011F0100000000E26F
:103FDC00002A0120015304D504C5005F046401F8D4
:103FEC00004201EE046E051C02DF04870423019FCE
:103FFC00008F00000000005A14000000007B170D19
:10400C000A0073756363657373006661696C65643C
:10401C0000696E697469616C697A653A2000726531
:10402C006365697665643A20270072656D6F746507
:10403C002069703A200072656D6F746520706F7224
:10404C00743A2000626567696E5061636B65743AFF
:10405C00200068656C6C6F20776F726C64206672E0
:10406C006F6D2061726475696E6F0062797465732F
:10407C00207772697474656E3A2000656E645061C5
:10408C00636B65743A20007265737461727420639B
:0C409C006F6E6E656374696F6E3A2000F1
:107E0000112484B714BE81FFF0D085E080938100F7
:107E100082E08093C00088E18093C10086E0809377
:107E2000C20080E18093C4008EE0C9D0259A86E02C
:107E300020E33CEF91E0309385002093840096BBD3
:107E4000B09BFECF1D9AA8958150A9F7CC24DD24C4
:107E500088248394B5E0AB2EA1E19A2EF3E0BF2EE7
:107E6000A2D0813461F49FD0082FAFD0023811F036
:107E7000013811F484E001C083E08DD089C08234E0
:107E800011F484E103C0853419F485E0A6D080C0E4
:107E9000853579F488D0E82EFF2485D0082F10E0AE
:107EA000102F00270E291F29000F111F8ED06801E7
:107EB0006FC0863521F484E090D080E0DECF843638
:107EC00009F040C070D06FD0082F6DD080E0C81688
:107ED00080E7D80618F4F601B7BEE895C0E0D1E017
:107EE00062D089930C17E1F7F0E0CF16F0E7DF06D8
:107EF00018F0F601B7BEE89568D007B600FCFDCFD4
:107F0000A601A0E0B1E02C9130E011968C91119780
:107F100090E0982F8827822B932B1296FA010C0160
:107F200087BEE89511244E5F5F4FF1E0A038BF0790
:107F300051F7F601A7BEE89507B600FCFDCF97BE46
:107F4000E89526C08437B1F42ED02DD0F82E2BD052
:107F50003CD0F601EF2C8F010F5F1F4F84911BD097
:107F6000EA94F801C1F70894C11CD11CFA94CF0C13
:107F7000D11C0EC0853739F428D08EE10CD085E9AC
:107F80000AD08FE07ACF813511F488E018D01DD067
:107F900080E101D065CF982F8091C00085FFFCCF94
:107FA0009093C60008958091C00087FFFCCF809118
:107FB000C00084FD01C0A8958091C6000895E0E648
:107FC000F0E098E1908380830895EDDF803219F02E
:107FD00088E0F5DFFFCF84E1DECF1F93182FE3DFCA
:107FE0001150E9F7F2DF1F91089580E0E8DFEE27F6
:047FF000FF270994CA
:027FFE00040479
:0400000300007E007B
:00000001FF