:100000000C9458000C9480000C9480000C94800098
:100010000C9480000C9480000C9480000C94800060
:100020000C9480000C9480000C9480000C94800050
:100030000C9480000C9480000C9480000C94800040
:100040000C944C050C9480000C941A050C94F40448
:100050000C9480000C9480000C9480000C94800020
:100060000C9496050C9480000000000025002800E8
:100070002B00040404040404040402020202020229
:10008000030303030303010204081020408001025C
:1000900004081020010204081020000000080002DB
:1000A0000100000304070000000000000000C40677
:1000B00011241FBECFEFD8E0DEBFCDBF11E0A0E01E
:1000C000B1E0E6E4F6E102C005900D92A833B10775
:1000D000D9F722E0A8E3B1E001C01D92A23AB2072D
:1000E000E1F710E0C8E5D0E004C02197FE010E94CE
:1000F000160BC735D107C9F70E94FD060C94210BDA
:100100000C940000382F2091F8019091F7012132D2
:1001100008F049C08091D4018111FCCF42E04093A6
:10012000D4013093D3013FEF3093D2011092D1012B
:100130002093D001A7EDB1E040EB51E0FA013E2F52
:10014000341B321718F43D913193F9CF1092AF015F
:100150002091AF01990F922B9093AF019091AE0136
:10016000913061F41092AE019091AF019093BB0079
:100170009091BC0093FDF8CF95EC01C095EE909363
:10018000BC009091D4019230E1F39091D2019F3F55
:1001900079F08091D201803241F08091D201803398
:1001A00031F084E005C081E003C082E001C083E05B
:1001B0001092D6011092F8011092D501089590E0A6
:1001C000FC01E656FF4F2491FC01EA57FF4F3491A2
:1001D000FC01EE58FF4FE491EE23B1F1222339F1F7
:1001E000233091F038F42130A9F0223001F584B5A4
:1001F0008F7D12C0273091F02830A1F02430B9F45F
:10020000809180008F7D03C0809180008F778093E4
:1002100080000DC084B58F7784BD09C08091B00087
:100220008F7703C08091B0008F7D8093B000F0E0A5
:10023000EE0FFF1FE859FF4FA591B4918FB7F894C7
:10024000EC913E2B3C938FBF0895CF92DF92EF92BB
:10025000FF920F931F93CF93DF936C017A018B0171
:10026000C0E0D0E0CE15DF0589F0D8016D918D0199
:10027000D601ED91FC910190F081E02DC601099528
:10028000892B11F47E0102C02196ECCFC701DF91CA
:10029000CF911F910F91FF90EF90DF90CF90089535
:1002A000FC01538D448D252F30E0842F90E0821B7C
:1002B000930B541710F0CF96089501970895FC0101
:1002C000918D828D981761F0828DDF01A80FB11D8D
:1002D0005D968C91928D9F5F9F73928F90E00895B1
:1002E0008FEF9FEF0895FC01918D828D981731F06B
:1002F000828DE80FF11D858D90E008958FEF9FEFBF
:100300000895FC01918D228D892F90E0805C9F4F94
:10031000821B91098F739927089589EF91E00E94BC
:10032000810121E0892B09F420E0822F0895FC014E
:10033000848DDF01A80FB11DA35ABF4F2C91848D6E
:1003400090E001968F739927848FA689B7892C93A3
:10035000A089B1898C9180648C93938D848D98133E
:1003600006C00288F389E02D80818F7D8083089507
:10037000EF92FF920F931F93CF93DF93EC0181E0F5
:10038000888F9B8D8C8D981305C0E889F9898081B1
:1003900085FD24C0F62E0B8D10E00F5F1F4F0F73ED
:1003A0001127E02E8C8DE8120CC00FB607FCFACF97
:1003B000E889F989808185FFF5CFCE010E949701F8
:1003C000F1CF8B8DFE01E80FF11DE35AFF4FF08254
:1003D0000B8FEA89FB898081806207C0EE89FF89E3
:1003E0006083E889F98980818064808381E090E07E
:1003F000DF91CF911F910F91FF90EF900895CF93D0
:10040000DF93EC01888D8823C9F0EA89FB8980811C
:1004100085FD05C0A889B9898C9186FD0FC00FB6EE
:1004200007FCF5CF808185FFF2CFA889B9898C912F
:1004300085FFEDCFCE010E949701E7CFDF91CF91ED
:10044000089580E090E0892B29F00E948D018111B0
:100450000C94000008953FB7F89480918401909126
:100460008501A0918601B091870126B5A89B05C0A2
:100470002F3F19F00196A11DB11D3FBFBA2FA92F23
:10048000982F8827820F911DA11DB11DBC01CD01A0
:1004900042E0660F771F881F991F4A95D1F708958C
:1004A00085ED8093BC008091BC0084FDFCCF109250
:1004B000D401089540915A01262F30E0240F311DB8
:1004C00021323105DCF42091D4012430C9F4FC013F
:1004D00080E090E0861758F430915A012191DC01B8
:1004E000A85CBE4FA30FB11D2C930196F3CF809152
:1004F0005A01680F60935A0180E0089581E00895E1
:1005000082E008951092D40181E08093D30110928B
:10051000AE0182E10E94DF0083E10E94DF00E9EB8F
:10052000F0E080818E7F808380818D7F808388E46E
:100530008093B80085E48093BC0008950895E0910D
:100540008D0180918C01E81730F4F0E0E257FE4F06
:10055000808190E008958FEF9FEF089590918D0135
:1005600080918C01981750F4E92FF0E0E257FE4F8C
:10057000208130E09F5F90938D0102C02FEF3FEF0D
:10058000C901089580918C0190E020918D01821B1A
:1005900091090895CF92DF92EF92FF920F931F93EC
:1005A000CF93DF937C01262F972F8A018091D5016D
:1005B000882391F0C62FD72F6E01C40ED51ECC15FF
:1005C000DD0571F06991D701ED91FC910190F08109
:1005D000E02DC7010995F3CF642F822F0E945A02A4
:1005E000C801DF91CF911F910F91FF90EF90DF90A5
:1005F000CF900895CF93DF931F92CDB7DEB7698375
:100600002091D5012223D1F02091F801203240F031
:1006100021E030E0FC013383228380E090E015C0CC
:100620008091D601E82FF0E0E952FE4F9981908346
:100630008F5F8093D6018093F80105C061E0CE0101
:1006400001960E945A0281E090E00F90DF91CF91D5
:100650000895CF93C62F91E09093D50190E69093A3
:10066000F7011092D6011092F801682F86E992E006
:100670000E94FA026C2F86E992E00E94FA0281E061
:10068000CF910C948200089580E090E008959091BD
:10069000D4019111FCCF813208F080E291E0909377
:1006A000D4019093D3012FEF2093D2011092D10166
:1006B000280F2093D0019093AF019091AF01906CDF
:1006C0009093AF019091AE01913061F41092AE0120
:1006D0009091AF019093BB009091BC0093FDF8CF37
:1006E00095EC01C095EE9093BC009091D4019130AF
:1006F000E1F39091D101981710F48091D101A0EB12
:10070000B1E02EE831E0F9019E2F921B981718F402
:100710009D919193F9CF10928D0180938C01089552
:1007200091E09093D50190E69093F7011092D60155
:100730001092F801682F86E992E00E94FA0280E0A8
:100740000E94820081E090E00E94470386E992E0E7
:100750000E94AE02089586E20E949003682F6D7F8A
:1007600086E20E94290386E20E949003682F62605D
:1007700086E20C942903009769F0FC0101900020A7
:10078000E9F73197AF01481B590BBC0189EF91E0A4
:100790000C94250180E090E008958F929F92AF9293
:1007A000BF920F931F93CF93DF93CDB7DEB7A1977F
:1007B0000FB6F894DEBF0FBECDBF19A2423008F4C9
:1007C0004AE08E010F5D1F4F842E912CA12CB12C7D
:1007D000A50194010E94F40AE62FB901CA01015053
:1007E0001109EA3014F4E05D01C0E95CD801EC9332
:1007F000232B242B252B61F7C8010E94BB03A19654
:100800000FB6F894DEBF0FBECDBFDF91CF911F9121
:100810000F91BF90AF909F908F9008954F925F92ED
:100820006F927F928F929F92AF92BF92CF92DF9200
:10083000EF92FF926B017C01B42E9B01AC010E94F0
:10084000EF0A882319F084E291E027C026013701DE
:10085000E89477F82FEF3FEF4FE75FE7C301B2016E
:100860000E94EF0A81110DC02FEF3FEF4FE75FE7C6
:10087000C301B2010E94250918161CF488E291E018
:100880000CC02FEF3FEF4FE75FE4C701B6010E94B6
:100890007D0A181684F48CE291E0FF90EF90DF90CF
:1008A000CF90BF90AF909F908F907F906F905F9010
:1008B0004F900C94BB032FEF3FEF4FE75FECC70166
:1008C000B6010E94250987FDE6CF20E030E0A901AE
:1008D000C701B6010E94250987FF11C0E091F90107
:1008E000F091FA010190F081E02D6DE289EF91E045
:1008F00009954C01F7FAF094F7F8F09402C0812CB6
:10090000912CA12C60E070E080E09FE3AB1441F0FB
:1009100020E030E040E251E40E942A09A394F6CF9F
:100920009B01AC01C701B6010E94B9082B013C0133
:100930000E949C096B017C010E94CB099B01AC01C8
:10094000C301B2010E94B8082B013C014AE0C70173
:10095000B6010E94CD037C01E80CF91CBB2069F0B4
:10096000E091F901F091FA010190F081E02D6EE241
:1009700089EF91E00995E80EF91EDB2CDD2021F1CD
:1009800020E030E040E251E4C301B2010E94820A5B
:100990002B013C010E949C094B01A12CB12C4AE087
:1009A000C501B4010E94CD03E80EF91EC501B401D2
:1009B0000E94CB099B01AC01C301B2010E94B8089F
:1009C0002B013C01DA94DACFC701FF90EF90DF9062
:1009D000CF90BF90AF909F908F907F906F905F90DF
:1009E0004F9008950E941C0B1F920F920FB60F920A
:1009F00011242F933F934F935F936F937F938F9324
:100A00009F93AF93BF93EF93FF9389EF91E00E9481
:100A10009701FF91EF91BF91AF919F918F917F913E
:100A20006F915F914F913F912F910F900FBE0F905B
:100A30001F9018951F920F920FB60F9211242F93AB
:100A40008F939F93EF93FF93E0910902F0910A0235
:100A50008081E0910F02F091100282FD12C090811E
:100A6000809112028F5F8F7320911302821751F0D1
:100A7000E0911202F0E0E750FE4F958F8093120252
:100A800001C08081FF91EF919F918F912F910F90E5
:100A90000FBE0F901F9018951F920F920FB60F92D6
:100AA00011242F933F938F939F93AF93BF93809184
:100AB000800190918101A0918201B09183013091D8
:100AC0007F0123E0230F2D3720F40196A11DB11DD6
:100AD00005C026E8230F0296A11DB11D20937F01BA
:100AE0008093800190938101A0938201B093830150
:100AF0008091840190918501A0918601B091870138
:100B00000196A11DB11D8093840190938501A0934E
:100B10008601B0938701BF91AF919F918F913F91D3
:100B20002F910F900FBE0F901F9018951F920F924C
:100B30000FB60F9211242F933F934F935F936F93B0
:100B40007F938F939F93AF93BF93EF93FF93809186
:100B5000B900887F803609F49CC068F5883209F4B2
:100B60005BC090F4803109F454C038F4882309F450
:100B7000F6C0883009F44DC0F6C0883109F44CC085
:100B8000803209F45DC0EFC0803409F468C048F4D5
:100B9000803309F455C0883309F0E5C08093D20151
:100BA000D8C0803509F44FC0883509F45DC0883459
:100BB00009F0D9C0D6C0883909F4C7C0A8F488376D
:100BC00009F467C038F4883609F463C0803709F443
:100BD00060C0C9C0883809F4B8C0803909F45FC062
:100BE000803809F0C0C05BC0803B09F486C038F48F
:100BF000803A09F466C0883A09F47FC0B4C0803CEA
:100C000009F4A7C0883C09F4A4C0883B09F48AC051
:100C1000AAC08091AF0110C09091D1018091D00104
:100C2000981770F5E091D10181E08E0F8093D1018A
:100C3000F0E0E055FE4F80818093BB0085EC86C0DC
:100C40008093D2018EC0E091D10181E08E0F80931C
:100C5000D1018091BB00F0E0E055FE4F8083909180
:100C6000D1018091D0016EC0E091D10181E08E0F61
:100C70008093D1018091BB00F0E0E055FE4F80836E
:100C80008091D30181116DC081E08093AE0184EA2F
:100C900061C083E08093D40110927E01CFCF809118
:100CA0007E01803208F051C0E0917E0181E08E0F1C
:100CB00080937E018091BB00F0E0E25AFE4F80837A
:100CC000BDCF85EC8093BC001092D40180917E0151
:100CD000803230F4E0917E01F0E0E25AFE4F108263
:100CE00060917E0170E0E0915C01F0915D018EE524
:100CF00091E0099510927E0136C084E08093D40182
:100D000010925B0110925A01E0915801F091590143
:100D1000099580915A01811105C081E080935A01A3
:100D200010923801E0915B0181E08E0F80935B01AE
:100D3000F0E0E85CFE4F80818093BB0090915B0106
:100D400080915A01981708F479CF85E88093BC0008
:100D50000AC085EC8093BC001092D40104C01092AC
:100D6000D2010E945002FF91EF91BF91AF919F91EC
:100D70008F917F916F915F914F913F912F910F9044
:100D80000FBE0F901F901895E9EFF1E013821282C9
:100D900088EE93E0A0E0B0E084839583A683B783D8
:100DA00024E031E03183208325EC30E0358724874F
:100DB00024EC30E03787268720EC30E0318B208B25
:100DC00021EC30E0338B228B22EC30E0358B248B0E
:100DD00026EC30E0378B268B118E128E138E148EFC
:100DE000E6E9F2E01382128284839583A683B783B7
:100DF00086E191E0918380830895CF93DF931F92E2
:100E0000CDB7DEB7789484B5826084BD84B5816047
:100E100084BD85B5826085BD85B5816085BD8091C5
:100E20006E00816080936E0010928100809181003D
:100E30008260809381008091810081608093810035
:100E4000809180008160809380008091B1008460F7
:100E50008093B1008091B00081608093B000809158
:100E60007A00846080937A0080917A008260809317
:100E70007A0080917A00816080937A0080917A0074
:100E8000806880937A001092C10010928D011092B8
:100E90008C011092D6011092F8010E948202E0911A
:100EA0000902F0910A0282E08083E0910502F0914C
:100EB00006021082E0910702F09108028FEC808315
:100EC00010921102E0910D02F0910E0286E08083F3
:100ED000E0910B02F0910C02808180618083E091AF
:100EE0000B02F0910C02808188608083E0910B02FC
:100EF000F0910C02808180688083E0910B02F09178
:100F00000C0280818F7D80830E94820286E20E9493
:100F10009003682F6F7786E20E94290386E20E9481
:100F20009003682F686386E20E94290367E083E1EB
:100F30000E94290311E000E680E00E94900369E529
:100F4000E62E62E0F62E80E00E94900381FD1BC039
:100F500021E0E21AF10829F460E070EC89E794ECF2
:100F600074C00E942B024B015C010E942B02DC0129
:100F7000CB0188199909AA09BB09883E9340A105AC
:100F8000B10508F7F2CF1093D5010093F701109245
:100F9000D6011092F80164E086E992E00E94FA021C
:100FA00080E00E94820082E090E00E94470382304D
:100FB00099F686E992E00E94AE02F82EE82E86E9C4
:100FC00092E00E94AE02B82E89830E94AB03898111
:100FD000F7FE10C07F2C612C9301280F311DC90131
:100FE000919581959109E92E382F307FB32EAA244F
:100FF000A39401C0A12C6E2D70E080E090E00E94CF
:10100000CD096B017C018B2D90E054E0959587957F
:101010005A95E1F7BC01990F880B990B0E94CD09F5
:1010200020E030E040E85DE30E94820A9B01AC01D1
:10103000C701B6010E94B908AA2039F09B01AC0192
:1010400060E070E0CB010E94B80820E030E040E1B1
:1010500051E46B017C01C701B6010E94820A20E0C5
:1010600030E040EA50E40E942A0920E030E040E00D
:1010700052E40E94B90860938801709389018093BB
:101080008A0190938B0142E00E940E0480E391E07C
:101090000E94BB0380E00E94900380E00E949003C6
:1010A0001093D5010093F7011092D6011092F80128
:1010B00061E086E992E00E94FA0280E00E948200EC
:1010C00083E090E00E944703833009F043C086E943
:1010D00092E00E94AE02F82E86E992E00E94AE02F3
:1010E000D82E86E992E00E94AE02E82E0E94AB0361
:1010F0008D2D90E0A0E0B0E0BA2FA92F982F88277F
:10110000AF298E292E2D2073E22EF12C34E0F59498
:10111000E7943A95E1F7BC01CD0146E095958795B6
:10112000779567954A95D1F70E94CD094B015C01EF
:10113000B70180E090E00E94CB0920E030E040E879
:101140005EE30E94820A9B01AC01C501B4010E94CA
:10115000B90804C060E070EC89E794EC42E00E94BA
:101160000E0484E391E00E94BB030E942102E4CEBE
:101170005058BB27AA270E94D0080C94430A0E940B
:10118000350A38F00E943C0A20F039F49F3F19F4E8
:1011900026F40C94320A0EF4E095E7FB0C942C0A2A
:1011A000E92F0E94540A58F3BA176207730784079D
:1011B000950720F079F4A6F50C94760A0EF4E095E4
:1011C0000B2EBA2FA02D0B01B90190010C01CA0101
:1011D000A0011124FF27591B99F0593F50F4503EAC
:1011E00068F11A16F040A22F232F342F4427585F9E
:1011F000F3CF469537952795A795F0405395C9F7B6
:101200007EF41F16BA0B620B730B840BBAF091506D
:10121000A1F0FF0FBB1F661F771F881FC2F70EC00C
:10122000BA0F621F731F841F48F4879577956795DF
:10123000B795F7959E3F08F0B0CF9395880F08F0CB
:101240009927EE0F9795879508950E94080A08F44C
:1012500081E008950E943E090C94430A0E943C0AD2
:1012600058F00E94350A40F029F45F3F29F00C94B1
:101270002C0A51110C94770A0C94320A0E94540AD9
:1012800068F39923B1F3552391F3951B550BBB27B5
:10129000AA2762177307840738F09F5F5F4F220FFA
:1012A000331F441FAA1FA9F335D00E2E3AF0E0E8F1
:1012B00032D091505040E695001CCAF72BD0FE2F3B
:1012C00029D0660F771F881FBB1F261737074807CF
:1012D000AB07B0E809F0BB0B802DBF01FF27935887
:1012E0005F4F3AF09E3F510578F00C942C0A0C9415
:1012F000770A5F3FE4F3983ED4F386957795679538
:10130000B795F7959F5FC9F7880F911D96958795BB
:1013100097F90895E1E0660F771F881FBB1F6217DA
:1013200073078407BA0720F0621B730B840BBA0B98
:10133000EE1F88F7E09508950E945C0A88F09F5799
:1013400098F0B92F9927B751B0F0E1F0660F771FE9
:10135000881F991F1AF0BA95C9F714C0B13091F0DF
:101360000E94760AB1E008950C94760A672F782FD0
:101370008827B85F39F0B93FCCF3869577956795A4
:10138000B395D9F73EF490958095709561957F4F10
:101390008F4F9F4F0895E89409C097FB3EF49095B6
:1013A0008095709561957F4F8F4F9F4F9923A9F03E
:1013B000F92F96E9BB279395F695879577956795CD
:1013C000B795F111F8CFFAF4BB0F11F460FF1BC011
:1013D0006F5F7F4F8F4F9F4F16C0882311F096E9A4
:1013E00011C0772321F09EE8872F762F05C0662352
:1013F00071F096E8862F70E060E02AF09A95660F0B
:10140000771F881FDAF7880F9695879597F90895C3
:10141000990F0008550FAA0BE0E8FEEF1616170605
:10142000E807F907C0F012161306E407F50798F06D
:10143000621B730B840B950B39F40A2661F0232B86
:10144000242B252B21F408950A2609F4A140A69502
:101450008FEF811D811D089597F99F6780E870E0E7
:1014600060E008959FEF80EC089500240A9416161A
:10147000170618060906089500240A941216130682
:10148000140605060895092E0394000C11F4882310
:1014900052F0BB0F40F4BF2B11F460FF04C06F5F2C
:1014A0007F4F8F4F9F4F089557FD9058440F551F02
:1014B00059F05F3F71F04795880F97FB991F61F0D6
:1014C0009F3F79F087950895121613061406551F4D
:1014D000F2CF4695F1DF08C0161617061806991FB9
:1014E000F1CF86957105610508940895E894BB27AE
:1014F00066277727CB0197F908950E94080A08F418
:101500008FEF08950E94950A0C94430A0E94350AB1
:1015100038F00E943C0A20F0952311F00C942C0A1C
:101520000C94320A11240C94770A0E94540A70F326
:10153000959FC1F3950F50E0551F629FF001729F78
:10154000BB27F00DB11D639FAA27F00DB11DAA1F87
:10155000649F6627B00DA11D661F829F2227B00DD4
:10156000A11D621F739FB00DA11D621F839FA00D5F
:10157000611D221F749F3327A00D611D231F849FAF
:10158000600D211D822F762F6A2F11249F57504006
:101590009AF0F1F088234AF0EE0FFF1FBB1F661F81
:1015A000771F881F91505040A9F79E3F510580F04A
:1015B0000C942C0A0C94770A5F3FE4F3983ED4F322
:1015C000869577956795B795F795E7959F5FC1F7EE
:1015D000FE2B880F911D9695879597F908950E9487
:1015E000080A880B990B0895A1E21A2EAA1BBB1BAF
:1015F000FD010DC0AA1FBB1FEE1FFF1FA217B307DF
:10160000E407F50720F0A21BB30BE40BF50B661FF4
:10161000771F881F991F1A9469F7609570958095B8
:1016200090959B01AC01BD01CF010895EE0FFF1F06
:101630000590F491E02D099481E090E0F8940C94E9
:06164000210BF894FFCF1E
:1016460000000000B80125015001FF0181015F0182
:10165600730100000000FA02CA0244039E02C2029D
:10166600AE029F026E616E00696E66006F7666005E
:08167600202C20000D0A0000E9
:107E0000112484B714BE81FFF0D085E080938100F7
:107E100082E08093C00088E18093C10086E0809377
:107E2000C20080E18093C4008EE0C9D0259A86E02C
:107E300020E33CEF91E0309385002093840096BBD3
:107E4000B09BFECF1D9AA8958150A9F7CC24DD24C4
:107E500088248394B5E0AB2EA1E19A2EF3E0BF2EE7
:107E6000A2D0813461F49FD0082FAFD0023811F036
:107E7000013811F484E001C083E08DD089C08234E0
:107E800011F484E103C0853419F485E0A6D080C0E4
:107E9000853579F488D0E82EFF2485D0082F10E0AE
:107EA000102F00270E291F29000F111F8ED06801E7
:107EB0006FC0863521F484E090D080E0DECF843638
:107EC00009F040C070D06FD0082F6DD080E0C81688
:107ED00080E7D80618F4F601B7BEE895C0E0D1E017
:107EE00062D089930C17E1F7F0E0CF16F0E7DF06D8
:107EF00018F0F601B7BEE89568D007B600FCFDCFD4
:107F0000A601A0E0B1E02C9130E011968C91119780
:107F100090E0982F8827822B932B1296FA010C0160
:107F200087BEE89511244E5F5F4FF1E0A038BF0790
:107F300051F7F601A7BEE89507B600FCFDCF97BE46
:107F4000E89526C08437B1F42ED02DD0F82E2BD052
:107F50003CD0F601EF2C8F010F5F1F4F84911BD097
:107F6000EA94F801C1F70894C11CD11CFA94CF0C13
:107F7000D11C0EC0853739F428D08EE10CD085E9AC
:107F80000AD08FE07ACF813511F488E018D01DD067
:107F900080E101D065CF982F8091C00085FFFCCF94
:107FA0009093C60008958091C00087FFFCCF809118
:107FB000C00084FD01C0A8958091C6000895E0E648
:107FC000F0E098E1908380830895EDDF803219F02E
:107FD00088E0F5DFFFCF84E1DECF1F93182FE3DFCA
:107FE0001150E9F7F2DF1F91089580E0E8DFEE27F6
:047FF000FF270994CA
:027FFE00040479
:0400000300007E007B
:00000001FF