:100000000C9458000C9480000C9480000C94800098
:100010000C9480000C9480000C9480000C94800060
:100020000C9480000C9480000C9480000C94800050
:100030000C9480000C9480000C9480000C94800040
:100040000C944C050C9480000C941A050C94F40448
:100050000C9480000C9480000C9480000C94800020
:100060000C9496050C9480000000000025002800E8
:100070002B00040404040404040402020202020229
:10008000030303030303010204081020408001025C
:1000900004081020010204081020000000080002DB
:1000A0000100000304070000000000000000C40677
:1000B00011241FBECFEFD8E0DEBFCDBF11E0A0E01E
:1000C000B1E0ECE6F6E102C005900D92AC34B10768
:1000D000D9F722E0ACE4B1E001C01D92A63BB20723
:1000E000E1F710E0C8E5D0E004C02197FE010E94CE
:1000F000290BC735D107C9F70E94FD060C94340BB4
:100100000C940000382F20910C0290910B022132A8
:1001100008F049C08091E8018111FCCF42E0409392
:10012000E8013093E7013FEF3093E6011092E501DB
:100130002093E401ABEEB1E044EC51E0FA013E2F34
:10014000341B321718F43D913193F9CF1092C3014B
:100150002091C301990F922B9093C3019091C201FA
:10016000913061F41092C2019091C3019093BB0051
:100170009091BC0093FDF8CF95EC01C095EE909363
:10018000BC009091E8019230E1F39091E6019F3F2D
:1001900079F08091E601803241F08091E601803370
:1001A00031F084E005C081E003C082E001C083E05B
:1001B0001092EA0110920C021092E901089590E069
:1001C000FC01E656FF4F2491FC01EA57FF4F3491A2
:1001D000FC01EE58FF4FE491EE23B1F1222339F1F7
:1001E000233091F038F42130A9F0223001F584B5A4
:1001F0008F7D12C0273091F02830A1F02430B9F45F
:10020000809180008F7D03C0809180008F778093E4
:1002100080000DC084B58F7784BD09C08091B00087
:100220008F7703C08091B0008F7D8093B000F0E0A5
:10023000EE0FFF1FE859FF4FA591B4918FB7F894C7
:10024000EC913E2B3C938FBF0895CF92DF92EF92BB
:10025000FF920F931F93CF93DF936C017A018B0171
:10026000C0E0D0E0CE15DF0589F0D8016D918D0199
:10027000D601ED91FC910190F081E02DC601099528
:10028000892B11F47E0102C02196ECCFC701DF91CA
:10029000CF911F910F91FF90EF90DF90CF90089535
:1002A000FC01538D448D252F30E0842F90E0821B7C
:1002B000930B541710F0CF96089501970895FC0101
:1002C000918D828D981761F0828DDF01A80FB11D8D
:1002D0005D968C91928D9F5F9F73928F90E00895B1
:1002E0008FEF9FEF0895FC01918D828D981731F06B
:1002F000828DE80FF11D858D90E008958FEF9FEFBF
:100300000895FC01918D228D892F90E0805C9F4F94
:10031000821B91098F73992708958DE092E00E94C6
:10032000810121E0892B09F420E0822F0895FC014E
:10033000848DDF01A80FB11DA35ABF4F2C91848D6E
:1003400090E001968F739927848FA689B7892C93A3
:10035000A089B1898C9180648C93938D848D98133E
:1003600006C00288F389E02D80818F7D8083089507
:10037000EF92FF920F931F93CF93DF93EC0181E0F5
:10038000888F9B8D8C8D981305C0E889F9898081B1
:1003900085FD24C0F62E0B8D10E00F5F1F4F0F73ED
:1003A0001127E02E8C8DE8120CC00FB607FCFACF97
:1003B000E889F989808185FFF5CFCE010E949701F8
:1003C000F1CF8B8DFE01E80FF11DE35AFF4FF08254
:1003D0000B8FEA89FB898081806207C0EE89FF89E3
:1003E0006083E889F98980818064808381E090E07E
:1003F000DF91CF911F910F91FF90EF900895CF93D0
:10040000DF93EC01888D8823C9F0EA89FB8980811C
:1004100085FD05C0A889B9898C9186FD0FC00FB6EE
:1004200007FCF5CF808185FFF2CFA889B9898C912F
:1004300085FFEDCFCE010E949701E7CFDF91CF91ED
:10044000089580E090E0892B29F00E948D018111B0
:100450000C94000008953FB7F89480919801909112
:100460009901A0919A01B0919B0126B5A89B05C066
:100470002F3F19F00196A11DB11D3FBFBA2FA92F23
:10048000982F8827820F911DA11DB11DBC01CD01A0
:1004900042E0660F771F881F991F4A95D1F708958C
:1004A00085ED8093BC008091BC0084FDFCCF109250
:1004B000E801089540916E01262F30E0240F311D90
:1004C00021323105DCF42091E8012430C9F4FC012B
:1004D00080E090E0861758F430916E012191DC01A4
:1004E000A45BBE4FA30FB11D2C930196F3CF809157
:1004F0006E01680F60936E0180E0089581E00895B9
:1005000082E008951092E80181E08093E701109263
:10051000C20182E10E94DF0083E10E94DF00E9EB7B
:10052000F0E080818E7F808380818D7F808388E46E
:100530008093B80085E48093BC0008950895E0910D
:10054000A1018091A001E81730F4F0E0EE55FE4FD4
:10055000808190E008958FEF9FEF08959091A10121
:100560008091A001981750F4E92FF0E0EE55FE4F6E
:10057000208130E09F5F9093A10102C02FEF3FEFF9
:10058000C90108958091A00190E02091A101821BF2
:1005900091090895CF92DF92EF92FF920F931F93EC
:1005A000CF93DF937C01262F972F8A018091E90159
:1005B000882391F0C62FD72F6E01C40ED51ECC15FF
:1005C000DD0571F06991D701ED91FC910190F08109
:1005D000E02DC7010995F3CF642F822F0E945A02A4
:1005E000C801DF91CF911F910F91FF90EF90DF90A5
:1005F000CF900895CF93DF931F92CDB7DEB7698375
:100600002091E9012223D1F020910C02203240F008
:1006100021E030E0FC013383228380E090E015C0CC
:100620008091EA01E82FF0E0E551FE4F9981908337
:100630008F5F8093EA0180930C0205C061E0CE01D8
:1006400001960E945A0281E090E00F90DF91CF91D5
:100650000895CF93C62F91E09093E90190E690938F
:100660000B021092EA0110920C02682F8AEA92E0C3
:100670000E94FA026C2F8AEA92E00E94FA0281E05C
:10068000CF910C948200089580E090E008959091BD
:10069000E8019111FCCF813208F080E291E0909363
:1006A000E8019093E7012FEF2093E6011092E50116
:1006B000280F2093E4019093C3019091C301906CA3
:1006C0009093C3019091C201913061F41092C201E4
:1006D0009091C3019093BB009091BC0093FDF8CF23
:1006E00095EC01C095EE9093BC009091E80191309B
:1006F000E1F39091E501981710F48091E501A4ECE5
:10070000B1E022EA31E0F9019E2F921B981718F40C
:100710009D919193F9CF1092A1018093A00108952A
:1007200091E09093E90190E690930B021092EA0118
:1007300010920C02682F8AEA92E00E94FA0280E08E
:100740000E94820081E090E00E9447038AEA92E0E2
:100750000E94AE02089586E20E949003682F6D7F8A
:1007600086E20E94290386E20E949003682F62605D
:1007700086E20C942903009769F0FC0101900020A7
:10078000E9F73197AF01481B590BBC018DE092E0AE
:100790000C94250180E090E008958F929F92AF9293
:1007A000BF920F931F93CF93DF93CDB7DEB7A1977F
:1007B0000FB6F894DEBF0FBECDBF19A2423008F4C9
:1007C0004AE08E010F5D1F4F842E912CA12CB12C7D
:1007D000A50194010E94070BE62FB901CA0101503F
:1007E0001109EA3014F4E05D01C0E95CD801EC9332
:1007F000232B242B252B61F7C8010E94BB03A19654
:100800000FB6F894DEBF0FBECDBFDF91CF911F9121
:100810000F91BF90AF909F908F9008954F925F92ED
:100820006F927F928F929F92AF92BF92CF92DF9200
:10083000EF92FF926B017C01B42E9B01AC010E94F0
:10084000020B882319F084E291E027C026013701CA
:10085000E89477F82FEF3FEF4FE75FE7C301B2016E
:100860000E94020B81110DC02FEF3FEF4FE75FE7B2
:10087000C301B2010E94380918161CF488E291E005
:100880000CC02FEF3FEF4FE75FE4C701B6010E94B6
:10089000900A181684F48CE291E0FF90EF90DF90BC
:1008A000CF90BF90AF909F908F907F906F905F9010
:1008B0004F900C94BB032FEF3FEF4FE75FECC70166
:1008C000B6010E94380987FDE6CF20E030E0A9019B
:1008D000C701B6010E94380987FF11C0E0910D02DF
:1008E000F0910E020190F081E02D6DE28DE092E03A
:1008F00009954C01F7FAF094F7F8F09402C0812CB6
:10090000912CA12C60E070E080E09FE3AB1441F0FB
:1009100020E030E040E251E40E943D09A394F6CF8C
:100920009B01AC01C701B6010E94CC082B013C0120
:100930000E94AF096B017C010E94DE099B01AC01A2
:10094000C301B2010E94CB082B013C014AE0C70160
:10095000B6010E94CD037C01E80CF91CBB2069F0B4
:10096000E0910D02F0910E020190F081E02D6EE217
:100970008DE092E00995E80EF91EDB2CDD2021F1D7
:1009800020E030E040E251E4C301B2010E94950A48
:100990002B013C010E94AF094B01A12CB12C4AE074
:1009A000C501B4010E94CD03E80EF91EC501B401D2
:1009B0000E94DE099B01AC01C301B2010E94CB0879
:1009C0002B013C01DA94DACFC701FF90EF90DF9062
:1009D000CF90BF90AF909F908F907F906F905F90DF
:1009E0004F9008950E942F0B1F920F920FB60F92F7
:1009F00011242F933F934F935F936F937F938F9324
:100A00009F93AF93BF93EF93FF938DE092E00E948B
:100A10009701FF91EF91BF91AF919F918F917F913E
:100A20006F915F914F913F912F910F900FBE0F905B
:100A30001F9018951F920F920FB60F9211242F93AB
:100A40008F939F93EF93FF93E0911D02F0911E020D
:100A50008081E0912302F091240282FD12C09081F6
:100A6000809126028F5F8F7320912702821751F0A9
:100A7000E0912602F0E0E35FFD4F958F8093260220
:100A800001C08081FF91EF919F918F912F910F90E5
:100A90000FBE0F901F9018951F920F920FB60F92D6
:100AA00011242F933F938F939F93AF93BF93809184
:100AB000940190919501A0919601B0919701309188
:100AC000930123E0230F2D3720F40196A11DB11DC2
:100AD00005C026E8230F0296A11DB11D20939301A6
:100AE0008093940190939501A0939601B093970100
:100AF0008091980190919901A0919A01B0919B01E8
:100B00000196A11DB11D8093980190939901A09326
:100B10009A01B0939B01BF91AF919F918F913F91AB
:100B20002F910F900FBE0F901F9018951F920F924C
:100B30000FB60F9211242F933F934F935F936F93B0
:100B40007F938F939F93AF93BF93EF93FF93809186
:100B5000B900887F803609F49CC068F5883209F4B2
:100B60005BC090F4803109F454C038F4882309F450
:100B7000F6C0883009F44DC0F6C0883109F44CC085
:100B8000803209F45DC0EFC0803409F468C048F4D5
:100B9000803309F455C0883309F0E5C08093E6013D
:100BA000D8C0803509F44FC0883509F45DC0883459
:100BB00009F0D9C0D6C0883909F4C7C0A8F488376D
:100BC00009F467C038F4883609F463C0803709F443
:100BD00060C0C9C0883809F4B8C0803909F45FC062
:100BE000803809F0C0C05BC0803B09F486C038F48F
:100BF000803A09F466C0883A09F47FC0B4C0803CEA
:100C000009F4A7C0883C09F4A4C0883B09F48AC051
:100C1000AAC08091C30110C09091E5018091E401C8
:100C2000981770F5E091E50181E08E0F8093E50162
:100C3000F0E0EC53FE4F80818093BB0085EC86C0D2
:100C40008093E6018EC0E091E50181E08E0F8093F4
:100C5000E5018091BB00F0E0EC53FE4F8083909162
:100C6000E5018091E4016EC0E091E50181E08E0F25
:100C70008093E5018091BB00F0E0EC53FE4F808350
:100C80008091E70181116DC081E08093C20184EA07
:100C900061C083E08093E80110929201CFCF8091F0
:100CA0009201803208F051C0E091920181E08E0FF4
:100CB000809392018091BB00F0E0EE58FE4F80835C
:100CC000BDCF85EC8093BC001092E8018091920129
:100CD000803230F4E0919201F0E0EE58FE4F108245
:100CE0006091920170E0E0917001F091710182E7F2
:100CF00091E009951092920136C084E08093E8015A
:100D000010926F0110926E01E0916C01F0916D01F3
:100D1000099580916E01811105C081E080936E017B
:100D200010924C01E0916F0181E08E0F80936F0172
:100D3000F0E0E45BFE4F80818093BB0090916F01F7
:100D400080916E01981708F479CF85E88093BC00F4
:100D50000AC085EC8093BC001092E80104C0109298
:100D6000E6010E945002FF91EF91BF91AF919F91D8
:100D70008F917F916F915F914F913F912F910F9044
:100D80000FBE0F901F901895EDE0F2E013821282D3
:100D900088EE93E0A0E0B0E084839583A683B783D8
:100DA00024E031E03183208325EC30E0358724874F
:100DB00024EC30E03787268720EC30E0318B208B25
:100DC00021EC30E0338B228B22EC30E0358B248B0E
:100DD00026EC30E0378B268B118E128E138E148EFC
:100DE000EAEAF2E01382128284839583A683B783B2
:100DF00086E191E0918380830895CF93DF931F92E2
:100E0000CDB7DEB7789484B5826084BD84B5816047
:100E100084BD85B5826085BD85B5816085BD8091C5
:100E20006E00816080936E0010928100809181003D
:100E30008260809381008091810081608093810035
:100E4000809180008160809380008091B1008460F7
:100E50008093B1008091B00081608093B000809158
:100E60007A00846080937A0080917A008260809317
:100E70007A0080917A00816080937A0080917A0074
:100E8000806880937A001092C1001092A1011092A4
:100E9000A0011092EA0110920C020E948202E091DD
:100EA0001D02F0911E0282E08083E0911902F09110
:100EB0001A021082E0911B02F0911C028FEC8083D9
:100EC00010922502E0912102F091220286E08083B7
:100ED000E0911F02F0912002808180618083E09187
:100EE0001F02F0912002808188608083E0911F02C0
:100EF000F0912002808180688083E0911F02F09150
:100F0000200280818F7D80830E94820286E20E947F
:100F10009003682F6F7786E20E94290386E20E9481
:100F20009003682F686386E20E94290367E083E1EB
:100F30000E94290311E000E680E00E94900380E017
:100F40000E9490031093E90100930B021092EA01B2
:100F500010920C0261E08AEA92E00E94FA0280E0BC
:100F60000E94820083E090E00E944703833009F0F2
:100F700045C08AEA92E00E94AE02F82E8AEA92E028
:100F80000E94AE02D82E8AEA92E00E94AE02E82EBB
:100F90000E94AB038D2D90E0A0E0B0E0BA2FA92F06
:100FA000982F8827AF298E292E2D2073E22EF12C21
:100FB00064E0F594E7946A95E1F7BC01CD01E6E0C1
:100FC0009595879577956795EA95D1F70E94E00901
:100FD0004B015C01B70180E090E00E94DE0920E057
:100FE00030E040E85EE30E94950A9B01AC01C50138
:100FF000B4010E94CC086B017C0107C0C12C40ECFD
:10100000D42E49E7E42E44ECF42E80E391E00E94D4
:10101000BB0342E0C701B6010E940E0480E00E94BB
:10102000900339E5E32E32E0F32E80E00E94900336
:1010300081FD1BC021E0E21AF10829F460E070ECA8
:1010400089E794EC74C00E942B024B015C010E9462
:101050002B02DC01CB0188199909AA09BB09883E3A
:101060009340A105B10508F7F2CF1093E901009371
:101070000B021092EA0110920C0264E08AEA92E0FC
:101080000E94FA0280E00E94820082E090E00E94CA
:101090004703823099F68AEA92E00E94AE02F82E67
:1010A000E82E8AEA92E00E94AE02B82E89830E945E
:1010B000AB038981F7FE10C07F2C612C9301280FB0
:1010C000311DC901919581959109E92E382F307F05
:1010D000B32EAA24A39401C0A12C6E2D70E080E051
:1010E00090E00E94E0096B017C018B2D90E024E0F0
:1010F000959587952A95E1F7BC01990F880B990B77
:101100000E94E00920E030E040E85DE30E94950A9B
:101110009B01AC01C701B6010E94CC08AA2039F09E
:101120009B01AC0160E070E0CB010E94CB0820E0A5
:1011300030E040E151E46B017C01C701B6010E943F
:10114000950A20E030E040EA50E40E943D0920E0AA
:1011500030E040E052E40E94CC0860939C01709320
:101160009D0180939E0190939F018EE391E00E94E8
:10117000BB0360919C0170919D0180919E019091B3
:101180009F0142E00E940E0488E491E00E94BB03AC
:101190000E942102D1CE5058BB27AA270E94E30803
:1011A0000C94560A0E94480A38F00E944F0A20F018
:1011B00039F49F3F19F426F40C94450A0EF4E09597
:1011C000E7FB0C943F0AE92F0E94670A58F3BA170D
:1011D000620773078407950720F079F4A6F50C944D
:1011E000890A0EF4E0950B2EBA2FA02D0B01B90140
:1011F00090010C01CA01A0011124FF27591B99F08D
:10120000593F50F4503E68F11A16F040A22F232F98
:10121000342F4427585FF3CF469537952795A795E8
:10122000F0405395C9F77EF41F16BA0B620B730B8F
:10123000840BBAF09150A1F0FF0FBB1F661F771F00
:10124000881FC2F70EC0BA0F621F731F841F48F4B5
:10125000879577956795B795F7959E3F08F0B0CF3E
:101260009395880F08F09927EE0F97958795089525
:101270000E941B0A08F481E008950E9451090C9411
:10128000560A0E944F0A58F00E94480A40F029F47A
:101290005F3F29F00C943F0A51110C948A0A0C9478
:1012A000450A0E94670A68F39923B1F3552391F325
:1012B000951B550BBB27AA2762177307840738F0C5
:1012C0009F5F5F4F220F331F441FAA1FA9F335D022
:1012D0000E2E3AF0E0E832D091505040E695001CD6
:1012E000CAF72BD0FE2F29D0660F771F881FBB1F90
:1012F000261737074807AB07B0E809F0BB0B802D6E
:10130000BF01FF2793585F4F3AF09E3F510578F099
:101310000C943F0A0C948A0A5F3FE4F3983ED4F39E
:10132000869577956795B795F7959F5FC9F7880F6D
:10133000911D9695879597F90895E1E0660F771FBF
:10134000881FBB1F621773078407BA0720F0621B50
:10135000730B840BBA0BEE1F88F7E09508950E947B
:101360006F0A88F09F5798F0B92F9927B751B0F0BE
:10137000E1F0660F771F881F991F1AF0BA95C9F719
:1013800014C0B13091F00E94890AB1E008950C9424
:10139000890A672F782F8827B85F39F0B93FCCF3D7
:1013A000869577956795B395D9F73EF49095809596
:1013B000709561957F4F8F4F9F4F0895E89409C0B6
:1013C00097FB3EF490958095709561957F4F8F4F78
:1013D0009F4F9923A9F0F92F96E9BB279395F6958E
:1013E000879577956795B795F111F8CFFAF4BB0F0C
:1013F00011F460FF1BC06F5F7F4F8F4F9F4F16C070
:10140000882311F096E911C0772321F09EE8872FF9
:10141000762F05C0662371F096E8862F70E060E0B5
:101420002AF09A95660F771F881FDAF7880F96952E
:10143000879597F90895990F0008550FAA0BE0E8D2
:10144000FEEF16161706E807F907C0F01216130686
:10145000E407F50798F0621B730B840B950B39F4C6
:101460000A2661F0232B242B252B21F408950A262C
:1014700009F4A140A6958FEF811D811D089597F96C
:101480009F6780E870E060E008959FEF80EC08952A
:1014900000240A9416161706180609060895002453
:1014A0000A9412161306140605060895092E0394CD
:1014B000000C11F4882352F0BB0F40F4BF2B11F441
:1014C00060FF04C06F5F7F4F8F4F9F4F089557FDA0
:1014D0009058440F551F59F05F3F71F04795880FA2
:1014E00097FB991F61F09F3F79F087950895121639
:1014F00013061406551FF2CF4695F1DF08C01616E5
:1015000017061806991FF1CF869571056105089495
:101510000895E894BB2766277727CB0197F90895AC
:101520000E941B0A08F48FEF08950E94A80A0C94E9
:10153000560A0E94480A38F00E944F0A20F095236C
:1015400011F00C943F0A0C94450A11240C948A0A59
:101550000E94670A70F3959FC1F3950F50E0551FE5
:10156000629FF001729FBB27F00DB11D639FAA27F8
:10157000F00DB11DAA1F649F6627B00DA11D661F47
:10158000829F2227B00DA11D621F739FB00DA11D68
:10159000621F839FA00D611D221F749F3327A00D22
:1015A000611D231F849F600D211D822F762F6A2FBE
:1015B00011249F5750409AF0F1F088234AF0EE0F23
:1015C000FF1FBB1F661F771F881F91505040A9F750
:1015D0009E3F510580F00C943F0A0C948A0A5F3FAD
:1015E000E4F3983ED4F3869577956795B795F7958C
:1015F000E7959F5FC1F7FE2B880F911D9695879504
:1016000097F908950E941B0A880B990B0895A1E28F
:101610001A2EAA1BBB1BFD010DC0AA1FBB1FEE1F6C
:10162000FF1FA217B307E407F50720F0A21BB30BB7
:10163000E40BF50B661F771F881F991F1A9469F733
:1016400060957095809590959B01AC01BD01CF018F
:101650000895EE0FFF1F0590F491E02D099481E0AD
:0C16600090E0F8940C94340BF894FFCF49
:10166C0000000000B80125015001FF0181015F015C
:10167C00730100000000FA02CA0244039E02C20277
:10168C00AE029F026E616E00696E66006F76660038
:10169C005072657373757265285061293A00205435
:0C16AC00656D702866293A000D0A0000E8
:00000001FF
