:100000000C9453000C947B000C947B000C947B00AC
:100010000C947B000C947B000C947B000C947B0074
:100020000C947B000C947B000C947B000C947B0064
:100030000C947B000C947B000C947B000C947B0054
:100040000C9476020C947B000C9444020C941E02D7
:100050000C947B000C947B000C947B000C947B0034
:100060000C947B000C947B0000000000250028000D
:100070002B0000000000240027002A0004040404D0
:100080000404040402020202020203030303030342
:10009000010204081020408001020408102001021F
:1000A00004081020C00211241FBECFEFD8E0DEBF2D
:1000B000CDBF22E0A4E2B1E001C01D92A431B2079D
:1000C000E1F711E0A0E0B1E0E4EEF8E002C0059055
:1000D0000D92A432B107D9F710E0C3E5D0E004C017
:1000E0002197FE010E946504C235D107C9F70E941D
:1000F000FF020C9470040C940000EFE2F1E0A08980
:10010000B18982E08C93A485B5851C92A685B785BC
:100110008FEC8C93108EA489B58986E08C93A2898C
:10012000B3898C9180618C93A289B3898C9188600A
:100130008C93A289B3898C9180688C930288F3890F
:10014000E02D80818F7D80830895CF92DF92EF92A2
:10015000FF920F931F932FB7F894C0902B01D0906C
:100160002C01E0902D01F0902E012FBFDC01CB017E
:100170008C0D9D1DAE1DBF1D4FB7F89400912B0136
:1001800010912C0120912D0130912E014FBF0C15A3
:100190001D052E053F0528F080179107A207B3071C
:1001A00058F71F910F91FF90EF90DF90CF90089537
:1001B000CF92DF92EF92FF920F931F93CF93DF9333
:1001C0006C017A018B01C0E0D0E0CE15DF0589F02B
:1001D000D8016D918D01D601ED91FC910190F081D6
:1001E000E02DC6010995892B11F47E0102C02196EC
:1001F000ECCFC701DF91CF911F910F91FF90EF904E
:10020000DF90CF900895089580E090E00895FC017C
:10021000538D448D252F30E0842F90E0821B930B6B
:10022000541710F0CF96089501970895FC01918D11
:10023000828D981761F0828DDF01A80FB11D5D9648
:100240008C91928D9F5F9F73928F90E008958FEFB6
:100250009FEF0895FC01918D828D981731F0828D6A
:10026000E80FF11D858D90E008958FEF9FEF0895C1
:10027000FC01918D228D892F90E0805C9F4F821B25
:1002800091098F73992708958FE291E00E943801B8
:1002900021E0892B09F420E0822F0895FC01848D50
:1002A000DF01A80FB11DA35ABF4F2C91848D90E0A0
:1002B00001968F739927848FA689B7892C93A0897B
:1002C000B1898C9180648C93938D848D981306C032
:1002D0000288F389E02D80818F7D80830895EF92DD
:1002E000FF920F931F93CF93DF93EC0181E0888FF0
:1002F0009B8D8C8D981305C0E889F989808185FDD7
:1003000024C0F62E0B8D10E00F5F1F4F0F731127C7
:10031000E02E8C8DE8120CC00FB607FCFACFE889EE
:10032000F989808185FFF5CFCE010E944E01F1CF82
:100330008B8DFE01E80FF11DE35AFF4FF0820B8F0A
:10034000EA89FB898081806207C0EE89FF8960832A
:10035000E889F98980818064808381E090E0DF9181
:10036000CF911F910F91FF90EF900895CF93DF935E
:10037000EC01888D8823C9F0EA89FB89808185FD9D
:1003800005C0A889B9898C9186FD0FC00FB607FCFE
:10039000F5CF808185FFF2CFA889B9898C9185FF3F
:1003A000EDCFCE010E944E01E7CFDF91CF910895AE
:1003B00080E090E0892B29F00E94440181110C9487
:1003C000000008953FB7F89480912501909126018F
:1003D000A0912701B091280126B5A89B05C02F3F09
:1003E00019F00196A11DB11D3FBFBA2FA92F982F5B
:1003F0008827820F911DA11DB11DBC01CD0142E0D6
:10040000660F771F881F991F4A95D1F708950E949C
:100410006B046115710579F0FB0101900020E9F78B
:100420003197AF01461B570BDC01ED91FC91028027
:10043000F381E02D099480E090E008951F920F92DF
:100440000FB60F9211242F933F934F935F936F93A7
:100450007F938F939F93AF93BF93EF93FF938FE21D
:1004600091E00E944E01FF91EF91BF91AF919F915A
:100470008F917F916F915F914F913F912F910F904D
:100480000FBE0F901F9018951F920F920FB60F92EC
:1004900011242F938F939F93EF93FF93E0913F014C
:1004A000F09140018081E0914501F091460182FD8B
:1004B00012C09081809148018F5F8F732091490114
:1004C000821751F0E0914801F0E0E15DFE4F958F19
:1004D0008093480101C08081FF91EF919F918F919E
:1004E0002F910F900FBE0F901F9018951F920F9293
:1004F0000FB60F9211242F933F938F939F93AF9337
:10050000BF9380912B0190912C01A0912D01B0916E
:100510002E013091240123E0230F2D3720F4019682
:10052000A11DB11D05C026E8230F0296A11DB11D16
:100530002093240180932B0190932C01A0932D01F3
:10054000B0932E018091250190912601A091270161
:10055000B09128010196A11DB11D809325019093B2
:100560002601A0932701B0932801BF91AF919F91DD
:100570008F913F912F910F900FBE0F901F90189564
:10058000EFE2F1E01382128288EE93E0A0E0B0E0A7
:1005900084839583A683B78384E091E091838083ED
:1005A00085EC90E09587848784EC90E09787868738
:1005B00080EC90E0918B808B81EC90E0938B828B30
:1005C00082EC90E0958B848B86EC90E0978B868B09
:1005D000118E128E138E148EECECF1E016821782BF
:1005E000108611861286138614861586168617863F
:1005F000108A118A128A138A148A158A0895CF9351
:10060000DF93CDB7DEB7A1970FB6F894DEBF0FBE6C
:10061000CDBF789484B5826084BD84B5816084BD8B
:1006200085B5826085BD85B5816085BD80916E0090
:10063000816080936E0010928100809181008260C1
:1006400080938100809181008160809381008091FE
:1006500080008160809380008091B10084608093ED
:10066000B1008091B00081608093B00080917A00E9
:10067000846080937A0080917A00826080937A000F
:1006800080917A00816080937A0080917A008068FE
:1006900080937A001092C100109210021092110201
:1006A00010921202109213021092CE011092CF01FA
:1006B0001092D0011092D10168EB7BE080E090E0D5
:1006C0000E94A5008FE291E090930F0280930E02AA
:1006D0000E947D002FB7F89480912B0190912C01FE
:1006E000A0912D01B0912E012FBF8093CE01909348
:1006F000CF01A093D001B093D10162E171E080916C
:100700000E0290910F020E9409026AE070E080E000
:1007100090E00E94A50081E08093E201EEE9F0E024
:100720002491EAE8F0E084918823C9F090E0880FF2
:10073000991FFC01EE58FF4F45915491FC01E85977
:10074000FF4FA591B4919FB7F894FA01808120954D
:10075000822380838C91E22FE823EC939FBF0E9439
:100760007D0090E4392E2AE0C22ED12CE12CF12C10
:1007700030927C0080917A00806480937A0080912E
:100780007A0086FDFCCF809178002091790090E07E
:10079000922B90932A01809329012C01092E000CA1
:1007A0006608770897FF26C0E0912F01F09130018D
:1007B0000190F081E02D6DE28FE291E00995222712
:1007C0003327A901241935094609570919A28E01B1
:1007D0000F5D1F4FCA01B901A70196010E94430492
:1007E000605DF80162938F012115310541055105C6
:1007F00089F715C0A301920119A28E010F5D1F4F49
:10080000CA01B901A70196010E944304605DF80185
:1008100062938F01211531054105510589F7B80112
:100820008FE291E00E94090261E271E08FE291E0C3
:100830000E9409020E94E2014B015C018AEF482EEE
:10084000512C612C712C0E94E201DC01CB01881932
:100850009909AA09BB09883E9340A105B10558F042
:10086000F1E04F1A51086108710828EE820E23E06A
:10087000921EA11CB11C411451046104710419F7AA
:100880000E94D80175CFA1E21A2EAA1BBB1BFD0145
:100890000DC0AA1FBB1FEE1FFF1FA217B307E4075F
:1008A000F50720F0A21BB30BE40BF50B661F771FB7
:1008B000881F991F1A9469F7609570958095909597
:1008C0009B01AC01BD01CF010895EE0FFF1F059004
:1008D000F491E02D099481E090E0F8940C94700478
:0408E000F894FFCFBA
:1008E400000000006F01D8000701B60138011601AD
:1008F4002A01564D4450565F317C315F564D445069
:04090400560D0A0082
:107E0000112484B714BE81FFF0D085E080938100F7
:107E100082E08093C00088E18093C10086E0809377
:107E2000C20080E18093C4008EE0C9D0259A86E02C
:107E300020E33CEF91E0309385002093840096BBD3
:107E4000B09BFECF1D9AA8958150A9F7CC24DD24C4
:107E500088248394B5E0AB2EA1E19A2EF3E0BF2EE7
:107E6000A2D0813461F49FD0082FAFD0023811F036
:107E7000013811F484E001C083E08DD089C08234E0
:107E800011F484E103C0853419F485E0A6D080C0E4
:107E9000853579F488D0E82EFF2485D0082F10E0AE
:107EA000102F00270E291F29000F111F8ED06801E7
:107EB0006FC0863521F484E090D080E0DECF843638
:107EC00009F040C070D06FD0082F6DD080E0C81688
:107ED00080E7D80618F4F601B7BEE895C0E0D1E017
:107EE00062D089930C17E1F7F0E0CF16F0E7DF06D8
:107EF00018F0F601B7BEE89568D007B600FCFDCFD4
:107F0000A601A0E0B1E02C9130E011968C91119780
:107F100090E0982F8827822B932B1296FA010C0160
:107F200087BEE89511244E5F5F4FF1E0A038BF0790
:107F300051F7F601A7BEE89507B600FCFDCF97BE46
:107F4000E89526C08437B1F42ED02DD0F82E2BD052
:107F50003CD0F601EF2C8F010F5F1F4F84911BD097
:107F6000EA94F801C1F70894C11CD11CFA94CF0C13
:107F7000D11C0EC0853739F428D08EE10CD085E9AC
:107F80000AD08FE07ACF813511F488E018D01DD067
:107F900080E101D065CF982F8091C00085FFFCCF94
:107FA0009093C60008958091C00087FFFCCF809118
:107FB000C00084FD01C0A8958091C6000895E0E648
:107FC000F0E098E1908380830895EDDF803219F02E
:107FD00088E0F5DFFFCF84E1DECF1F93182FE3DFCA
:107FE0001150E9F7F2DF1F91089580E0E8DFEE27F6
:047FF000FF270994CA
:027FFE00040479
:0400000300007E007B
:00000001FF