:100000000C9469000C9491000C9491000C94490597
:100010000C9449050C9449050C9491000C949100A2
:100020000C9491000C9491000C9491000C9491000C
:100030000C9491000C9491000C9491000C949100FC
:100040000C94FF040C9491000C94CD040C94A70420
:100050000C9491000C9491000C9491000C949100DC
:100060000C9491000C9491006364696E6F707375C9
:1000700078585B0000000000240027002A000000E0
:100080000000250028002B000000000023002600AF
:10009000290004040404040404040202020202020B
:1000A000030303030303010204081020408001023C
:1000B00004081020010204081020000000080002BB
:1000C0000100000304070000000000000000C30559
:1000D000890711241FBECFEFD8E0DEBFCDBF22E0DD
:1000E000A0E7B1E001C01D92A63EB207E1F711E022
:1000F000A0E0B1E0E8EDFBE102C005900D92A03771
:10010000B107D9F710E0C8E6D0E004C02197FE019E
:100110000E940A08C736D107C9F70E940F060C943F
:10012000DF0D0C940000E3ECF1E0A089B18982E0DE
:100130008C93A485B5851C92A685B7858FEC8C938E
:10014000108EA489B58986E08C93A289B3898C919D
:1001500080618C93A289B3898C9188608C93A289E9
:10016000B3898C9180688C930288F389E02D80811B
:100170008F7D80830895CF92DF92EF92FF920F934D
:100180001F932FB7F894C090BB01D090BC01E090B2
:10019000BD01F090BE012FBFDC01CB018C0D9D1D78
:1001A000AE1DBF1D4FB7F8940091BB011091BC016B
:1001B0002091BD013091BE014FBF0C151D052E05CC
:1001C0003F0528F080179107A207B30758F71F9142
:1001D0000F91FF90EF90DF90CF900895CF92DF9234
:1001E000EF92FF920F931F93CF93DF936C017A01ED
:1001F0008B01C0E0D0E0CE15DF0589F0D8016D910C
:100200008D01D601ED91FC910190F081E02DC601A8
:100210000995892B11F47E0102C02196ECCFC7010C
:10022000DF91CF911F910F91FF90EF90DF90CF90D2
:100230000895FC01538D448D252F30E0842F90E0EC
:10024000821B930B541710F0CF96089501970895D1
:10025000FC01918D828D981761F0828DDF01A80FCE
:10026000B11D5D968C91928D9F5F9F73928F90E0F0
:1002700008958FEF9FEF0895FC01918D828D98175F
:1002800031F0828DE80FF11D858D90E008958FEF9C
:100290009FEF0895FC01918D228D892F90E0805C65
:1002A0009F4F821B91098F739927089583EC91E0EA
:1002B0000E944A0121E0892B09F420E0822F089551
:1002C000FC01848DDF01A80FB11DA35ABF4F2C91F3
:1002D000848D90E001968F739927848FA689B789C2
:1002E0002C93A089B1898C9180648C93938D848D9B
:1002F000981306C00288F389E02D80818F7D80836A
:100300000895EF92FF920F931F93CF93DF93EC0129
:1003100081E0888F9B8D8C8D981305C0E889F989C1
:10032000808185FD24C0F62E0B8D10E00F5F1F4FDE
:100330000F731127E02E8C8DE8120CC00FB607FC4E
:10034000FACFE889F989808185FFF5CFCE010E9437
:100350006001F1CF8B8DFE01E80FF11DE35AFF4FD5
:10036000F0820B8FEA89FB898081806207C0EE8969
:10037000FF896083E889F98980818064808381E0D6
:1003800090E0DF91CF911F910F91FF90EF90089532
:10039000CF93DF93EC01888D8823C9F0EA89FB892C
:1003A000808185FD05C0A889B9898C9186FD0FC023
:1003B0000FB607FCF5CF808185FFF2CFA889B989F8
:1003C0008C9185FFEDCFCE010E946001E7CFDF91D8
:1003D000CF91089580E090E0892B29F00E9456018A
:1003E00081110C9400000895833081F028F481304D
:1003F00099F08230A1F008958730A9F08830B9F0E3
:100400008430D1F4809180008F7D03C08091800082
:100410008F7780938000089584B58F7702C084B56C
:100420008F7D84BD08958091B0008F7703C0809147
:10043000B0008F7D8093B00008951F93CF93DF931A
:10044000282F30E0F901E654FF4F8491F901EA5575
:10045000FF4FD491F901EE56FF4FC491CC23C9F060
:10046000162F81110E94F401EC2FF0E0EE0FFF1F18
:10047000E258FF4FA591B4918FB7F894111105C0C0
:100480009C91ED2FE095E92302C0EC91ED2BEC93CC
:100490008FBFDF91CF911F910895CF93DF9390E0AD
:1004A000FC01EA55FF4F2491FC01EE56FF4F849169
:1004B000882361F190E0880F991FFC01EC58FF4FF1
:1004C000C591D491FC01E258FF4FA591B4916111FF
:1004D00009C09FB7F8948881209582238883EC9186
:1004E0002E230BC0623061F49FB7F8943881822FBD
:1004F000809583238883EC912E2B2C939FBF06C07D
:100500008FB7F894E8812E2B28838FBFDF91CF918E
:1005100008953FB7F8948091B1019091B201A091F4
:10052000B301B091B40126B5A89B05C02F3F19F0C7
:100530000196A11DB11D3FBFBA2FA92F982F882763
:10054000820F911DA11DB11DBC01CD0142E0660FBE
:10055000771F881F991F4A95D1F708958F929F9210
:10056000AF92BF92CF92DF92EF92FF926B017C012C
:100570000E9489024B015C01C114D104E104F10421
:10058000F1F00E948902DC01CB0188199909AA09BE
:10059000BB09883E9340A105B10570F321E0C21A62
:1005A000D108E108F10888EE880E83E0981EA11CAE
:1005B000B11CC114D104E104F10419F7DDCFFF909F
:1005C000EF90DF90CF90BF90AF909F908F90089565
:1005D0002091C1013091C2012817390771F490911F
:1005E000BF018091C001981741F0E091BF01F0E098
:1005F000E059FE4F808190E008958FEF9FEF0895BE
:1006000008951F93CF93DF93DC015C962D913C916D
:100610005D972115310539F481E090E013969C93A4
:100620008E9312973DC05196ED91FC915297509642
:100630009C915097892F80951FB75E964C915E973D
:1006400041FB772770F941FD6095F894408177234D
:1006500011F0492B01C048234083E9012197F1F7AC
:1006600048E0508160FF02C0592B01C058235083DD
:10067000E9012197F1F76695415099F7772321F029
:1006800090818923808303C08081982B90831FBF32
:100690005C968D919C915D970197F1F721E030E098
:1006A000C901DF91CF911F9108952091C10130912F
:1006B000C2012817390771F48091C0012091BF0150
:1006C00090E0805C9F4F821B910960E470E00E9483
:1006D000E207089580E090E008952091C1013091F3
:1006E000C20128173907B9F49091BF018091C00168
:1006F000981789F0E091BF01F0E0E059FE4F80814A
:100700002091BF0130E02F5F3F4F2F73332720939D
:10071000BF0190E008958FEF9FEF08950F931F930F
:10072000CF93DF93EC01162F042F1B821A8288EEE1
:1007300093E0A0E0B0E08C839D83AE83BF8384E030
:1007400091E0998388831F8A1E8A198E188E1B8ECA
:100750001A8E1D8E1C8E6E8D6E7F20FB61F96E8F42
:100760006695617081E06827842F0E941D0261E018
:10077000802F0E944D02402F50E0FA01EA55FF4FB2
:10078000E491E88BFA01EE56FF4FE491F0E0EE0FB2
:10079000FF1FE258FF4F859194919A8B898B60E0FF
:1007A000812F0E944D028E8D81FD04C061E0812F5A
:1007B0000E941D021C87612F70E0FB01EA55FF4F6C
:1007C000E491ED87FB01EE56FF4FE491F0E0EE0F70
:1007D000FF1FE857FF4F859194919F878E87DF9188
:1007E000CF911F910F910895E091C101F091C20145
:1007F000E817F90769F4A389B4899C9185898095E4
:1008000089238C931092C2011092C10181E0089556
:1008100080E00895CF93DF93FC01138E128E118E2A
:10082000108E178A168A8EE393E0958F848F8485C5
:10083000863108F04DC02DE831E0378B268B2CE354
:1008400033E0318F208F24E632E0338F228F909176
:100850006800883050F021E08E3008F420E081E01C
:1008600001C0880F2A95EAF701C084E0892B8093A4
:1008700068009485983038F09E3040F0963148F00A
:1008800020E030E008C02DE630E005C02BE630E087
:1008900002C02CE630E0348B238B983030F481E0BA
:1008A00001C0880F9A95EAF70EC0292F30E09E30DC
:1008B00018F42850310902C02E50310981E001C0DE
:1008C000880F2A95EAF7858B848D958D0197F1F72E
:1008D000828D938D892BE9F08091C1019091C201A5
:1008E0008E179F07B1F0EF01009711F00E94F403FB
:1008F0008E8D8E7F8E8F1092C0011092BF01D0938B
:10090000C201C093C101EB89FC8990818D89892B3B
:100910008083DF91CF910895089580E090E008955D
:100920006115710579F0FB0101900020E9F731971D
:10093000AF01461B570BDC01ED91FC910280F38166
:10094000E02D099480E090E008950E9410081F9225
:100950000F920FB60F9211242F933F934F935F93F3
:100960006F937F938F939F93AF93BF93EF93FF9377
:1009700083EC91E00E946001FF91EF91BF91AF91F4
:100980009F918F917F916F915F914F913F912F91A7
:100990000F900FBE0F901F9018951F920F920FB6D9
:1009A0000F9211242F938F939F93EF93FF93E091D6
:1009B000D301F091D4018081E091D901F091DA0165
:1009C00082FD12C090818091DC018F5F8F73209136
:1009D000DD01821751F0E091DC01F0E0ED53FE4FB4
:1009E000958F8093DC0101C08081FF91EF919F91F1
:1009F0008F912F910F900FBE0F901F9018951F92FF
:100A00000F920FB60F9211242F933F938F939F93C2
:100A1000AF93BF938091BB019091BC01A091BD01A8
:100A2000B091BE013091B00123E0230F2D3720F4A7
:100A30000196A11DB11D05C026E8230F0296A11D38
:100A4000B11D2093B0018093BB019093BC01A09392
:100A5000BD01B093BE018091B1019091B201A0910E
:100A6000B301B091B4010196A11DB11D8093B101F4
:100A70009093B201A093B301B093B401BF91AF9131
:100A80009F918F913F912F910F900FBE0F901F90CC
:100A900018951F920F920FB60F9211242F933F9328
:100AA0004F935F936F937F938F939F93AF93BF9376
:100AB000EF93FF93E091C101F091C201309709F4E7
:100AC00051C0968DA685B785858591FF04C09C9100
:100AD000892329F447C09C91892309F043C0A38945
:100AE000B4899C918589809589238C93868997897F
:100AF0000197F1F7608D718DA685B785558538E032
:100B000020E0CB010197F1F7822F90E09595879532
:100B1000282F4C91452309F02068315091F7868D9C
:100B200081FD20958091C00190E001968F739927F7
:100B30003091BF01381749F0A091C001B0E0A05931
:100B4000BE4F2C938093C00103C0868D8160868F39
:100B5000828D938D0197F1F7A389B4899C91858942
:100B6000892B8C93FF91EF91BF91AF919F918F91C2
:100B70007F916F915F914F913F912F910F900FBE99
:100B80000F901F901895E3ECF1E01382128288EE2B
:100B900093E0A0E0B0E084839583A683B78386E1E9
:100BA00091E09183808385EC90E09587848784EC45
:100BB00090E09787868780EC90E0918B808B81EC2A
:100BC00090E0938B828B82EC90E0958B848B86EC0B
:100BD00090E0978B868B118E128E138E148EE0E62A
:100BE000F2E016821782108611861286138614860A
:100BF000158616861786108A118A128A138A148A15
:100C0000158A20E04FEF66E087EC92E00E948E03A9
:100C100020E046E06FEF88EA92E00C948E03CF93D9
:100C2000DF93CDB7DEB7C055D1090FB6F894DEBF5C
:100C30000FBECDBF789484B5826084BD84B58160D9
:100C400084BD85B5826085BD85B5816085BD809197
:100C50006E00816080936E0010928100809181000F
:100C60008260809381008091810081608093810007
:100C7000809180008160809380008091B1008460C9
:100C80008093B1008091B00081608093B00080912A
:100C90007A00846080937A0080917A0082608093E9
:100CA0007A0080917A00816080937A0080917A0046
:100CB000806880937A001092C1001092A402109272
:100CC000A5021092A6021092A70210926202109240
:100CD0006302109264021092650268EB7BE080E090
:100CE00090E00E94BB0083EC91E09093A30280937C
:100CF000A2020E9493002FB7F8948091BB019091BB
:100D0000BC01A091BD01B091BE012FBF80936202D2
:100D100090936302A0936402B093650264E271E071
:100D20008091A2029091A3020E9490046AE070E078
:100D300080E090E00E94BB0081E08093760260ED4D
:100D400077E080E090E00E94AE020E94930068ECA1
:100D500070E080E090E00E94AE0261E086E00E94D8
:100D60004D0260E086E00E941D0260E086E00E9485
:100D70004D0200EC10E05CEAE52E50E0F52E68E94B
:100D8000C62E60E0D62EF8018491F701A490F601FA
:100D9000B490BB20C1F381110E94F4018B2D90E02F
:100DA000880F991F88579F4FFC01A591B4918C9192
:100DB000A82249F361E086E00E944D0260E086E0EF
:100DC0000E941D0260E570E080E090E00E94AE02AB
:100DD00060E086E00E944D0268EC70E080E090E008
:100DE0000E94AE0288EA92E00E940A0461E086E076
:100DF0000E944D0264E671E088EA92E00E9490044D
:100E000088EA92E00E94F40360E086E00E944D02CE
:100E100087EC92E00E940A048E010F5C1F4F4E0186
:100E20009AE3890E911C85EBA82E81E0B82E97EBF2
:100E3000692E91E0792E29EB422E21E0522E36E3E5
:100E4000232E31E0332EDE0111966D0187EC92E006
:100E50000E945503181619060CF058C087EC92E052
:100E60000E946D0389AB843209F050C0780187EC91
:100E700092E00E945503892BD1F387EC92E00E9407
:100E80006D03D7018D937D01843209F43FC0A8150D
:100E9000B90569F7BF92AF927F926F925F924F92BE
:100EA0003F922F921F930F930E9438088091B601B2
:100EB0008F938091B5018F938091B8018F9380912A
:100EC000B7018F938091BA018F938091B9018F936D
:100ED000A0E4B1E0BF93AF93DF92CF920E941508D8
:100EE000B60183EC91E00E94900463E371E083EC2F
:100EF00091E00E9490046AE070E080E090E00E943F
:100F0000AE020FB6F894DEBF0FBECDBF0E94EA015D
:100F10009DCFCF93DF93C4E0D1E0D093A902C093DB
:100F2000A80288EA92E00E94F403D093C802C0931A
:100F3000C70287EC92E0DF91CF910C94F4039111FA
:100F40000C94A807803219F089508550C8F708958D
:100F50009927882708952F923F924F925F926F9220
:100F60007F928F929F92AF92BF92CF92DF92EF9239
:100F7000FF920F931F93CF93DF93CDB7DEB7CA1BBA
:100F8000DB0B0FB6F894DEBF0FBECDBF09942A88E5
:100F9000398848885F846E847D848C849B84AA848D
:100FA000B984C884DF80EE80FD800C811B81AA811A
:100FB000B981CE0FD11D0FB6F894DEBF0FBECDBFE5
:100FC000ED01089597FB072E16F4009407D077FDE6
:100FD00009D00E94F60707FC05D03EF49095819554
:100FE0009F4F0895709561957F4F0895AA1BBB1B75
:100FF00051E107C0AA1FBB1FA617B70710F0A61B19
:10100000B70B881F991F5A95A9F780959095BC0139
:10101000CD010895EE0FFF1F0590F491E02D099486
:1010200081E090E0F8940C94DF0DAEE0B0E0EBE1ED
:10103000F8E00C94B9070D891E8986E08C831A8329
:1010400009838FEF9FE79E838D83AE01475E5F4FDD
:101050006F89788DCE0101960E9451082F813885C5
:10106000F801E20FF31F10822E96E4E00C94D507EE
:10107000AEE0B0E0EEE3F8E00C94BB0785E08C83D3
:101080008B899C899A838983AE01495E5F4F6D8904
:101090007E89CE0101960E94A30B2E96E2E00C946D
:1010A000D707ACE0B0E0E7E5F8E00C94AB077C01D3
:1010B0006B018A01FC0117821682838181FFBDC109
:1010C000CE0101964C01F7019381F60193FD8591C4
:1010D00093FF81916F01882309F4ABC1853239F404
:1010E00093FD859193FF81916F01853229F4B701BA
:1010F00090E00E94300DE7CF512C312C20E02032BF
:10110000A0F48B3269F030F4803259F0833269F404
:1011100020612CC08D3239F0803339F4216026C033
:101120002260246023C0286021C027FD27C030ED45
:10113000380F3A3078F426FF06C0FAE05F9E300D93
:101140001124532E13C08AE0389E300D1124332E03
:1011500020620CC08E3221F426FD6BC1206406C0D3
:101160008C3611F4206802C0883641F4F60193FDF4
:10117000859193FF81916F018111C1CF982F9F7D40
:101180009554933028F40C5F1F4FFFE3F9830DC093
:10119000833631F0833771F0833509F05BC022C0AC
:1011A000F801808189830E5F1F4F44244394512CA2
:1011B000540115C03801F2E06F0E711CF801A080D7
:1011C000B18026FF03C0652D70E002C06FEF7FEF96
:1011D000C5012C870E94E70C2C0183012C852F77F9
:1011E000222E17C03801F2E06F0E711CF801A080AA
:1011F000B18026FF03C0652D70E002C06FEF7FEF66
:10120000C5012C870E94DC0C2C012C852068222E25
:10121000830123FC1BC0832D90E048165906B0F4CF
:10122000B70180E290E00E94300D3A94F4CFF501CE
:1012300027FC859127FE81915F01B70190E00E9414
:10124000300D31103A94F1E04F1A51084114510415
:1012500071F7E5C0843611F0893639F5F80127FFBA
:1012600007C060817181828193810C5F1F4F08C02C
:1012700060817181072E000C880B990B0E5F1F4F48
:101280002F76722E97FF09C0909580957095619585
:101290007F4F8F4F9F4F2068722E2AE030E0A401CD
:1012A0000E94810DA82EA81844C0853729F42F7EEE
:1012B000B22E2AE030E025C0F22FF97FBF2E8F3604
:1012C000C1F018F4883579F0B4C0803719F0883748
:1012D00021F0AFC02F2F2061B22EB4FE0DC08B2D98
:1012E0008460B82E09C024FF0AC09F2F9660B92ED3
:1012F00006C028E030E005C020E130E002C020E177
:1013000032E0F801B7FE07C060817181828193816C
:101310000C5F1F4F06C06081718180E090E00E5F1E
:101320001F4FA4010E94810DA82EA818FB2DFF7746
:101330007F2E76FE0BC0372D3E7FA51450F474FE31
:101340000AC072FC08C0372D3E7E05C0BA2C372D6E
:1013500003C0BA2C01C0B52C34FF0DC0FE01EA0D4C
:10136000F11D8081803311F4397E09C032FF06C03F
:10137000B394B39404C0832F867809F0B39433FDFB
:1013800013C030FF06C05A2CB31418F4530C5B186A
:10139000B32CB31468F4B70180E290E03C870E945C
:1013A000300DB3943C85F5CFB31410F43B1801C055
:1013B000312C34FF12C0B70180E390E03C870E94DB
:1013C000300D3C8532FF17C031FD03C088E790E047
:1013D00002C088E590E0B7010CC0832F867859F0F1
:1013E00031FF02C08BE201C080E237FD8DE2B70120
:1013F00090E00E94300DA51438F4B70180E390E02E
:101400000E94300D5A94F7CFAA94F401EA0DF11D11
:101410008081B70190E00E94300DA110F5CF3320FC
:1014200009F451CEB70180E290E00E94300D3A9469
:10143000F6CFF7018681978102C08FEF9FEF2C9640
:10144000E2E10C94C70720FD09C0FC0123FD05C0A3
:1014500022FF02C07383628351834083089544FD59
:1014600010C046FD10C0DB01FC01AA0FBB1FEE1F20
:10147000FF1F1094D1F76A0F7B1F8E1F9F1F31E053
:1014800003C033E001C034E0660F771F881F991F47
:101490003150D1F7620F711D811D911D08950F9379
:1014A0001F93CF93DF938C01C8010E94F20CEC01D3
:1014B00097FD08C00E949F07892BB1F7B801CE01A4
:1014C0000E94680DCE01DF91CF911F910F91089579
:1014D000A1E0B0E0EEE6FAE00C94B1078C01C62E74
:1014E0007A0129830E94F20CAC01552729814B32E5
:1014F000510521F04D32510569F42068CA94C1109C
:1015000002C080E076C0C80129830E94F20C2981C4
:1015100097FDF7CF322F3D7FD32E322F307349F511
:10152000803339F5BB24BA94BC0C09F44EC0C80111
:1015300029830E94F20C298197FD47C0382F3F7DF7
:10154000383569F48D2D8264D82ECA94CA94CC2083
:10155000E1F1C8010E94F20C97FF0BC036C026FFD4
:1015600004C02D2D2260D22E03C03D2D3261D32E1A
:10157000CB2C812C912C540120ED280F283080F0A9
:10158000D4FE04C0B8010E94680D1CC02A3040F08F
:10159000D6FEF8CF2F7D3FEE320F363098F727502A
:1015A0004D2DC501B4010E942F0A4B015C018D2D08
:1015B0008260D82ECA94CC2059F0C8010E94F20C47
:1015C00097FFDACFD1FC04C09CCF812C912C540121
:1015D000D7FE08C0B094A09490948094811C911C74
:1015E000A11CB11C2D2DB501A401C7010E94230A25
:1015F00081E02196ECE00C94CD07A1E2B0E0E3E0BD
:10160000FBE00C94AF075C017A01CE0101966C01FE
:1016100080E2F60111928A95E9F7F501838040E0B6
:1016200050E0912C712C70E0A1E0B0E0F90183FC56
:10163000859183FE81918F01982F9F01811103C0B5
:1016400080E090E07CC08E3519F44115510549F1D8
:10165000E72FF0E0E417F5073CF48D3559F18D32B2
:1016600019F4772001F103C0711001C0982E892F61
:101670008695869586958601080F111D892F87709E
:101680003D0101C0660C8A95EAF7F8018081862940
:101690008083991559F0991510F49F5FE8CF915008
:1016A000E6CF71E004C07724739401C0712C4F5FC2
:1016B0005F4FBCCF772019F08E8180628E837111CD
:1016C00003C09924939416C0F6019E012F5D3F4FED
:1016D000808180958193E217F307D1F7F2CFE1146F
:1016E000F10429F0F7018083C70101967C01615064
:1016F000912CF9F0C50169A30E94F20C69A197FD34
:1017000016C0282F269526952695F601E20FF11D85
:10171000208130E0AC014770552702C035952795F0
:101720004A95E2F720FDDBCFB5010E94680D9110CC
:1017300087CFE114F10411F0F7011082C801A196DE
:10174000EEE00C94CB074F925F927F928F929F9224
:10175000AF92BF92CF92DF92EF92FF920F931F93BF
:10176000CF93DF931F92CDB7DEB76C012B015A01E7
:10177000FC0117821682712CF601F380F201F3FC52
:101780008591F3FE8191382F2F01882309F4F3C04E
:1017900090E039830E949F073981892B21F0C6018F
:1017A0000E944F0AE9CF353241F4F201F3FC359142
:1017B000F3FE31912F01353269F4C60139830E945D
:1017C000F20C398197FDD5C03817B1F2B6010E94ED
:1017D000680DD1C03A3239F4F3FC3591F3FE319102
:1017E0002F0151E001C050E0420110E020ED230F35
:1017F0002A3090F45260612F70E080E090E040E287
:1018000059830E942F0A162FF401F3FC3591F3FE41
:1018100031914F015981EACF052F232F240151FF28
:1018200003C0111102C0A7C01FEF383619F03C36B3
:1018300059F011C0F401F3FC2591F3FE21912F0121
:10184000283649F4052F08600460F201F3FC259165
:10185000F3FE21912F01222309F48DC0622F70E045
:1018600088E690E029830E94D10C2981892B09F414
:1018700082C000FD07C0F501E080F180C50102963D
:101880005C0102C0E12CF12C2E3651F4F6014681A8
:10189000578160E070E0202FC7010E94230A6CCFBF
:1018A000233691F401FF11E0C6010E94F20C97FD6E
:1018B00060C0E114F10429F0F7018083C7010196AB
:1018C0007C01115089F751C02B3559F49201A701C1
:1018D000612FC6010E94FD0A2C01892B09F045C029
:1018E0003FC0C60129830E944F0A298197FD41C04C
:1018F0002F3659F128F4243631F1293649F127C021
:10190000233769F02537F9F022C0E114F10429F0FA
:10191000F7018082C70101967C01115071F0C60168
:101920000E94F20C4C0197FD08C00E949F07892B72
:1019300061F3B601C4010E94680DE114F104A9F03D
:10194000F701108212C0006203C0006101C0006490
:10195000202FA701612FC6010E94680A811105C0CE
:10196000F6018381807329F406C000FD05CF7394CE
:1019700003CF772019F0872D90E002C08FEF9FEF03
:101980000F90DF91CF911F910F91FF90EF90DF901B
:10199000CF90BF90AF909F908F907F905F904F902F
:1019A0000895FC010590061621F00020D9F7C0012A
:1019B00008953197CF010895FC0105906150704062
:1019C0000110D8F7809590958E0F9F1F0895FC0108
:1019D0006150704001900110D8F7809590958E0F5E
:1019E0009F1F0895CF93DF93EC012B8120FF33C01D
:1019F00026FF0AC02F7B2B838E819F8101969F83B8
:101A00008E838A8190E029C022FF0FC0E881F9818E
:101A10008081082E000C990B009719F420622B830B
:101A20001AC03196F983E8830EC0EA85FB850995D3
:101A300097FF09C02B81019611F080E201C080E17F
:101A4000822B8B8308C02E813F812F5F3F4F3F83C6
:101A50002E83992702C08FEF9FEFDF91CF910895DA
:101A60000F931F93CF93DF93FB01238121FD03C0CD
:101A70008FEF9FEF28C022FF16C046815781248137
:101A800035814217530744F4A081B1819D012F5F36
:101A90003F4F318320838C93268137812F5F3F4FC7
:101AA0003783268310C0EB01092F182F0084F1859E
:101AB000E02D0995892BE1F68E819F8101969F8308
:101AC0008E83812F902FDF91CF911F910F910895D9
:101AD000FB01238120FF12C026FD10C08F3F3FEF86
:101AE000930761F082832F7D2064238326813781D1
:101AF0002150310937832683992708958FEF9FEF6F
:101B00000895FA01AA27283051F1203181F1E89493
:101B10006F936E7F6E5F7F4F8F4F9F4FAF4FB1E0E0
:101B20003ED0B4E03CD0670F781F891F9A1FA11DDB
:101B3000680F791F8A1F911DA11D6A0F711D811DDC
:101B4000911DA11D20D009F468943F912AE0269FA1
:101B500011243019305D3193DEF6CF010895462F00
:101B60004770405D4193B3E00FD0C9F7F6CF462FE1
:101B70004F70405D4A3318F0495D31FD405241934A
:101B800002D0A9F7EACFB4E0A69597958795779507
:101B90006795BA95C9F700976105710508959B018E
:101BA000AC010A2E06945795479537952795BA9517
:101BB000C9F7620F731F841F951FA01D089510E0C1
:101BC000C8E6D0E004C0FE010E940A082196C9368A
:081BD000D107C9F7F894FFCF1B
:101BD800000000000103EE008D04000355036D03AF
:101BE800E802000000008101EE001901C8014A0165
:101BF80028013C01564D4450565F317C315F564DAB
:101C08004450560D0A00253378253378253378005B
:101C180072203D2025342E34642020202067203D6A
:101C28002025342E34642020202062203D202534B5
:101C38002E3464003D2830302024206D29210000F6
:107E0000112484B714BE81FFF0D085E080938100F7
:107E100082E08093C00088E18093C10086E0809377
:107E2000C20080E18093C4008EE0C9D0259A86E02C
:107E300020E33CEF91E0309385002093840096BBD3
:107E4000B09BFECF1D9AA8958150A9F7CC24DD24C4
:107E500088248394B5E0AB2EA1E19A2EF3E0BF2EE7
:107E6000A2D0813461F49FD0082FAFD0023811F036
:107E7000013811F484E001C083E08DD089C08234E0
:107E800011F484E103C0853419F485E0A6D080C0E4
:107E9000853579F488D0E82EFF2485D0082F10E0AE
:107EA000102F00270E291F29000F111F8ED06801E7
:107EB0006FC0863521F484E090D080E0DECF843638
:107EC00009F040C070D06FD0082F6DD080E0C81688
:107ED00080E7D80618F4F601B7BEE895C0E0D1E017
:107EE00062D089930C17E1F7F0E0CF16F0E7DF06D8
:107EF00018F0F601B7BEE89568D007B600FCFDCFD4
:107F0000A601A0E0B1E02C9130E011968C91119780
:107F100090E0982F8827822B932B1296FA010C0160
:107F200087BEE89511244E5F5F4FF1E0A038BF0790
:107F300051F7F601A7BEE89507B600FCFDCF97BE46
:107F4000E89526C08437B1F42ED02DD0F82E2BD052
:107F50003CD0F601EF2C8F010F5F1F4F84911BD097
:107F6000EA94F801C1F70894C11CD11CFA94CF0C13
:107F7000D11C0EC0853739F428D08EE10CD085E9AC
:107F80000AD08FE07ACF813511F488E018D01DD067
:107F900080E101D065CF982F8091C00085FFFCCF94
:107FA0009093C60008958091C00087FFFCCF809118
:107FB000C00084FD01C0A8958091C6000895E0E648
:107FC000F0E098E1908380830895EDDF803219F02E
:107FD00088E0F5DFFFCF84E1DECF1F93182FE3DFCA
:107FE0001150E9F7F2DF1F91089580E0E8DFEE27F6
:047FF000FF270994CA
:027FFE00040479
:0400000300007E007B
:00000001FF