:100000000C945D000C9485000C9485000C94850084
:100010000C9485000C9485000C9485000C9485004C
:100020000C9485000C9485000C9485000C94DC02E3
:100030000C9485000C9485000C9485000C9485002C
:100040000C9492020C9485000C9460020C943A0279
:100050000C9485000C9485000C9485000C9485000C
:100060000C9485000C94850000000008000201003B
:100070000003040700000000000000000000000072
:10008000250028002B0000000000240027002A0083
:10009000040404040404040402020202020203032E
:1000A0000303030301020408102040800102040836
:1000B00010200102040810209D0311241FBECFEF61
:1000C000D8E0DEBFCDBF11E0A0E0B1E0EEEBFFE095
:1000D00002C005900D92A432B107D9F722E0A4E244
:1000E000B1E001C01D92AF33B207E1F710E0CDE5FA
:1000F000D0E004C02197FE010E94D207CC35D10781
:10010000C9F70E941B040C94DD070C940000E2E385
:10011000F1E0A089B18982E08C93A485B5851C9219
:10012000A685B7858FEC8C93108EA489B58986E05F
:100130008C93A289B3898C9180618C93A289B389B5
:100140008C9188608C93A289B3898C9180688C9300
:100150000288F389E02D80818F7D80830895CF927E
:10016000DF92EF92FF920F931F932FB7F894C090F6
:100170002E01D0902F01E0903001F09031012FBF7F
:10018000DC01CB018C0D9D1DAE1DBF1D4FB7F8943A
:1001900000912E0110912F012091300130913101F9
:1001A0004FBF0C151D052E053F0528F08017910740
:1001B000A207B30758F71F910F91FF90EF90DF90C0
:1001C000CF900895CF92DF92EF92FF920F931F93FB
:1001D000CF93DF936C017A018B01C0E0D0E0CE15A4
:1001E000DF0589F0D8016D918D01D601ED91FC916B
:1001F0000190F081E02DC6010995892B11F47E0153
:1002000002C02196ECCFC701DF91CF911F910F91D2
:10021000FF90EF90DF90CF900895089580E090E0F8
:100220000895FC01538D448D252F30E0842F90E0FC
:10023000821B930B541710F0CF96089501970895E1
:10024000FC01918D828D981761F0828DDF01A80FDE
:10025000B11D5D968C91928D9F5F9F73928F90E000
:1002600008958FEF9FEF0895FC01918D828D98176F
:1002700031F0828DE80FF11D858D90E008958FEFAC
:100280009FEF0895FC01918D228D892F90E0805C75
:100290009F4F821B91098F739927089582E391E004
:1002A0000E94420121E0892B09F420E0822F089569
:1002B000FC01848DDF01A80FB11DA35ABF4F2C9103
:1002C000848D90E001968F739927848FA689B789D2
:1002D0002C93A089B1898C9180648C93938D848DAB
:1002E000981306C00288F389E02D80818F7D80837A
:1002F0000895EF92FF920F931F93CF93DF93EC013A
:1003000081E0888F9B8D8C8D981305C0E889F989D1
:10031000808185FD24C0F62E0B8D10E00F5F1F4FEE
:100320000F731127E02E8C8DE8120CC00FB607FC5E
:10033000FACFE889F989808185FFF5CFCE010E9447
:100340005801F1CF8B8DFE01E80FF11DE35AFF4FED
:10035000F0820B8FEA89FB898081806207C0EE8979
:10036000FF896083E889F98980818064808381E0E6
:1003700090E0DF91CF911F910F91FF90EF90089542
:10038000CF93DF93EC01888D8823C9F0EA89FB893C
:10039000808185FD05C0A889B9898C9186FD0FC033
:1003A0000FB607FCF5CF808185FFF2CFA889B98908
:1003B0008C9185FFEDCFCE010E945801E7CFDF91F0
:1003C000CF91089580E090E0892B29F00E944E01A2
:1003D00081110C940000089590E0FC01E859FF4F52
:1003E0003491FC01EC55FF4F2491FC01E057FF4F85
:1003F000E491EE2309F43BC0332339F1333091F01B
:1004000038F43130A9F0323001F584B58F7D12C057
:10041000373091F03830A1F03430B9F48091800059
:100420008F7D03C0809180008F77809380000DC006
:1004300084B58F7784BD09C08091B0008F7703C0E9
:100440008091B0008F7D8093B000F0E0EE0FFF1F31
:10045000E458FF4FA591B4918FB7F894EC916111D6
:1004600003C020952E2301C02E2B2C938FBF0895FF
:100470000E94D8071F920F920FB60F9211242F934C
:100480003F934F935F936F937F938F939F93AF931C
:10049000BF93EF93FF9382E391E00E945801FF9195
:1004A000EF91BF91AF919F918F917F916F915F91EC
:1004B0004F913F912F910F900FBE0F901F90189565
:1004C0001F920F920FB60F9211242F938F939F9329
:1004D000EF93FF93E0914201F09143018081E0911D
:1004E0004801F091490182FD12C0908180914B0139
:1004F0008F5F8F7320914C01821751F0E0914B0177
:10050000F0E0EE5CFE4F958F80934B0101C080813F
:10051000FF91EF919F918F912F910F900FBE0F90B0
:100520001F9018951F920F920FB60F9211242F93C0
:100530003F938F939F93AF93BF9380912E019091A0
:100540002F01A0913001B09131013091290123E0B8
:10055000230F2D3720F40196A11DB11D05C026E8FB
:10056000230F0296A11DB11D2093290180932E0116
:1005700090932F01A0933001B09331018091250118
:1005800090912601A0912701B09128010196A11D0B
:10059000B11D8093250190932601A0932701B0936C
:1005A0002801BF91AF919F918F913F912F910F9013
:1005B0000FBE0F901F9018951F920F920FB60F92BB
:1005C00011242F933F934F935F936F937F938F9358
:1005D0009F93AF93BF93EF93FF938091240187FF85
:1005E00005C010928500109284001BC02091240148
:1005F000022E000C330B80913B0290E02817390744
:1006000084F480912401082E000C990BFC01EE0F5C
:10061000FF1F8E0F9F1FFC01E95EFD4F808186FD4D
:1006200015C0809124018F5F8093240120912401C3
:10063000022E000C330B80913B0290E02817390703
:10064000C4F4809124018C3064F113C080912401A2
:10065000082E000C990BFC01EE0FFF1F8E0F9F1F41
:10066000FC01E95EFD4F808160E08F730E94EC0128
:10067000D8CF8091840090918500049680349C4965
:1006800018F480E49CE905C0809184009091850075
:10069000049690938900809388008FEF80932401C3
:1006A0003BC0209184003091850080912401082E68
:1006B000000C990BFC01EE0FFF1F8E0F9F1FFC011A
:1006C000E95EFD4F81819281820F931F9093890093
:1006D0008093880080912401082E000C990BFC0166
:1006E000EE0FFF1F8E0F9F1FFC01E95EFD4F808103
:1006F00086FF12C080912401082E000C990BFC018A
:10070000EE0FFF1F8E0F9F1FFC01E95EFD4F8081E2
:1007100061E08F730E94EC01FF91EF91BF91AF9167
:100720009F918F917F916F915F914F913F912F9109
:100730000F900FBE0F901F901895109235011092D8
:10074000340188EE93E0A0E0B0E08093360190930E
:100750003701A0933801B093390184E091E0909380
:1007600033018093320185EC90E090933F018093B8
:100770003E0184EC90E0909341018093400180EC35
:1007800090E0909343018093420181EC90E090933C
:1007900045018093440182EC90E09093470180935F
:1007A000460186EC90E090934901809348011092B5
:1007B0004B0110924C0110924D0110924E0110927B
:1007C000D5011092D6011092D7011092D801109243
:1007D000D9011092DA011092DB011092DC01109223
:1007E000DD011092DE011092DF011092E001109203
:1007F000E1011092E2011092E3011092E401809174
:100800003B028C30A0F491E0980F90933B028093D0
:100810003C0290E0FC01EE0FFF1F8E0F9F1FFC01BA
:10082000E95EFD4F88EB9BE09283818308958FEF13
:1008300080933C020895789484B5826084BD84B529
:10084000816084BD85B5826085BD85B5816085BDCB
:1008500080916E00816080936E0010928100809183
:10086000810082608093810080918100816080930B
:100870008100809180008160809380008091B10030
:1008800084608093B1008091B00081608093B0005B
:1008900080917A00846080937A0080917A008260EF
:1008A00080937A0080917A00816080937A008091B1
:1008B0007A00806880937A001092C100109213022F
:1008C0001092140210921502109216021092D10189
:1008D0001092D2011092D3011092D40168EB7BE008
:1008E00080E090E00E94AF0082E391E090931202DA
:1008F000809311020E9487002FB7F89480912E01F7
:1009000090912F01A0913001B09131012FBF8093C0
:10091000D1019093D201A093D301B093D4018091DF
:10092000110290911202DC01ED91FC910280F381A1
:10093000E02D41E150E062E171E009956AE070E08C
:1009400080E090E00E94AF0081E08093E5010E948A
:10095000870080913C028C3008F068C0EDEAF0E03E
:100960002491E9E9F0E08491882399F090E0880FE0
:10097000991FFC01EA57FF4FA591B491FC01E4587F
:10098000FF4F859194918FB7F894EC91E22BEC9303
:100990008FBF80913C02E82FF0E09F01220F331FB0
:1009A000E20FF31FE95EFD4F9081907C9960908388
:1009B00010923D0210923E026CE00E94C607BCE01D
:1009C0008B9FB001112440E050E09A01260F371FA1
:1009D000F901EE0FFF1F2E0F3F1FF901E95EFD4FDA
:1009E000908196FD16C04F5F5F4F4C30510569F7FF
:1009F00081110FC01092800082E0809381001092DC
:100A0000850010928400B19A80916F00826080937B
:100A10006F00E0913C02F0E0CF01880F991FE80FD2
:100A2000F91FE95EFD4F808180648083B0E4BB2EB6
:100A3000C8E8D0E008E512E084EBC82ED12CE12C08
:100A4000F12CB0927C0080917A00806480937A00CF
:100A500080917A0086FDFCCF6091780080917900CA
:100A600070E0782B70932D0160932C01072E000C01
:100A7000880B990B0E94C7052AEC36E24BE15EE336
:100A80000E94020620E030E040E751E40E94240783
:100A90000E949007FB0170932B0160932A01E032C2
:100AA00082E0F807DCF5F7FD06C0E53BF1052CF028
:100AB000E4EBF0E002C0E0E0F0E080913D022E01C6
:100AC000481A510887FD5394D201AA0FBB1FAA0FE1
:100AD000BB1F2D01BB0F6608770880913E0298016D
:100AE000281B310987FD3395220F331F220F331F37
:100AF000C901330FAA0BBB0B9C01AD0124193509A9
:100B000046095709DF010E940C07A70196010E94C0
:100B1000E206420E531E641E751EF20180913C02D5
:100B20008C3080F590913D02AE01491B510997FD33
:100B30005395440F551F440F551FE417F50784F0D4
:100B400090913E029801291B310997FD3395220FA0
:100B5000331F220F331FAF012E173F070CF4A901DB
:100B600042505109440F551F2FB7F89490E0FC01F3
:100B7000EE0FFF1F8E0F9F1FFC01E95EFD4F52839A
:100B800041832FBF0E94E2015CCFE89409C097FB2C
:100B90003EF490958095709561957F4F8F4F9F4F54
:100BA0009923A9F0F92F96E9BB279395F695879598
:100BB00077956795B795F111F8CFFAF4BB0F11F45B
:100BC00060FF1BC06F5F7F4F8F4F9F4F16C0882302
:100BD00011F096E911C0772321F09EE8872F762F38
:100BE00005C0662371F096E8862F70E060E02AF079
:100BF0009A95660F771F881FDAF7880F9695879565
:100C000097F908950E9415060C9486060E947806AE
:100C100038F00E947F0620F0952311F00C946F06A7
:100C20000C94750611240C94BA060E94970670F372
:100C3000959FC1F3950F50E0551F629FF001729F81
:100C4000BB27F00DB11D639FAA27F00DB11DAA1F90
:100C5000649F6627B00DA11D661F829F2227B00DDD
:100C6000A11D621F739FB00DA11D621F839FA00D68
:100C7000611D221F749F3327A00D611D231F849FB8
:100C8000600D211D822F762F6A2F11249F5750400F
:100C90009AF0F1F088234AF0EE0FFF1FBB1F661F8A
:100CA000771F881F91505040A9F79E3F510580F053
:100CB0000C946F060C94BA065F3FE4F3983ED4F3AD
:100CC000869577956795B795F795E7959F5FC1F7F7
:100CD000FE2B880F911D9695879597F9089597F9A2
:100CE0009F6780E870E060E008959FEF80EC0895D2
:100CF00000240A94161617061806090608950024FB
:100D00000A9412161306140605060895092E039474
:100D1000000C11F4882352F0BB0F40F4BF2B11F4E8
:100D200060FF04C06F5F7F4F8F4F9F4F089557FD47
:100D30009058440F551F59F05F3F71F04795880F49
:100D400097FB991F61F09F3F79F0879508951216E0
:100D500013061406551FF2CF4695F1DF08C016168C
:100D600017061806991FF1CF86957105610508943D
:100D70000895E894BB2766277727CB0197F9089554
:100D8000A1E21A2EAA1BBB1BFD010DC0AA1FBB1F8F
:100D9000EE1FFF1FA217B307E407F50720F0A21B01
:100DA000B30BE40BF50B661F771F881F991F1A946E
:100DB00069F760957095809590959B01AC01BD0198
:100DC000CF010895052E97FB1EF400940E94F906AA
:100DD00057FD07D00E94C00607FC03D04EF40C94C8
:100DE000F90650954095309521953F4F4F4F5F4FF5
:100DF000089590958095709561957F4F8F4F9F4F87
:100E000008950E941407A59F900DB49F900DA49F74
:100E1000800D911D11240895B7FF0C9401070E94C5
:100E20000107821B930B0895A29FB001B39FC001DD
:100E3000A39F700D811D1124911DB29F700D811D06
:100E40001124911D08955058BB27AA270E943B07E3
:100E50000C9486060E94780638F00E947F0620F0E7
:100E600039F49F3F19F426F40C9475060EF4E095BE
:100E7000E7FB0C946F06E92F0E94970658F3BA1708
:100E8000620773078407950720F079F4A6F50C94A0
:100E9000B9060EF4E0950B2EBA2FA02D0B01B90167
:100EA00090010C01CA01A0011124FF27591B99F0E0
:100EB000593F50F4503E68F11A16F040A22F232FEC
:100EC000342F4427585FF3CF469537952795A7953C
:100ED000F0405395C9F77EF41F16BA0B620B730BE3
:100EE000840BBAF09150A1F0FF0FBB1F661F771F54
:100EF000881FC2F70EC0BA0F621F731F841F48F409
:100F0000879577956795B795F7959E3F08F0B0CF91
:100F10009395880F08F09927EE0F97958795089578
:100F20000E9497076894B1110C94BA0608950E9424
:100F30009F0688F09F5798F0B92F9927B751B0F0C6
:100F4000E1F0660F771F881F991F1AF0BA95C9F74D
:100F500014C0B13091F00E94B906B1E008950C942C
:100F6000B906672F782F8827B85F39F0B93FCCF3DF
:100F7000869577956795B395D9F73EF490958095CA
:100F8000709561957F4F8F4F9F4F0895991B79E022
:100F900004C0991F961708F0961B881F7A95C9F709
:100FA00080950895EE0FFF1F0590F491E02D0994B0
:0E0FB00081E090E0F8940C94DD07F894FFCFF8
:100FBE00000000007901E2001101C0014201200190
:100FCE003401564D4450565F317C315F564D44507E
:040FDE00560D0A00A2
:00000001FF
