:100000000C945D000C9485000C9485000C94850084
:100010000C9485000C9485000C9485000C9485004C
:100020000C9485000C9485000C9485000C9485003C
:100030000C9485000C9485000C9485000C9485002C
:100040000C947A0B0C9485000C94AC0A0C94860AE0
:100050000C9485000C9485000C9485000C9485000C
:100060000C9485000C94850000000008000201003B
:100070000003040700000000000000000000000072
:10008000250028002B0000000000240027002A0083
:10009000040404040404040402020202020203032E
:1000A0000303030301020408102040800102040836
:1000B0001020010204081020F41111241FBECFEFFC
:1000C000D8E0DEBFCDBF12E0A0E0B1E0E6E8F5E2A7
:1000D00002C005900D92A836B107D9F723E0A8E633
:1000E000B2E001C01D92A437B207E1F710E0CDE500
:1000F000D0E004C02197FE010E94B612CC35D10792
:10010000C9F70E9431100C94C1120C940000CF93D7
:10011000DF931F92CDB7DEB76983DC01ED91FC91CF
:100120000280F381E02D41E050E0BE016F5F7F4F20
:1001300009950F90DF91CF910895FC01818D928DEB
:100140000895FC0185899689089522EB31E0FC0130
:1001500031832083FB014189528963897489FC01C1
:100160004283538364837583089580E00895CF9319
:10017000DF931F92CDB7DEB76983DC01ED91FC916F
:100180000280F381E02D41E050E0BE016F5F7F4FC0
:1001900009950F90DF91CF910895FC019485FB01A3
:1001A0008485981303C081E0983009F480E00895B5
:1001B00021E0FC018485883009F420E0822F089535
:1001C0000895CF93DF931F92CDB7DEB76983DC012B
:1001D000ED91FC910280F381E02D41E050E0BE0101
:1001E0006F5F7F4F09950F90DF91CF910895DC01EC
:1001F000ED91FC91028CF38DE02D099591E089271A
:100200000895089580E090E00895DC01ED91FC915F
:10021000048CF58DE02D0994CF93DF93FC01218DA3
:10022000328D2115310519F48FEF9FEF11C0EC01CC
:100230004217530708F0A9018C850E94D10C1816AB
:10024000190694F7298D3A8D281B390B3A8F298F7F
:10025000DF91CF9108950F931F93CF93DF931F9258
:10026000CDB7DEB7FC01218D328D232B61F08C01DF
:1002700041E050E0BE016F5F7F4F84850E94D10C4A
:10028000181619061CF08FEF9FEF08C0F801818D3A
:10029000928D0197928F818F898190E00F90DF91ED
:1002A000CF911F910F910895FC0184850C94D10C7E
:1002B000CF93DF931F92CDB7DEB741E050E0BE0190
:1002C0006F5F7F4FFC0184850E94D10C18161906C0
:1002D0001CF4898190E002C08FEF9FEF0F90DF91B7
:1002E000CF910895FC018485883011F00C940C0F97
:1002F00080E090E008950F931F93CF93DF93CDB7E5
:10030000DEB728970FB6F894DEBF0FBECDBF8C01C5
:10031000DC01ED91FC910680F781E02D0995F80153
:1003200084850E940C0F892B59F148E050E0BE01F2
:100330006F5F7F4FD8011C968C910E94D10C9C015D
:1003400018161906DCF489819A81AB81BC81F80109
:10035000818B928BA38BB48B8D8190E0982F882713
:100360002E81820F911D968B858B2F8130E0322F4D
:1003700022278885280F311D328F218FC90102C0A5
:1003800080E090E028960FB6F894DEBF0FBECDBF98
:10039000DF91CF911F910F910895AF92BF92CF92AD
:1003A000DF92FF920F931F93CF93DF938C015B013A
:1003B000EA01FC01C788D08CF4848F2D0E946D0F58
:1003C0008C179D0720F48F2D0E946D0FEC019E016C
:1003D000A501B6018F2D0E94280FF8018789908D05
:1003E0008C0F9D1F908F878BCE01DF91CF911F9136
:1003F0000F91FF90DF90CF90BF90AF9008950F9333
:100400001F93CF93FB018A01DC0158961C921E9228
:1004100057971C96CC918281811109C083818111EB
:1004200006C08481811103C08581882301F10115F3
:100430001105E9F0AF014E5F5F4F6C2F6295660FBB
:10044000607E645F24E030E08CE090E00E94310C3C
:10045000412F60E170E08C2F0E94160D402F61E16A
:1004600070E08C2F0E94160D81E090E002C080E0C9
:1004700090E0CF911F910F910895CF93DF93EC01FE
:100480008C85883061F00E941F0DEC85F0E0EE0F46
:10049000FF1FE859FD4F1182108288E08C87DF91A1
:1004A000CF9108950F931F93CF93DF931F92CDB7F2
:1004B000DEB78C01DC01ED91FC910084F185E02D2B
:1004C0000995892B69F021E041E050E0BE016F5FA2
:1004D0007F4FF80184850E94CE0E898190E002C092
:1004E0008FEF9FEF0F90DF91CF911F910F910895A4
:1004F0009B018295880F807E68E0680FC9010C948B
:10050000080CCF93FC01C48560E270E08C2F0E9440
:10051000760D62E070E08C2F0E94780284FD10C09E
:1005200062E070E08C2F0E94780283FFF2CF48E1F6
:1005300062E070E08C2F0E94160D80E090E008C011
:1005400040E162E070E08C2F0E94160D81E090E0A7
:10055000CF910895FC018485883021F063E070E03C
:100560000C94780280E00895CF93DF93FC012485FA
:100570002830D1F0EC010E94AA02843181F0882356
:1005800071F0883161F08C3161F4E881F981008487
:10059000F185E02DCE01099521E0892B19F420E0A9
:1005A00001C021E0822F01C080E0DF91CF9108954A
:1005B000CF92DF92EF92FF92CF93DF93EC018C8585
:1005C000883099F168E070E00E94760D0E946E0B11
:1005D0006B017C01CE010E94AA028823A1F00E9437
:1005E0006E0BDC01CB018C199D09AE09BF09883E59
:1005F0009340A105B10538F461E070E080E090E03F
:100600000E94340BE7CFCE010E94AA02882319F082
:100610008C850E941F0DEC85F0E0EE0FFF1FE8595E
:10062000FD4F1182108288E08C87DF91CF91FF907F
:10063000EF90DF90CF9008954F925F926F927F92EC
:100640008F929F92AF92BF92CF92DF92EF92FF92E2
:100650001F93CF93DF93CDB7DEB72D970FB6F894E6
:10066000DEBF0FBECDBF7C0198E6A92E92E0B92E69
:1006700010E0C12CD12C28EE422E23E0522E612C0A
:10068000712C32E5832E31E0932E1C821B824D8229
:100690005E826F8278869A8289821D87D5012D912C
:1006A0003D915D01F7018481958128173907B1F4E7
:1006B000CE0101960E94AA02843169F0CE01019612
:1006C0000E94AA028C3151F4CE0101960E9472015F
:1006D000892B91F003C0CC24C394D12C1F5F183018
:1006E000A1F6CD2871F4D701ED91FC910084F1853C
:1006F000E02DC701099505C0CE0101960E94D802E0
:10070000EDCF2D960FB6F894DEBF0FBECDBFDF91B3
:10071000CF911F91FF90EF90DF90CF90BF90AF905F
:100720009F908F907F906F905F904F900895EF9281
:10073000FF921F93CF93DF93FC012485283011F0A3
:1007400080E01DC07B01EC0110E063E070E0812FD0
:100750000E947802811102C01C8705C08831E1F334
:100760001F5F183091F78C85883051F3FE86ED8637
:100770001A8E198EA70162E00E94860D81E0DF913A
:10078000CF911F91FF90EF9008952F923F924F923B
:100790005F926F927F928F929F92AF92BF92CF9211
:1007A000DF92EF92FF920F931F93CF93DF93CDB71A
:1007B000DEB765970FB6F894DEBF0FBECDBF7C01E4
:1007C0006B014A01FB01DB018D918111FDCF20E01E
:1007D00030E080E090E05AE041914423F9F0843029
:1007E00091054CF54E3269F42F3F310509F01CF5A7
:1007F000D401A80FB91F12962C93019620E030E087
:10080000EBCF529FB001539F700D1124242F440F42
:10081000330B20533109260F371FDECF2F3F310511
:1008200009F04CF48430910534F4F401E80FF91F19
:10083000228381E021C0F701428153816481758167
:100840008091310390913203A0913303B09134032E
:10085000481759076A077B0709F428C10E946E0BE5
:100860008701085F1F4F6F7077277C5FC8010E9468
:100870009703813019F080E090E0F0C182EB91E0C5
:100880009A838983F70182819381A481B5818B83C7
:100890009C83AD83BE8345E350E0BE016F5F7F4F15
:1008A000C8010E94FF01892B19F4C12CD12CF9C079
:1008B0000E946E0BF7017783668342E050E0B70138
:1008C0006A5F7F4FC8010E94CD0181E090E09A836A
:1008D000898342E050E0BE016F5F7F4FC8010E94F4
:1008E000CD0180E091E09A83898342E050E0BE012F
:1008F0006F5F7F4FC8010E94CD011A82198242E0CA
:1009000050E0BE016F5F7F4FC8010E94CD0142E001
:1009100050E0BE016F5F7F4FC8010E94CD0142E0F1
:1009200050E0BE016F5F7F4FC8010E94CD012601DC
:10093000F2018081882329F1C6015C01FC0120813C
:100940000196211116C0250135016C187D08161479
:10095000170494F46D8641E050E0BE01635F7F4F61
:10096000C8010E94CD01A301B601C8010E94CD01BA
:1009700003C02E3211F7E7CF6501FFEFCF1ADF0A70
:10098000D7CF1D8641E050E0BE01635F7F4FC801B5
:100990000E94CD01C12CDD24D394DA82C98242E0C9
:1009A00050E0BE016F5F7F4FC8010E94CD01DA8227
:1009B000C98242E050E0BE016F5F7F4FC8010E94D4
:1009C000CD01C8010E948102892B09F46ECF83E01A
:1009D000A82EB12C3401F2E06F0E711C0E946E0B38
:1009E0001B012C01C8010E947B0118161906A4F0F6
:1009F0000E946E0BDC01CB0182199309A409B50991
:100A000089389341A105B105D0F462E370E080E03C
:100A100090E00E94340BE6CFF7014281538164815C
:100A20007581818D928DA38DB48D481759076A0702
:100A30007B0741F4858D968DC59721F406C02FEF75
:100A40003FEF25C02EEF3FEF22C0F70181A192A119
:100A50000C970CF400C14CE050E0BE016F5F7F4F7B
:100A6000C8010E940C018B819C81982789279827B7
:100A70009A8B898BF7014681578129813A814217E8
:100A80005307B9F0C8010E940C0A2CEF3FEF69012F
:100A9000F1E0AF1AB10829F02FEFC216D20609F41F
:100AA0009DCFC8010E943D02C601D8C08EEF9FEFC6
:100AB000D5C097FFE7CF8F709270892B31F0C801B6
:100AC0000E940C0A2BEF3FEFE2CFCF80D884DC24CA
:100AD000CD24DC24C114D10431F4C8010E940C0AD5
:100AE0002AEF3FEFD4CF812C912C8D819E819827C6
:100AF000892798278816990640F541E050E0BE0105
:100B0000635F7F4FC8010E940C018D85811113C066
:100B10008D858111F2CFC8010E942B01C8010E946E
:100B20002B01C8010E942B01C8010E942B01FFEF7D
:100B30008F1A9F0ADACF8D859FEF980F9D878823A4
:100B400039F3C8010E942B01F6CF812C912C41E092
:100B500050E0BE016D5E7F4FC8010E940C018B8981
:100B6000982F907C61F4882371F08B899FEF980F08
:100B70009B8B882341F0C8010E942B01F6CFC8014E
:100B80000E942B011B8A8B898111E1CF42E050E04A
:100B9000BE01615F7F4FC8010E940C0142E050E03E
:100BA000BE01635F7F4FC8010E940C01C8010E9413
:100BB0002B01C8010E942B01C8010E942B01C80112
:100BC0000E942B0142E050E0BE016F5E7F4FC801E2
:100BD0000E940C018F85988981159140F1F42D8533
:100BE0003E8532272327322721303105B1F4898908
:100BF0009A898115944031F0C8010E940C0A27EFB0
:100C00003FEF45CF44E050E0B301C8012C8B3D8B52
:100C10000E940C012C893D893ACF412C512C8989A5
:100C20009A899827892798274816590638F4C801C1
:100C30000E942B018FEF481A580AF1CFEFEF8E1A5E
:100C40009E0A8C149D0409F082CFC8010E940C0AF0
:100C500026EF3FEF1CCF2DEF3FEF19CF65960FB674
:100C6000F894DEBF0FBECDBFDF91CF911F910F91E2
:100C7000FF90EF90DF90CF90BF90AF909F908F90BC
:100C80007F906F905F904F903F902F900895CF92FC
:100C9000DF92EF92FF920F931F93CF93DF93CDB725
:100CA000DEB7AF970FB6F894DEBF0FBECDBF7C01A5
:100CB0006A0102EB11E01A8309831C861B8688EE09
:100CC00093E0A0E0B0E08D879E87AF87B88B8CE083
:100CD00091E09A87898788E08D8B198F088F1A8E0B
:100CE0001B8E1C8E1D8E1DA30CA31EA21FA218A658
:100CF00019A68091240390912503A0912603B09119
:100D000027038CA79DA7AEA7BFA78B839C83AD832A
:100D1000BE8318861F82AE014C5D5F4FCE010196E7
:100D20000E94C50381309105B1F4D701ED91FC918A
:100D30000488F589E02D1BA70AA78EA19FA1A8A56D
:100D4000B9A58CA79DA7AEA7BFA7A601BE01665DEA
:100D50007F4FC7010995AF960FB6F894DEBF0FBE5F
:100D6000CDBFDF91CF911F910F91FF90EF90DF905A
:100D7000CF900895CF92DF92EF92FF920F931F933F
:100D8000CF93DF93CDB7DEB7AF970FB6F894DEBF42
:100D90000FBECDBF7C016A0102EB11E01A8309830B
:100DA0001C861B8688EE93E0A0E0B0E08D879E87CE
:100DB000AF87B88B8CE091E09A87898788E08D8B2C
:100DC000198F088F1A8E1B8E1C8E1D8E1DA30CA3CF
:100DD0001EA21FA218A619A6809124039091250394
:100DE000A0912603B09127038CA79DA7AEA7BFA70C
:100DF0008B839C83AD83BE8318861F82AE014C5DBE
:100E00005F4FCE0101960E94C50381309105B1F478
:100E1000D701ED91FC910684F785E02D1BA70AA769
:100E20008EA19FA1A8A5B9A58CA79DA7AEA7BFA776
:100E3000A601BE01665D7F4FC7010995AF960FB64B
:100E4000F894DEBF0FBECDBFDF91CF911F910F9100
:100E5000FF90EF90DF90CF9008958F929F92AF9286
:100E6000BF92CF92DF92EF92FF920F931F93CF9397
:100E7000DF93CDB7DEB72D970FB6F894DEBF0FBE68
:100E8000CDBF7C0100E010E038EE832E33E0932EDE
:100E9000A12CB12C42E5C42E41E0D42E1C821B8231
:100EA0008D829E82AF82B886DA82C9820D87CE019A
:100EB00001960E94AA0281111EC0F701448155814A
:100EC00061E0802F0E94860D63E070E0802F0E9419
:100ED0007802833129F462E070E0802F0E94760D61
:100EE000F70184819581000F111FF801E859FD4F2A
:100EF0009183808305C00F5F1F4F0830110571F685
:100F00002D960FB6F894DEBF0FBECDBFDF91CF9107
:100F10001F910F91FF90EF90DF90CF90BF90AF9017
:100F20009F908F9008958F929F92AF92BF92CF9291
:100F3000DF92EF92FF920F931F93CF936C015B01AF
:100F40007A01FC01C485C83041F481E090E0F601EB
:100F50009383828380E090E041C08A014130584011
:100F600010F000E018E08C2F0E946D0F4C0163E040
:100F700070E08C2F0E947802873111F08C3121F4BF
:100F80008016910680F302C000E010E09801A501F0
:100F900060E070E08C2F0E94280F60E270E08C2FE0
:100FA0000E94760D62E070E08C2F0E94780284FD32
:100FB0000BC063E070E08C2F0E9478028111F2CFA9
:100FC0008C2F0E941F0DC1CF40E162E070E08C2F9A
:100FD0000E94160D012B09F4B8CFC701CF911F91C4
:100FE0000F91FF90EF90DF90CF90BF90AF909F90C8
:100FF0008F9008952F923F924F925F926F927F92BF
:101000008F929F92AF92BF92CF92DF92EF92FF9218
:101010000F931F93CF93DF93CDB7DEB72E970FB605
:10102000F894DEBF0FBECDBF7C016B015A010E9458
:101030001C0308E612E020E0612C712C88EE282EBB
:1010400083E0382E412C512C92E5892E91E0992E87
:101050001C821B822D823E824F8258869A82898210
:101060002D87F801419151918F01F701848195817C
:101070004817590741F4CE0101962E870E94AA0213
:101080002E858731E9F02F5F283011F7C3012E96A6
:101090000FB6F894DEBF0FBECDBFDF91CF911F9189
:1010A0000F91FF90EF90DF90CF90BF90AF909F9007
:1010B0008F907F906F905F904F903F902F9008950A
:1010C000A501B601CE0101962E870E949307680EF6
:1010D000791E2E85D8CFCF92DF92FF920F931F9368
:1010E000CF93DF938C01EB016A01FC01848588308A
:1010F00009F07AC0F12C63E070E08F2D0E94780235
:10110000811103C0F801F48607C08B7F8831D1F3C9
:10111000F394F8E0FF12EFCFF8018485883009F4EA
:1011200063C020910001309101012F5F3F4F11F406
:1011300020E034E030930101209300014091000150
:101140005091010161E00E94860DF801F4848A81CA
:101150008F3F51F48B818F3F91F48C818F3F79F4D5
:101160008D818F3F61F43DC0811109C08B81811158
:1011700006C08C81811103C08D81882391F1C11437
:10118000D10479F1AE014E5F5F4F6F2D6295660F0E
:10119000607E645F24E030E08CE090E00E94310CDF
:1011A0004D2D60E170E08F2D0E94160D4C2D61E1F8
:1011B00070E08F2D0E94160D64E070E08F2D0E946C
:1011C000760DC8010E94AA02873189F061E070E0C3
:1011D00080E090E00E94340BC8010E94AA028111B5
:1011E000F0CF88E0F801848780E090E002C081E0E1
:1011F00090E0DF91CF911F910F91FF90DF90CF9002
:101200000895FC01538D448D252F30E0842F90E00C
:10121000821B930B541710F0CF96089501970895F1
:10122000FC01918D828D981761F0828DDF01A80FEE
:10123000B11D5D968C91928D9F5F9F73928F90E010
:1012400008958FEF9FEF0895FC01918D828D98177F
:1012500031F0828DE80FF11D858D90E008958FEFBC
:101260009FEF0895FC01918D228D892F90E0805C85
:101270009F4F821B91098F739927089583E892E00D
:101280000E94320921E0892B09F420E0822F089581
:10129000FC01848DDF01A80FB11DA35ABF4F2C9113
:1012A000848D90E001968F739927848FA689B789E2
:1012B0002C93A089B1898C9180648C93938D848DBB
:1012C000981306C00288F389E02D80818F7D80838A
:1012D0000895EF92FF920F931F93CF93DF93EC014A
:1012E00081E0888F9B8D8C8D981305C0E889F989E2
:1012F000808185FD24C0F62E0B8D10E00F5F1F4FFF
:101300000F731127E02E8C8DE8120CC00FB607FC6E
:10131000FACFE889F989808185FFF5CFCE010E9457
:101320004809F1CF8B8DFE01E80FF11DE35AFF4F05
:10133000F0820B8FEA89FB898081806207C0EE8989
:10134000FF896083E889F98980818064808381E0F6
:1013500090E0DF91CF911F910F91FF90EF90089552
:10136000CF93DF93EC01888D8823C9F0EA89FB894C
:10137000808185FD05C0A889B9898C9186FD0FC043
:101380000FB607FCF5CF808185FFF2CFA889B98918
:101390008C9185FFEDCFCE010E944809E7CFDF9108
:1013A000CF91089580E090E0892B29F00E943E09BA
:1013B00081110C94000008953FB7F89480917D024C
:1013C00090917E02A0917F02B091800226B5A89BE9
:1013D00005C02F3F19F00196A11DB11D3FBFBA2FC7
:1013E000A92F982F8827820F911DA11DB11DBC0127
:1013F000CD0142E0660F771F881F991F4A95D1F7EC
:10140000089508958EBD00000DB407FEFDCF8EB582
:1014100008958CBD9DBD0895CF93DF93EC01898D18
:101420009A8D892B41F0E881F9810284F385E02DC2
:10143000CE010995F4CFDF91CF9108958F929F92BD
:10144000AF92BF92CF92DF92EF92FF920F931F93D2
:10145000CF93DF937C01EB016C0182E0C80ED11CBD
:101460004701E5E08E0E911C00E010E0F60141918D
:101470006F0150E060E070E02AE0CE010E949E0F14
:101480005C01E881F9810190F081E02D6EE2CE01EE
:1014900009958A0D9B1D080F191FC814D90431F72F
:1014A000F701458150E060E070E02AE0CE010E9443
:1014B0009E0F800F911FDF91CF911F910F91FF9091
:1014C000EF90DF90CF90BF90AF909F908F90089556
:1014D0000E94BC12CF93DF931F92CDB7DEB7FC0101
:1014E000218D328D232B61F021E041E050E0BE01DF
:1014F0006F5F7F4F84850E94CE0E898190E002C08D
:101500008FEF9FEF0F90DF91CF9108951F920F9271
:101510000FB60F9211242F933F934F935F936F93C6
:101520007F938F939F93AF93BF93EF93FF9383E842
:1015300092E00E944809FF91EF91BF91AF919F9176
:101540008F917F916F915F914F913F912F910F906C
:101550000FBE0F901F9018951F920F920FB60F920B
:1015600011242F938F939F93EF93FF93E091930216
:10157000F09194028081E0919902F0919A0282FDAB
:1015800012C0908180919C028F5F8F7320919D0289
:10159000821751F0E0919C02F0E0ED57FD4F958FDE
:1015A00080939C0201C08081FF91EF919F918F9168
:1015B0002F910F900FBE0F901F90189590E0FC0197
:1015C000E859FF4F3491FC01EC55FF4F2491FC0189
:1015D000E057FF4FE491EE2309F43BC0332339F188
:1015E000333091F038F43130A9F0323001F584B560
:1015F0008F7D12C0373091F03830A1F03430B9F41B
:10160000809180008F7D03C0809180008F778093D0
:1016100080000DC084B58F7784BD09C08091B00073
:101620008F7703C08091B0008F7D8093B000F0E091
:10163000EE0FFF1FE458FF4FA591B4918FB7F894B8
:10164000EC91611103C020952E2301C02E2B2C9309
:101650008FBF089561E0809181020C94DE0A60E002
:10166000809181020C94DE0A8F929F92AF92BF927A
:10167000CF92DF92EF92FF926B017C010E94DC0916
:101680004B015C01C114D104E104F104F1F00E94AA
:10169000DC09DC01CB0188199909AA09BB09883E3C
:1016A0009340A105B10570F321E0C21AD108E10809
:1016B000F10888EE880E83E0981EA11CB11CC114AD
:1016C000D104E104F10419F7DDCFFF90EF90DF9032
:1016D000CF90BF90AF909F908F9008952FB7F894C0
:1016E0006091790270917A0280917B0290917C02E4
:1016F0002FBF08951F920F920FB60F9211242F93B0
:101700003F938F939F93AF93BF9380917902909172
:101710007A02A0917B02B0917C023091780223E0A2
:10172000230F2D3720F40196A11DB11D05C026E819
:10173000230F0296A11DB11D209378028093790298
:1017400090937A02A0937B02B0937C0280917D02F9
:1017500090917E02A0917F02B09180020196A11D1E
:10176000B11D80937D0290937E02A0937F02B0937F
:101770008002BF91AF919F918F913F912F910F90D8
:101780000FBE0F901F901895CF92DF92EF92FF92AD
:101790000F931F93CF93DF9300D01F92CDB7DEB787
:1017A000F82EE92E890180912003909121034A832C
:1017B0005B8369830E94090A0E942F0B8E2D0E9471
:1017C000020A8F2D0E94020A6981862F0E94020A56
:1017D0004A81C42E5B81D52E7601E00EF11ECE1417
:1017E000DF0439F080E00E94020AF60181936F0164
:1017F000F6CF0E942A0BC8010F900F900F90DF9137
:10180000CF911F910F91FF90EF90DF90CF900895AF
:101810000F931F93CF93DF931F92CDB7DEB7182F8F
:10182000092F809120039091210369830E94090A66
:101830000E942F0B802F0E94020A812F0E94020A11
:101840006981862F0E94020A80E00E94020A898331
:101850000E942A0B89810F90DF91CF911F910F91E8
:101860000895CF92DF92EF92FF920F931F93CF9341
:10187000DF9300D01F92CDB7DEB7F82EE92E890195
:1018800080912003909121034A835B8369830E94A6
:10189000090A0E942F0B8E2D0E94020A8F2D0E9492
:1018A000020A6981862F0E94020A4A81C42E5B8146
:1018B000D52E7601E00EF11ECE14DF0431F0F601D4
:1018C00081916F010E94020AF7CF0E942A0BC80182
:1018D0000F900F900F90DF91CF911F910F91FF907C
:1018E000EF90DF90CF9008950F931F93CF93DF93E6
:1018F00000D0CDB7DEB7182F092F8091200390912B
:1019000021034A8369830E94090A0E942F0B802FBA
:101910000E94020A812F0E94020A6981862F0E947A
:10192000020A4A81842F0E94020A0E942A0B81E047
:101930000F900F90DF91CF911F910F9108951F93FA
:10194000CF93DF93182F66E270E00E947802C82FD1
:10195000D0E0DC2FCC2767E270E0812F0E94780274
:101960009E01280F311DC901DF91CF911F9108956C
:101970001F93CF93DF93182F60E270E00E947802EC
:10198000C82FD0E0DC2FCC2761E270E0812F0E94CD
:1019900078029E01280F311DC901DF91CF911F915F
:1019A0000895CF92DF92EF92FF921F93CF93DF9330
:1019B00000D0CDB7DEB7182F7A0169837A830E94F1
:1019C0000C0F6C0169817A810097A1F463E070E0EB
:1019D000812F0E9478028431F1F08823E1F021E028
:1019E00030E08C3111F420E030E0CC24DD24C21A48
:1019F000D30A11C0E816F9060CF467011C141D0483
:101A000054F420E0A601812F0E94CE0E60E470E025
:101A1000812F0E94760DC6010F900F90DF91CF911C
:101A20001F91FF90EF90DF90CF9008959B018295DA
:101A3000880F807E6CE0680FC9010C94740CCF9302
:101A4000C82F60E170E00E94760D4FEF62E070E019
:101A50008C2FCF910C94160D90E0FC01EC55FF4FAC
:101A60002491FC01E057FF4F8491882399F090E086
:101A7000880F991FFC01EA57FF4FA591B491FC0113
:101A8000E458FF4F859194918FB7F894EC91E22B35
:101A9000EC938FBF0895CF92DF92EF92FF920F9356
:101AA0001F93CF93DF936C017A018B01C0E0D0E0EC
:101AB000CE15DF0589F0D8016D918D01D601ED912C
:101AC000FC910190F081E02DC6010995892B11F45C
:101AD0007E0102C02196ECCFC701DF91CF911F910B
:101AE0000F91FF90EF90DF90CF900895CF93C82F84
:101AF000462F61E070E00E94160D61E070E08C2FCF
:101B00000E9478028111F9CFCF910895FF920F932F
:101B10001F93CF93DF931F92CDB7DEB7F82E8A01C4
:101B200069830E941F0D6981462F60E070E08F2D50
:101B30000E94160D0115110551F4009142031091F8
:101B400043030F5F1F4F1093430300934203412F42
:101B500064E070E08F2D0E94160D402F65E070E06C
:101B60008F2D0E94160D61E070E08F2D0E94760D82
:101B700081E00F90DF91CF911F910F91FF90089519
:101B8000CF92DF92EF92FF920F931F93CF93DF9349
:101B9000CDB7DEB7C254D1090FB6F894DEBF0FBE81
:101BA000CDBFFC0182819381A481B58123968CAF46
:101BB0009DAFAEAFBFAF239721E023962FAF239702
:101BC00023964CAD5DAD6EAD7FAD23974BAB5CAB5B
:101BD0006DAB7EAB89AF9AAFABAFBCAF8DA79EA705
:101BE000AFA7B8AB28AB4DA55EA56FA578A94FA34D
:101BF00058A769A77AA72EAB4BA95CA96DA97EA9A6
:101C000049A35AA36BA37CA38B8F9C8FAD8FBE8FF0
:101C100042EB51E05C8B4B8B3FEF3D8B3E8B3F8B20
:101C2000188E5E874D872AA7CFA0D8A4E9A4FAA46E
:101C3000CF86D88AE98AFA8A2CA309A11AA12BA1F6
:101C40003CA109871A872B873C875A8349838B835A
:101C50009C83AD83BE8310912E031093810268EEA6
:101C600073E080E090E00E94340B812F0E942C0DE5
:101C70001FB7F89480914103811124C0EAE9F0E094
:101C80008491EEEAF0E09491E82FF0E0EE0FFF1F70
:101C9000EA57FF4FA591B491EC91E92321F461E05B
:101CA0008AE00E94DE0A8AE00E942C0D8CB58061D9
:101CB0008CBD8CB580648CBD8DE00E942C0D8BE0BA
:101CC0000E942C0D809141038F5F809341031FBFC1
:101CD00060E080E090E00E94080C482F406864E0DB
:101CE00080E090E00E94740C10E0012F0295000F3C
:101CF000007E045F42E0602F8EE190E00E94740C51
:101D000042E0602F8FE190E00E94740C1F5F18305A
:101D100061F726E030E042E051E064E089E090E0E5
:101D20000E94310C24E030E0AE014D5F5F4F64E073
:101D30008FE090E00E94310C24E030E0AE01415F82
:101D40005F4F64E081E090E00E94310C24E030E0DD
:101D5000AE014B5E5F4F64E085E090E00E94310C85
:101D600081E08C8789859A85AB85BC858093240327
:101D700090932503A0932603B0932703CE5BDF4FF8
:101D80000FB6F894DEBF0FBECDBFDF91CF911F918C
:101D90000F91FF90EF90DF90CF900895CF92DF9258
:101DA000EF92FF920F931F93CF93DF93D82E7B0177
:101DB0008A01C22E68E270E00E947802C82F69E2B0
:101DC00070E08D2D0E947802D0E0DC2FCC27C80F68
:101DD000D11D6D2D6295660F607E685E9801A7012A
:101DE000CE010E94C40BC1100EC0C00FD11F4D2FD9
:101DF00068E270E08D2D0E94160D4C2F69E270E0B4
:101E00008D2D0E94160DDF91CF911F910F91FF90A4
:101E1000EF90DF90CF900895FF920F931F93CF9391
:101E2000DF93F82EC0E0D0E08F2D0E949F0C8C0134
:101E3000892B21F08F2D0E949F0CEC01C017D10738
:101E400099F7CE01DF91CF911F910F91FF900895E7
:101E5000CF92DF92EF92FF920F931F93CF93DF9376
:101E600000D0CDB7DEB7182F6B01790164E270E0C6
:101E700049835A830E947802082F65E270E0812F1F
:101E80000E947802C80ED11CE02FF0E0FE2FEE2752
:101E9000CE0EDF1E612F6295660F607E6C5E97012D
:101EA00049815A81C6010E94310CEC0CFD1C4F2D5A
:101EB00064E270E0812F0E94160D4E2D65E270E005
:101EC000812F0F900F90DF91CF911F910F91FF9075
:101ED000EF90DF90CF900C94160DFF920F931F930D
:101EE000CF93DF93F82EC0E0D0E08F2D0E94B80C86
:101EF0008C01892B21F08F2D0E94B80CEC01C017AA
:101F0000D10799F7CE01DF91CF911F910F91FF90EB
:101F100008956115710579F0FB0101900020E9F742
:101F20003197AF01461B570BDC01ED91FC9102800C
:101F3000F381E02D099480E090E008954F925F9244
:101F40006F927F92EF92FF920F931F93CF93DF9345
:101F5000CDB7DEB7A1970FB6F894DEBF0FBECDBFE9
:101F60007C01FA01CB0119A2223008F42AE08E018B
:101F70000F5D1F4F422E512C612C712CBF01A3010C
:101F800092010E949412F901CA01015011096A30AC
:101F900014F4605D01C0695CD8016C93232B242B81
:101FA000252B61F7B801C7010E94890FA1960FB6D2
:101FB000F894DEBF0FBECDBFDF91CF911F910F917F
:101FC000FF90EF907F906F905F904F900895CF9229
:101FD000DF92EF92FF920F931F93CF93DF936B01EA
:101FE000770FEE08FF08F7FE1BC0EC016DE20E94C0
:101FF000E1008C0144275527BA014C195D096E098F
:102000007F092AE0CE010E949E0F800F911FDF9171
:10201000CF911F910F91FF90EF90DF90CF90089597
:102020002AE0B701A601DF91CF911F910F91FF9098
:10203000EF90DF90CF900C949E0F0F931F93CF9350
:10204000DF93EC010E94890F8C0168EC71E0CE01F6
:102050000E94890F800F911FDF91CF911F910F91E7
:102060000895CF93DF93CDB7DEB76A970FB6F89494
:10207000DEBF0FBECDBF789484B5826084BD84B5C9
:10208000816084BD85B5826085BD85B5816085BD73
:1020900080916E00816080936E001092810080912B
:1020A00081008260809381008091810081608093B3
:1020B0008100809180008160809380008091B100D8
:1020C00084608093B1008091B00081608093B00003
:1020D00080917A00846080937A0080917A00826097
:1020E00080937A0080917A00816080937A00809159
:1020F0007A00806880937A001092C100E091930288
:10210000F091940282E08083E0918F02F09190023E
:102110001082E0919102F09192028FEC80831092F4
:102120009B02E0919702F091980286E08083E09113
:102130009502F0919602808180618083E091950202
:10214000F0919602808188608083E0919502F09101
:102150009602808180688083E0919502F0919602DA
:1021600080818F7D808302EB11E01A830983809147
:102170003D0390913E03A0913F03B09140038B83B8
:102180009C83AD83BE83CE0101960E94C00D85E382
:1021900093E00E942D076AEB71E083E892E00E94D1
:1021A000890F1A8309831B821C821D821E8224E0F0
:1021B00030E0AE014D5F5F4F60E08FE090E00E9445
:1021C000C40B63E872E0CE0101960E941E0A68EC1F
:1021D00071E083E892E00E94890F98EE892E93E0E7
:1021E000992EA12CB12C22E5C22E21E0D22E85E31E
:1021F00093E00E941C0388E6E82E82E0F82E10E0AF
:102200001C821B828D829E82AF82B886DA82C9824E
:102210001D87F701219131917F01809139039091C0
:102220003A032817390771F4CE0101960E94AA02D9
:10223000873109F4B9C0CE0101960E94AA028C31FF
:1022400009F4B2C01F5F1830D9F6198A188A8A8A31
:102250009B8AAC8ABD8ADF86CE861A8F8A8D8830AB
:1022600009F49FC06BEC71E083E892E00E941D10BE
:1022700011E0CE010E960E94B402882309F481C0B9
:10228000CE010E960E947201892B99F3CE010E9613
:102290000E945801082F682F83E892E00E94690984
:1022A0000A3009F069C0112319F366ED71E0CE011F
:1022B0000E960E941D1066EE71E0CE010E960E94F1
:1022C0001D106EEF71E0CE010E960E941D1060E1B0
:1022D00072E0CE010E960E941D1068EC71E0CE01F6
:1022E0000E960E94890F6BE172E0CE010E960E945D
:1022F0001D106BE272E0CE010E960E941D1000E0F0
:1023000010E0802F806480937C0080917A0080644C
:1023100080937A0080917A0086FDFCCFE09078006F
:1023200080917900F12CF82A62E372E0CE010E96DA
:102330000E94890FB801CE010E960E94E70F60E45B
:1023400072E0CE010E960E94890FB701CE010E9663
:102350000E94E70F65E472E0CE010E960E941D1008
:102360000F5F1F4F0630110561F66CE472E0CE017D
:102370000E960E941D1005C00D3009F47ACF10E0B2
:1023800078CF61E070E080E090E00E94340BCE01F5
:102390000E960E94D80264E572E083E892E00E9403
:1023A0001D100E94D20923CFCE0101960E94720116
:1023B000892B09F447CF8B819C81998B888B8D81E8
:1023C0009E81AF81B8858A8B9B8BAC8BBD8B8985B9
:1023D0009A85AB85BC858E8B9F8BA88FB98FDF8646
:1023E000CE868D858A8F3ACFE4E4F3E082EB91E0EC
:1023F000918380831282138214821582E3E8F2E0D3
:102400001382128248EE53E060E070E0448355830B
:102410006683778324E731E03183208325EC30E045
:102420003587248724EC30E03787268720EC30E09E
:10243000318B208B21EC30E0338B228B22EC30E08F
:10244000358B248B26EC30E0378B268B118E128E49
:10245000138E148EE0E2F3E020E5208321E0218357
:10246000EAE4F3E09183808312821382148215825E
:10247000E0E5F3E091838083128213821482158257
:10248000E6E5F3E091838083128213821482158241
:10249000ECE5F3E09183808312821382148215822B
:1024A000E2E6F3E091838083128213821482158224
:1024B000E2E2F3E091838083128213821482158218
:1024C000138612863AE03487EFE2F3E0918380834B
:1024D0001282138214821582E8E6F3E091838083EE
:1024E0001282138214821582EEE6F3E091838083D8
:1024F0001282138214821582EBE3F3E091838083CE
:1025000080EC828388EA838324838DE68583E5E3F8
:10251000F3E01382128288E991E09183808380E561
:1025200090E0958384830895A1E21A2EAA1BBB1B19
:10253000FD010DC0AA1FBB1FEE1FFF1FA217B3078F
:10254000E407F50720F0A21BB30BE40BF50B661FA5
:10255000771F881F991F1A9469F760957095809569
:1025600090959B01AC01BD01CF010895EE0FFF1FB7
:102570000590F491E02D099481E090E0F8940C949A
:06258000C112F894FFCF28
:102586000004DEADBEEFFEED000000008700CD01C9
:1025960002010C0A9D002B016A0A9703B5003D0251
:1025A600FF01470681027B010C010501A500A10080
:1025B60000000000680A680A0201680A680A680AD8
:1025C600680A680A680A680A680A680A680A0000E7
:1025D6000000E10093070201E00072015801520277
:1025E6006B08BA065401D802B402D800CD00F70031
:1025F6000000000069094B0D0109B00932091009F4
:10260600240900000000680A4B0D02010101680A56
:10261600680A680A00000000B700FA070201010113
:102626002D0700000000680A4B0D020101010000A1
:1026360000001E0A00000000680A73657276657263
:1026460020697320617420000D0A006E657720638F
:102656006C69656E7400485454502F312E31203207
:102666003030204F4B00436F6E74656E742D547975
:1026760070653A20746578742F68746D6C00436FCA
:102686006E6E656374696F6E3A20636C6F73650076
:10269600526566726573683A2035003C21444F43A3
:1026A600545950452048544D4C3E003C68746D6C5E
:1026B6003E00616E616C6F6720696E7075742000F4
:1026C60020697320003C6272202F3E003C2F687404
:1026D6006D6C3E00636C69656E7420646973636F2C
:0826E6006E6E6563746564000B
:00000001FF
