:100000000C945D000C9485000C9485000C94850084
:100010000C9485000C9485000C9485000C9485004C
:100020000C9485000C9485000C9485000C9485003C
:100030000C9485000C9485000C9485000C9485002C
:100040000C9489020C9485000C9457020C94310294
:100050000C9485000C9485000C9485000C9485000C
:100060000C9485000C94850000000008000201003B
:100070000003040700000000000000000000000072
:10008000250028002B0000000000240027002A0083
:10009000040404040404040402020202020203032E
:1000A0000303030301020408102040800102040836
:1000B0001020010204081020D30211241FBECFEF2C
:1000C000D8E0DEBFCDBF22E0A4E2B1E001C01D92C6
:1000D000A231B207E1F711E0A0E0B1E0ECE5F8E011
:1000E00002C005900D92A432B107D9F710E0CDE51A
:1000F000D0E004C02197FE010E942104CC35D10735
:10010000C9F70E9412030C942C040C94000090E098
:10011000FC01EC55FF4F2491FC01E057FF4F849107
:10012000882399F090E0880F991FFC01EA57FF4F50
:10013000A591B491FC01E458FF4F859194918FB73C
:10014000F894EC91E22BEC938FBF0895CF92DF925D
:10015000EF92FF920F931F932FB7F894C09029014D
:10016000D0902A01E0902B01F0902C012FBFDC01F0
:10017000CB018C0D9D1DAE1DBF1D4FB7F894009196
:10018000290110912A0120912B0130912C014FBFA0
:100190000C151D052E053F0528F080179107A207B5
:1001A000B30758F71F910F91FF90EF90DF90CF901A
:1001B0000895CF92DF92EF92FF920F931F93CF9308
:1001C000DF936C017A018B01C0E0D0E0CE15DF0532
:1001D00089F0D8016D918D01D601ED91FC910190CE
:1001E000F081E02DC6010995892B11F47E0102C032
:1001F0002196ECCFC701DF91CF911F910F91FF9016
:10020000EF90DF90CF900895089580E090E00895FA
:10021000FC01538D448D252F30E0842F90E0821B0C
:10022000930B541710F0CF96089501970895FC0191
:10023000918D828D981761F0828DDF01A80FB11D1D
:100240005D968C91928D9F5F9F73928F90E0089541
:100250008FEF9FEF0895FC01918D828D981731F0FB
:10026000828DE80FF11D858D90E008958FEF9FEF4F
:100270000895FC01918D228D892F90E0805C9F4F25
:10028000821B91098F73992708958DE291E00E9456
:10029000390121E0892B09F420E0822F0895FC0127
:1002A000848DDF01A80FB11DA35ABF4F2C91848DFF
:1002B00090E001968F739927848FA689B7892C9334
:1002C000A089B1898C9180648C93938D848D9813CF
:1002D00006C00288F389E02D80818F7D8083089598
:1002E000EF92FF920F931F93CF93DF93EC0181E086
:1002F000888F9B8D8C8D981305C0E889F989808142
:1003000085FD24C0F62E0B8D10E00F5F1F4F0F737D
:100310001127E02E8C8DE8120CC00FB607FCFACF27
:10032000E889F989808185FFF5CFCE010E944F01D0
:10033000F1CF8B8DFE01E80FF11DE35AFF4FF082E4
:100340000B8FEA89FB898081806207C0EE89FF8973
:100350006083E889F98980818064808381E090E00E
:10036000DF91CF911F910F91FF90EF900895CF9360
:10037000DF93EC01888D8823C9F0EA89FB898081AD
:1003800085FD05C0A889B9898C9186FD0FC00FB67F
:1003900007FCF5CF808185FFF2CFA889B9898C91C0
:1003A00085FFEDCFCE010E944F01E7CFDF91CF91C6
:1003B000089580E090E0892B29F00E944501811189
:1003C0000C940000089590E0FC01E859FF4F34912F
:1003D000FC01EC55FF4F2491FC01E057FF4FE491E5
:1003E000EE2309F43BC0332339F1333091F038F474
:1003F0003130A9F0323001F584B58F7D12C037302D
:1004000091F03830A1F03430B9F4809180008F7DC4
:1004100003C0809180008F77809380000DC084B5E9
:100420008F7784BD09C08091B0008F7703C0809121
:10043000B0008F7D8093B000F0E0EE0FFF1FE45816
:10044000FF4FA591B4918FB7F894EC91611103C05F
:1004500020952E2301C02E2B2C938FBF08950E9430
:1004600027041F920F920FB60F9211242F933F93E0
:100470004F935F936F937F938F939F93AF93BF93AC
:10048000EF93FF938DE291E00E944F01FF91EF9176
:10049000BF91AF919F918F917F916F915F914F919C
:1004A0003F912F910F900FBE0F901F9018951F92A4
:1004B0000F920FB60F9211242F938F939F93EF9368
:1004C000FF93E0913D01F0913E018081E091430175
:1004D000F091440182FD12C09081809146018F5FAE
:1004E0008F7320914701821751F0E0914601F0E0AF
:1004F000E35DFE4F958F8093460101C08081FF919F
:10050000EF919F918F912F910F900FBE0F901F90A1
:1005100018951F920F920FB60F9211242F933F93AD
:100520008F939F93AF93BF938091290190912A015C
:10053000A0912B01B0912C013091280123E0230FD1
:100540002D3720F40196A11DB11D05C026E8230F0B
:100550000296A11DB11D209328018093290190933B
:100560002A01A0932B01B0932C018091240190913A
:100570002501A0912601B09127010196A11DB11D71
:100580008093240190932501A0932601B093270125
:10059000BF91AF919F918F913F912F910F900FBE7F
:1005A0000F901F901895EDE2F1E01382128288EE11
:1005B00093E0A0E0B0E084839583A683B78384E0D2
:1005C00091E09183808385EC90E09587848784EC2B
:1005D00090E09787868780EC90E0918B808B81EC10
:1005E00090E0938B828B82EC90E0958B848B86ECF1
:1005F00090E0978B868B118E128E138E148EEAEC00
:10060000F1E01682178210861186128613861486F0
:10061000158616861786108A118A128A138A148AFA
:10062000158A0895789484B5826084BD84B581600C
:1006300084BD85B5826085BD85B5816085BD8091AD
:100640006E00816080936E00109281008091810025
:10065000826080938100809181008160809381001D
:10066000809180008160809380008091B1008460DF
:100670008093B1008091B00081608093B000809140
:100680007A00846080937A0080917A0082608093FF
:100690007A0080917A00816080937A0080917A005C
:1006A000806880937A001092C10010920E0210921E
:1006B0000F0210921002109211021092CC011092AF
:1006C000CD011092CE011092CF0168EB7BE080E06B
:1006D00090E00E94A6008DE291E090930D0280933D
:1006E0000C02E0913D01F0913E0182E08083E091B7
:1006F0003901F0913A011082E0913B01F0913C0107
:1007000080E1808310924501E0914101F091420126
:1007100086E08083E0913F01F0914001808180611B
:100720008083E0913F01F091400180818860808367
:10073000E0913F01F0914001808180688083E091E9
:100740003F01F091400180818F7D80832FB7F89425
:100750008091290190912A01A0912B01B0912C0147
:100760002FBF8093CC019093CD01A093CE01B09385
:10077000CF0180910C0290910D02DC01ED91FC9172
:100780000280F381E02D41E150E062E171E00995E2
:100790006AE070E080E090E00E94A60081E0809333
:1007A000E00189E00E94870001E710E080E8E82E80
:1007B000F12CC0E889E00E948700F8018491833021
:1007C000F9F048F48130B9F08230A1F584B5806247
:1007D00084BDC8BD33C08730E9F0883019F184305A
:1007E00049F580918000806280938000F0928B00B8
:1007F000E0928A0023C084B5806884BDC7BD1EC056
:1008000080918000806880938000F0928900E0925F
:10081000880014C08091B00080688093B000C093BD
:10082000B3000CC08091B00080628093B000C09390
:10083000B40004C061E089E00E94E3010E94D90194
:10084000B9CFEE0FFF1F0590F491E02D099481E0E0
:0C08500090E0F8940C942C04F894FFCF76
:10085C00000000007001D9000801B701390117012F
:10086C002B01564D4450565F317C315F564D4450F0
:04087C00560D0A000B
:00000001FF
