:100000000C9462000C948A000C948A000C948A0070
:100010000C948A000C948A000C948A000C948A0038
:100020000C948A000C948A000C948A000C948A0028
:100030000C948A000C948A000C948A000C948A0018
:100040000C941A030C948A000C94E8020C94C202DB
:100050000C948A000C948A000C948A000C948A00F8
:100060000C948A000C948A00000000080002010031
:100070000003040700000000000000000000000072
:10008000250028002B0000000000240027002A0083
:1000900000000000230026002900040404040404D6
:1000A0000404020202020202030303030303010227
:1000B00004081020408001020408102001020408F6
:1000C0001020A90311241FBECFEFD8E0DEBFCDBFA3
:1000D00022E0A4E6B1E001C01D92AA36B207E1F722
:1000E00011E0A0E0B1E0E8E3F3E102C005900D9279
:1000F000A436B107D9F710E0C2E6D0E004C02197DA
:10010000FE010E948F09C136D107C9F70E94E8039A
:100110000C949A090C940000E5E8F1E0A089B189FB
:1001200082E08C93A485B5851C92A685B7858FEC5B
:100130008C93108EA489B58986E08C93A289B389AB
:100140008C9180618C93A289B3898C9188608C9307
:10015000A289B3898C9180688C930288F389E02D01
:1001600080818F7D80830895CF92DF92EF92FF92FE
:100170000F931F93CF93DF936C017A018B01C0E043
:10018000D0E0CE15DF0589F0D8016D918D01D60143
:10019000ED91FC910190F081E02DC6010995892B2C
:1001A00011F47E0102C02196ECCFC701DF91CF91FF
:1001B0001F910F91FF90EF90DF90CF9008950895D9
:1001C00080E090E00895FC01538D448D252F30E0B0
:1001D000842F90E0821B930B541710F0CF96089554
:1001E00001970895FC01918D828D981761F0828DA1
:1001F000DF01A80FB11D5D968C91928D9F5F9F735B
:10020000928F90E008958FEF9FEF0895FC01918DFC
:10021000828D981731F0828DE80FF11D858D90E069
:1002200008958FEF9FEF0895FC01918D228D892F06
:1002300090E0805C9F4F821B91098F7399270895EE
:1002400085E891E00E94140121E0892B09F420E067
:10025000822F0895FC01848DDF01A80FB11DA35AE0
:10026000BF4F2C91848D90E001968F739927848FD6
:10027000A689B7892C93A089B1898C9180648C93CD
:10028000938D848D981306C00288F389E02D8081B8
:100290008F7D80830895EF92FF920F931F93CF93EA
:1002A000DF93EC0181E0888F9B8D8C8D981305C0C6
:1002B000E889F989808185FD24C0F62E0B8D10E038
:1002C0000F5F1F4F0F731127E02E8C8DE8120CC0AB
:1002D0000FB607FCFACFE889F989808185FFF5CF51
:1002E000CE010E942A01F1CF8B8DFE01E80FF11D96
:1002F000E35AFF4FF0820B8FEA89FB89808180628D
:1003000007C0EE89FF896083E889F989808180646C
:10031000808381E090E0DF91CF911F910F91FF905A
:10032000EF900895CF93DF93EC01888D8823C9F077
:10033000EA89FB89808185FD05C0A889B9898C91EE
:1003400086FD0FC00FB607FCF5CF808185FFF2CF89
:10035000A889B9898C9185FFEDCFCE010E942A0131
:10036000E7CFDF91CF91089580E090E0892B29F0CD
:100370000E94200181110C940000089590E0FC017E
:10038000E859FF4F3491FC01E255FF4F2491FC01E5
:10039000E656FF4FE491EE2309F43BC0332339F1D5
:1003A000333091F038F43130A9F0323001F584B5B2
:1003B0008F7D12C0373091F03830A1F03430B9F46D
:1003C000809180008F7D03C0809180008F77809323
:1003D00080000DC084B58F7784BD09C08091B000C6
:1003E0008F7703C08091B0008F7D8093B000F0E0E4
:1003F000EE0FFF1FE458FF4FA591B4918FB7F8940B
:10040000EC91611103C020952E2301C02E2B2C935B
:100410008FBF08953FB7F8948091690190916A0168
:10042000A0916B01B0916C0126B5A89B05C02F3F30
:1004300019F00196A11DB11D3FBFBA2FA92F982F0A
:100440008827820F911DA11DB11DBC01CD0142E085
:10045000660F771F881F991F4A95D1F708952FB708
:10046000F8946091650170916601809167019091A7
:1004700068012FBF08958F929F92AF92BF92CF9243
:10048000DF92EF92FF926B017C010E942F024B01E1
:100490005C01C60ED71EE81EF91E0E942F026815C9
:1004A00079058A059B0528F0C616D706E806F906E1
:1004B000A0F7FF90EF90DF90CF90BF90AF909F900C
:1004C0008F9008950E9495096115710579F0FB01DF
:1004D00001900020E9F73197AF01461B570BDC0173
:1004E000ED91FC910280F381E02D099480E090E091
:1004F00008954F925F926F927F92EF92FF920F93C7
:100500001F93CF93DF93CDB7DEB7A1970FB6F894C3
:10051000DEBF0FBECDBF7C01FA01CB0119A2223094
:1005200008F42AE08E010F5D1F4F422E512C612CE2
:10053000712CBF01A30192010E945508F901CA0163
:10054000015011096A3014F4605D01C0695CD80182
:100550006C93232B242B252B61F7B801C7010E9434
:100560006402A1960FB6F894DEBF0FBECDBFDF9137
:10057000CF911F910F91FF90EF907F906F905F90C0
:100580004F9008951F920F920FB60F9211242F9340
:100590003F934F935F936F937F938F939F93AF930B
:1005A000BF93EF93FF9385E891E00E942A01FF91AA
:1005B000EF91BF91AF919F918F917F916F915F91DB
:1005C0004F913F912F910F900FBE0F901F90189554
:1005D0001F920F920FB60F9211242F938F939F9318
:1005E000EF93FF93E0919501F09196018081E09166
:1005F0009B01F0919C0182FD12C0908180919E012F
:100600008F5F8F7320919F01821751F0E0919E01BF
:10061000F0E0EB57FE4F958F80939E0101C08081E3
:10062000FF91EF919F918F912F910F900FBE0F909F
:100630001F9018951F920F920FB60F9211242F93AF
:100640003F938F939F93AF93BF9380916501909158
:100650006601A0916701B09168013091640123E0C7
:10066000230F2D3720F40196A11DB11D05C026E8EA
:10067000230F0296A11DB11D209364018093650193
:1006800090936601A0936701B0936801809169011E
:1006900090916A01A0916B01B0916C010196A11D2E
:1006A000B11D8093690190936A01A0936B01B0938F
:1006B0006C01BF91AF919F918F913F912F910F90BE
:1006C0000FBE0F901F901895CF92DF92EF92FF927E
:1006D0000F931F93E82FF92F05C00150110921092D
:1006E000310961F1908196239417B9F305C0015047
:1006F00011092109310911F1908196239413F7CF43
:10070000C12CD12CE12CF12C0AC08FEFC81AD80AC9
:10071000E80AF80A0C151D052E053F0579F08081C1
:100720008623841791F36C2D7D2D8E2D9F2D1F9187
:100730000F91FF90EF90DF90CF90089560E070E010
:1007400080E090E01F910F91FF90EF90DF90CF90AD
:100750000895E5E8F1E01382128288EE93E0A0E0CC
:10076000B0E084839583A683B78384E091E091838E
:10077000808385EC90E09587848784EC90E0978770
:10078000868780EC90E0918B808B81EC90E0938B5E
:10079000828B82EC90E0958B848B86EC90E0978B3B
:1007A000868B118E128E138E148EE2E2F2E0168288
:1007B0001782108611861286138614861586168671
:1007C0001786108A118A128A138A148A158A089544
:1007D000789484B5826084BD84B5816084BD85B51C
:1007E000826085BD85B5816085BD80916E00816028
:1007F00080936E00109281008091810082608093CE
:1008000081008091810081608093810080918000CF
:100810008160809380008091B10084608093B100FA
:100820008091B00081608093B00080917A008460F4
:1008300080937A0080917A00826080937A00809120
:100840007A00816080937A0080917A00806880933A
:100850007A001092C1001092660210926702109204
:1008600068021092690210922402109225021092DE
:1008700026021092270268EB7BE080E090E00E9465
:100880003B0285E891E090936502809364020E94A8
:100890008C000E942F0260932402709325028093A3
:1008A00026029093270262E171E0809164029091A8
:1008B00065020E9464026AE070E080E090E00E94BD
:1008C0003B0281E0809338020E948C00E7EBF0E06D
:1008D0002491E3EAF0E08491882399F090E0880F76
:1008E000991FFC01EA57FF4FA591B491FC01E45810
:1008F000FF4F859194918FB7F894EC91E22BEC9394
:100900008FBFE8EBF0E02491E4EAF0E084918823E3
:10091000C1F090E0880F991FFC01EA57FF4FC59185
:10092000D491FC01E458FF4FA591B4919FB7F8947E
:100930008881E22FE0958E2388838C91E823EC93C5
:100940009FBF24EF822E99249394A12CB12C3BE3DA
:10095000232E3FE1332EC3E2D0E00E942F02672B0B
:10096000682B692B41F40E942F02623071058105CA
:10097000910508F40BC10E942F02609381017093CE
:1009800082018093830190938401C0907D01D09077
:100990007E01E0907F01F09080016C157D058E0551
:1009A0009F0540F460937D0170937E0180937F01E9
:1009B00090938001C0907D01D0907E01E0907F01F6
:1009C000F09080019B01AC012C193D094E095F0993
:1009D00069017A013AEFC316D104E104F10408F485
:1009E000D5C060937D0170937E0180937F019093C9
:1009F00080018092300290923102A0923202B09235
:100A00003302109234021092350210923602109284
:100A100037028091280290912902A0912A02B09178
:100A20002B0280932C0290932D02A0932E02B09360
:100A30002F020E942F026093280270932902809354
:100A40002A0290932B020E942F026093240270933B
:100A5000250280932602909327020E942F026B01A9
:100A60007C0164E271E080916402909165020E94D1
:100A700064022AE041E050E060E070E080916402AE
:100A8000909165020E9479026BE271E080916402AC
:100A9000909165020E9464022AE0B701A60180914C
:100AA0006402909165020E9479026DE271E080918A
:100AB0006402909165020E946402809128029091E4
:100AC0002902A0912A02B0912B02B701A601481B6E
:100AD000590B6A0B7B0B2AE08091640290916502AE
:100AE0000E9479026DE271E080916402909165024A
:100AF0000E946402409128025091290260912A02CA
:100B000070912B0280912C0290912D02A0912E02C7
:100B1000B0912F02481B590B6A0B7B0B2AE0809186
:100B20006402909165020E9479026FE271E0809107
:100B30006402909165020E9464020E942F02AB0140
:100B4000BC012AE080916402909165020E947902C2
:100B5000E0906402F090650261E371E0C7010E94D9
:100B6000640261E271E0C7010E94640265E070E026
:100B700080E090E00E943B020E942F0260932802D6
:100B80007093290280932A0290932B0260E089E0FF
:100B90000E94BE01C1010197F1F761E089E00E9466
:100BA000BE01CE010197F1F760E089E00E94BE012D
:100BB000E8EBF0E06491E4EAF0E08491E82FF0E003
:100BC000EE0FFF1FE057FF4F8591949100E412E470
:100BD0002FE030E0462F0E94640361157105810506
:100BE000910549F0DC01CB010196A11DB11DBC01AD
:100BF000CD019F7003C060E070E0CB010E9436071A
:100C00009B01AC016093790170937A0180937B0121
:100C100090937C0160E070E080E491E40E94E4083D
:100C200060937501709376018093770190937801BA
:100C300020E030E44CE156E40E9497076093710194
:100C400070937201809373019093740126E636E6E7
:100C500046E650E40E94970760936D0170936E0121
:100C600080936F019093700168E371E085E891E0F3
:100C70000E946402C0906D01D0906E01E0906F01FF
:100C8000F0907001A7019601C701B6010E948A0980
:100C9000882319F060E571E01AC026013701E89455
:100CA00077F82FEF3FEF4FE75FE7C301B2010E94F4
:100CB0008A09811111C02FEF3FEF4FE75FE7C301B2
:100CC000B2010E94310718163CF464E571E085E832
:100CD00091E00E94640289C02FEF3FEF4FE75FE48D
:100CE000C701B6010E94850918161CF468E571E079
:100CF000EECF2FEF3FEF4FE75FECC701B6010E9449
:100D0000310787FDF3CF20E030E0A901C701B6012C
:100D10000E94310787FF0FC0E0918501F0918601A5
:100D20000190F081E02D6DE285E891E00995F7FAF8
:100D3000F094F7F8F0942AE037ED43EA5BE3C7015B
:100D4000B6010E9478082B013C010E9456096B01F4
:100D50007C010E9436079B01AC01C301B2010E94D5
:100D600077082B013C012AE0B701A60185E891E054
:100D70000E947902E0918501F09186010190F08155
:100D8000E02D6EE285E891E0099520E030E040E258
:100D900051E4C301B2010E9497076B017C010E94DC
:100DA00056092B01612C712C2AE0B301A20185E8C0
:100DB00091E00E947902C301B2010E9436079B01B3
:100DC000AC01C701B6010E94770820E030E040E2A4
:100DD00051E40E9497070E945609AB0160E070E061
:100DE0002AE085E891E00E94790261E271E085E8FD
:100DF00091E00E9464026CE571E085E891E00E9458
:100E0000640261E271E085E891E00E9464020E9460
:100E10000A022B013C0188EBC82E8BE0D82EE12C76
:100E2000F12C0E940A02DC01CB0184199509A60964
:100E3000B709883E9340A105B10558F0F1E0CF1AFB
:100E4000D108E108F10828EE420E23E0521E611C91
:100E5000711CC114D104E104F10419F70E94B4011A
:100E60007CCD0E94730708F481E00895E89409C0DE
:100E700097FB3EF490958095709561957F4F8F4FCD
:100E80009F4F9923A9F0F92F96E9BB279395F695E3
:100E9000879577956795B795F111F8CFFAF4BB0F61
:100EA00011F460FF1BC06F5F7F4F8F4F9F4F16C0C5
:100EB000882311F096E911C0772321F09EE8872F4F
:100EC000762F05C0662371F096E8862F70E060E00B
:100ED0002AF09A95660F771F881FDAF7880F969584
:100EE000879597F90895990F0008550FAA0BE0E828
:100EF000FEEF16161706E807F907C0F012161306DC
:100F0000E407F50798F0621B730B840B950B39F41B
:100F10000A2661F0232B242B252B21F408950A2681
:100F200009F4A140A6958FEF811D811D08950E94AF
:100F3000AA070C941B080E940D0838F00E941408A0
:100F400020F0952311F00C9404080C940A08112445
:100F50000C944F080E942C0870F3959FC1F3950FD5
:100F600050E0551F629FF001729FBB27F00DB11D2D
:100F7000639FAA27F00DB11DAA1F649F6627B00DBD
:100F8000A11D661F829F2227B00DA11D621F739FA6
:100F9000B00DA11D621F839FA00D611D221F749FB4
:100FA0003327A00D611D231F849F600D211D822FFB
:100FB000762F6A2F11249F5750409AF0F1F0882322
:100FC0004AF0EE0FFF1FBB1F661F771F881F91504F
:100FD0005040A9F79E3F510580F00C9404080C94F2
:100FE0004F085F3FE4F3983ED4F386957795679575
:100FF000B795F795E7959F5FC1F7FE2B880F911D79
:101000009695879597F9089597F99F6780E870E01E
:1010100060E008959FEF80EC089500240A9416166E
:10102000170618060906089500240A9412161306D6
:10103000140605060895092E0394000C11F4882364
:1010400052F0BB0F40F4BF2B11F460FF04C06F5F80
:101050007F4F8F4F9F4F089557FD9058440F551F56
:1010600059F05F3F71F04795880F97FB991F61F02A
:101070009F3F79F087950895121613061406551FA1
:10108000F2CF4695F1DF08C0161617061806991F0D
:10109000F1CF86957105610508940895E894BB2702
:1010A00066277727CB0197F90895A1E21A2EAA1B8C
:1010B000BB1BFD010DC0AA1FBB1FEE1FFF1FA21708
:1010C000B307E407F50720F0A21BB30BE40BF50B05
:1010D000661F771F881F991F1A9469F7609570958E
:1010E000809590959B01AC01BD01CF0108955058AA
:1010F000BB27AA270E948F080C941B080E940D088A
:1011000038F00E94140820F039F49F3F19F426F4B7
:101110000C940A080EF4E095E7FB0C940408E92F00
:101120000E942C0858F3BA176207730784079507C3
:1011300020F079F4A6F50C944E080EF4E0950B2EF1
:10114000BA2FA02D0B01B90190010C01CA01A00119
:101150001124FF27591B99F0593F50F4503E68F174
:101160001A16F040A22F232F342F4427585FF3CFB5
:10117000469537952795A795F0405395C9F77EF486
:101180001F16BA0B620B730B840BBAF09150A1F0CF
:10119000FF0FBB1F661F771F881FC2F70EC0BA0F55
:1011A000621F731F841F48F4879577956795B795DD
:1011B000F7959E3F08F0B0CF9395880F08F09927D8
:1011C000EE0F9795879508950E94F8080C941B08D8
:1011D0000E94140858F00E940D0840F029F45F3F67
:1011E00029F00C94040851110C944F080C940A082F
:1011F0000E942C0868F39923B1F3552391F3951BB2
:10120000550BBB27AA2762177307840738F09F5F27
:101210005F4F220F331F441FAA1FA9F335D00E2E94
:101220003AF0E0E832D091505040E695001CCAF701
:101230002BD0FE2F29D0660F771F881FBB1F2617C4
:1012400037074807AB07B0E809F0BB0B802DBF019B
:10125000FF2793585F4F3AF09E3F510578F00C946A
:1012600004080C944F085F3FE4F3983ED4F386954E
:1012700077956795B795F7959F5FC9F7880F911D8B
:101280009695879597F90895E1E0660F771F881F77
:10129000BB1F621773078407BA0720F0621B730B2A
:1012A000840BBA0BEE1F88F7E09508950E9434086E
:1012B00088F09F5798F0B92F9927B751B0F0E1F017
:1012C000660F771F881F991F1AF0BA95C9F714C0C7
:1012D000B13091F00E944E08B1E008950C944E0890
:1012E000672F782F8827B85F39F0B93FCCF3869500
:1012F00077956795B395D9F73EF49095809570955D
:1013000061957F4F8F4F9F4F08950E94730708F498
:101310008FEF08950E947307880B990B0895EE0FC5
:10132000FF1F0590F491E02D099481E090E0F8947E
:081330000C949A09F894FFCF18
:10133800000000004B01B400E30092011401F20028
:101348000601564D4450565F317C315F564D44502E
:10135800560D0A00564D4450455F003A323A007C1B
:10136800005F564D445045005468652073706565AC
:1013780064206F6620736F756E642069733A20006D
:101388006E616E00696E66006F766600206B6D2F69
:041398006872000077
:107E0000112484B714BE81FFF0D085E080938100F7
:107E100082E08093C00088E18093C10086E0809377
:107E2000C20080E18093C4008EE0C9D0259A86E02C
:107E300020E33CEF91E0309385002093840096BBD3
:107E4000B09BFECF1D9AA8958150A9F7CC24DD24C4
:107E500088248394B5E0AB2EA1E19A2EF3E0BF2EE7
:107E6000A2D0813461F49FD0082FAFD0023811F036
:107E7000013811F484E001C083E08DD089C08234E0
:107E800011F484E103C0853419F485E0A6D080C0E4
:107E9000853579F488D0E82EFF2485D0082F10E0AE
:107EA000102F00270E291F29000F111F8ED06801E7
:107EB0006FC0863521F484E090D080E0DECF843638
:107EC00009F040C070D06FD0082F6DD080E0C81688
:107ED00080E7D80618F4F601B7BEE895C0E0D1E017
:107EE00062D089930C17E1F7F0E0CF16F0E7DF06D8
:107EF00018F0F601B7BEE89568D007B600FCFDCFD4
:107F0000A601A0E0B1E02C9130E011968C91119780
:107F100090E0982F8827822B932B1296FA010C0160
:107F200087BEE89511244E5F5F4FF1E0A038BF0790
:107F300051F7F601A7BEE89507B600FCFDCF97BE46
:107F4000E89526C08437B1F42ED02DD0F82E2BD052
:107F50003CD0F601EF2C8F010F5F1F4F84911BD097
:107F6000EA94F801C1F70894C11CD11CFA94CF0C13
:107F7000D11C0EC0853739F428D08EE10CD085E9AC
:107F80000AD08FE07ACF813511F488E018D01DD067
:107F900080E101D065CF982F8091C00085FFFCCF94
:107FA0009093C60008958091C00087FFFCCF809118
:107FB000C00084FD01C0A8958091C6000895E0E648
:107FC000F0E098E1908380830895EDDF803219F02E
:107FD00088E0F5DFFFCF84E1DECF1F93182FE3DFCA
:107FE0001150E9F7F2DF1F91089580E0E8DFEE27F6
:047FF000FF270994CA
:027FFE00040479
:0400000300007E007B
:00000001FF