:100000000C9462000C948A000C948A000C948A0070
:100010000C948A000C948A000C948A000C948A0038
:100020000C948A000C948A000C948A000C948A0028
:100030000C948A000C948A000C948A000C948A0018
:100040000C9416030C948A000C94E4020C94BE02E7
:100050000C948A000C948A000C948A000C948A00F8
:100060000C948A000C948A000000000024002700F1
:100070002A000000000023002600290000000000E4
:10008000250028002B0004040404040404040202D4
:100090000202020203030303030301020408102007
:1000A0004080010204081020010204081020000012
:1000B0000008000201000003040700000000000027
:1000C0000000A50311241FBECFEFD8E0DEBFCDBFD7
:1000D00022E0A8E3B1E001C01D92A433B207E1F72A
:1000E00011E0A0E0B1E0E8E8FFE002C005900D9269
:1000F000A833B107D9F710E0C2E6D0E004C02197D9
:10010000FE010E94B707C136D107C9F70E94E40378
:100110000C94C2070C940000EFE4F1E0A089B189CF
:1001200082E08C93A485B5851C92A685B7858FEC5B
:100130008C93108EA489B58986E08C93A289B389AB
:100140008C9180618C93A289B3898C9188608C9307
:10015000A289B3898C9180688C930288F389E02D01
:1001600080818F7D80830895E7EBF0E02491E3EABE
:10017000F0E09491EFE8F0E0E491EE2309F43BC065
:10018000222339F1233091F038F42130A9F02230C4
:1001900001F524B52F7D12C0273091F02830A1F051
:1001A0002430B9F4209180002F7D03C0209180007D
:1001B0002F77209380000DC024B52F7724BD09C070
:1001C0002091B0002F7703C02091B0002F7D2093A5
:1001D000B000F0E0EE0FFF1FE458FF4FA591B4917F
:1001E0002FB7F894EC91811103C090959E2301C024
:1001F0009E2B9C932FBF0895CF92DF92EF92FF9298
:100200000F931F93CF93DF936C017A018B01C0E0B2
:10021000D0E0CE15DF0589F0D8016D918D01D601B2
:10022000ED91FC910190F081E02DC6010995892B9B
:1002300011F47E0102C02196ECCFC701DF91CF916E
:100240001F910F91FF90EF90DF90CF900895089548
:1002500080E090E00895FC01538D448D252F30E01F
:10026000842F90E0821B930B541710F0CF960895C3
:1002700001970895FC01918D828D981761F0828D10
:10028000DF01A80FB11D5D968C91928D9F5F9F73CA
:10029000928F90E008958FEF9FEF0895FC01918D6C
:1002A000828D981731F0828DE80FF11D858D90E0D9
:1002B00008958FEF9FEF0895FC01918D228D892F76
:1002C00090E0805C9F4F821B91098F73992708955E
:1002D0008FE491E00E945C0121E0892B09F420E089
:1002E000822F0895FC01848DDF01A80FB11DA35A50
:1002F000BF4F2C91848D90E001968F739927848F46
:10030000A689B7892C93A089B1898C9180648C933C
:10031000938D848D981306C00288F389E02D808127
:100320008F7D80830895EF92FF920F931F93CF9359
:10033000DF93EC0181E0888F9B8D8C8D981305C035
:10034000E889F989808185FD24C0F62E0B8D10E0A7
:100350000F5F1F4F0F731127E02E8C8DE8120CC01A
:100360000FB607FCFACFE889F989808185FFF5CFC0
:10037000CE010E947201F1CF8B8DFE01E80FF11DBD
:10038000E35AFF4FF0820B8FEA89FB8980818062FC
:1003900007C0EE89FF896083E889F98980818064DC
:1003A000808381E090E0DF91CF911F910F91FF90CA
:1003B000EF900895CF93DF93EC01888D8823C9F0E7
:1003C000EA89FB89808185FD05C0A889B9898C915E
:1003D00086FD0FC00FB607FCF5CF808185FFF2CFF9
:1003E000A889B9898C9185FFEDCFCE010E94720159
:1003F000E7CFDF91CF91089580E090E0892B29F03D
:100400000E94680181110C94000008953FB7F89490
:1004100080913D0190913E01A0913F01B09140013A
:1004200026B5A89B05C02F3F19F00196A11DB11D4F
:100430003FBFBA2FA92F982F8827820F911DA11D8A
:10044000B11DBC01CD0142E0660F771F881F991FC7
:100450004A95D1F708952FB7F894609139017091BA
:100460003A0180913B0190913C012FBF08958F92FA
:100470009F92AF92BF92CF92DF92EF92FF926B0169
:100480007C010E942B024B015C01C60ED71EE81EA8
:10049000F91E0E942B02681579058A059B0528F034
:1004A000C616D706E806F906A0F7FF90EF90DF9092
:1004B000CF90BF90AF909F908F9008950E94BD07FE
:1004C0006115710579F0FB0101900020E9F7319782
:1004D000AF01461B570BDC01ED91FC910280F381CB
:1004E000E02D099480E090E008954F925F926F9222
:1004F0007F92EF92FF920F931F93CF93DF93CDB72D
:10050000DEB7A1970FB6F894DEBF0FBECDBF7C015A
:10051000FA01CB0119A2223008F42AE08E010F5D06
:100520001F4F422E512C612C712CBF01A30192014F
:100530000E945F07F901CA01015011096A3014F4E1
:10054000605D01C0695CD8016C93232B242B252BA3
:1005500061F7B801C7010E946002A1960FB6F89436
:10056000DEBF0FBECDBFDF91CF911F910F91FF90E6
:10057000EF907F906F905F904F9008951F920F9231
:100580000FB60F9211242F933F934F935F936F9366
:100590007F938F939F93AF93BF93EF93FF938FE4DA
:1005A00091E00E947201FF91EF91BF91AF919F91F5
:1005B0008F917F916F915F914F913F912F910F900C
:1005C0000FBE0F901F9018951F920F920FB60F92AB
:1005D00011242F938F939F93EF93FF93E0915F01EB
:1005E000F09160018081E0916501F091660182FDEA
:1005F00012C09081809168018F5F8F732091690193
:10060000821751F0E0916801F0E0E15BFE4F958FB9
:100610008093680101C08081FF91EF919F918F913C
:100620002F910F900FBE0F901F9018951F920F9251
:100630000FB60F9211242F933F938F939F93AF93F5
:10064000BF938091390190913A01A0913B01B09103
:100650003C013091380123E0230F2D3720F401961F
:10066000A11DB11D05C026E8230F0296A11DB11DD5
:10067000209338018093390190933A01A0933B0174
:10068000B0933C0180913D0190913E01A0913F01CA
:10069000B09140010196A11DB11D80933D01909341
:1006A0003E01A0933F01B0934001BF91AF919F9154
:1006B0008F913F912F910F900FBE0F901F90189523
:1006C000CF92DF92EF92FF920F931F93E82FF92FB3
:1006D00005C0015011092109310961F1908196236A
:1006E0009417B9F305C0015011092109310911F11D
:1006F000908196239413F7CFC12CD12CE12CF12CAF
:100700000AC08FEFC81AD80AE80AF80A0C151D05A6
:100710002E053F0579F080818623841791F36C2D97
:100720007D2D8E2D9F2D1F910F91FF90EF90DF90CB
:10073000CF90089560E070E080E090E01F910F910D
:10074000FF90EF90DF90CF900895EFE4F1E01382F7
:10075000128288EE93E0A0E0B0E084839583A683C4
:10076000B78384E091E09183808385EC90E0958766
:10077000848784EC90E09787868780EC90E0918B6B
:10078000808B81EC90E0938B828B82EC90E0958B58
:10079000848B86EC90E0978B868B118E128E138E55
:1007A000148EECEEF1E01682178210861186128606
:1007B00013861486158616861786108A118A128A61
:1007C000138A148A158A0895789484B5826084BD4A
:1007D00084B5816084BD85B5826085BD85B5816045
:1007E00085BD80916E00816080936E0010928100C3
:1007F000809181008260809381008091810081607E
:10080000809381008091800081608093800080913E
:10081000B10084608093B1008091B00081608093CA
:10082000B00080917A00846080937A0080917A0091
:10083000826080937A0080917A00816080937A0050
:1008400080917A00806880937A001092C1001092A3
:100850003002109231021092320210923302109242
:10086000EE011092EF011092F0011092F10168EB8D
:100870007BE080E090E00E9437028FE491E090936B
:100880002F0280932E020E948C000E942B02609304
:10089000EE017093EF018093F0019093F10162E11A
:1008A00071E080912E0290912F020E9460026AE016
:1008B00070E080E090E00E94370281E080930202C5
:1008C000E3EAF0E02491EFE8F0E08491882399F0E6
:1008D00090E0880F991FFC01E859FF4FA591B49152
:1008E000FC01E458FF4F859194918FB7F894EC91F7
:1008F000E22BEC938FBFE4EAF0E02491E0E9F0E032
:1009000084918823C1F090E0880F991FFC01E85979
:10091000FF4FC591D491FC01E458FF4FA591B491CC
:100920009FB7F8948881E22FE0958E2388838C917D
:10093000E823EC939FBF0E948C0024EF422E5524A5
:100940005394612C712CC3E0D0E034EA232E30E0C4
:10095000332E0E942B02672B682B692B41F40E94D7
:100960002B02623071058105910508F40BC10E94CC
:100970002B0260934B0170934C0180934D01909337
:100980004E01C0904701D0904801E0904901F0909D
:100990004A016C157D058E059F0540F46093470163
:1009A000709348018093490190934A01C090470198
:1009B000D0904801E0904901F0904A019B01AC01C0
:1009C0002C193D094E095F0969017A013AEFC316F6
:1009D000D104E104F10408F4D5C060934701709399
:1009E00048018093490190934A014092FA01509244
:1009F000FB016092FC017092FD011092FE011092C9
:100A0000FF0110920002109201028091F201909178
:100A1000F301A091F401B091F5018093F601909358
:100A2000F701A093F801B093F9010E942B026093A3
:100A3000F2017093F3018093F4019093F5010E9409
:100A40002B026093EE017093EF018093F00190937D
:100A5000F1010E942B026B017C0164E271E0809144
:100A60002E0290912F020E9460022AE041E050E0A5
:100A700060E070E080912E0290912F020E9475023A
:100A80006BE271E080912E0290912F020E94600231
:100A90002AE0B701A60180912E0290912F020E94B8
:100AA00075026DE271E080912E0290912F020E94FA
:100AB00060028091F2019091F301A091F401B09154
:100AC000F501B701A601481B590B6A0B7B0B2AE005
:100AD00080912E0290912F020E9475026DE271E0CA
:100AE00080912E0290912F020E9460024091F201AB
:100AF0005091F3016091F4017091F5018091F6013C
:100B00009091F701A091F801B091F901481B590BA0
:100B10006A0B7B0B2AE080912E0290912F020E949B
:100B200075026FE271E080912E0290912F020E9477
:100B300060020E942B02AB01BC012AE080912E02D0
:100B400090912F020E947502E0902E02F0902F02E9
:100B500061E371E0C7010E94600261E271E0C701D8
:100B60000E94600265E070E080E090E00E94370241
:100B70000E942B026093F2017093F3018093F401C1
:100B80009093F50180E00E94B400CE010197F1F747
:100B900081E00E94B40083E290E00197F1F780E0E9
:100BA0000E94B400F1016491E0E9F0E08491E82F43
:100BB000F0E0EE0FFF1FEE58FF4F8591949100E497
:100BC00012E42FE030E0462F0E94600361157105AA
:100BD0008105910549F0DC01CB010196A11DB11DF4
:100BE000BC01CD019F7003C060E070E0CB01609359
:100BF00043017093440180934501909346010E9404
:100C0000660626E933E44BE05DE30E94A10620E09E
:100C100030E040E05FE30E94A1060E9481077093EC
:100C20004201609341016B01770FEE08FF08F7FE68
:100C300014C0E0914F01F09150010190F081E02D3E
:100C40006DE28FE491E0099544275527BA014C19CC
:100C50005D096E097F092AE003C02AE0B701A601F9
:100C60008FE491E00E94750261E271E08FE491E00F
:100C70000E9460020E9406024B015C0188EEC82EB1
:100C800083E0D82EE12CF12C0E940602DC01CB017E
:100C900088199909AA09BB09883E9340A105B105A5
:100CA00058F0F1E0CF1AD108E108F10828EE820EE1
:100CB00023E0921EA11CB11CC114D104E104F10473
:100CC00019F70E94FC0145CEE89409C097FB3EF459
:100CD00090958095709561957F4F8F4F9F4F992389
:100CE000A9F0F92F96E9BB279395F6958795779507
:100CF0006795B795F111F8CFFAF4BB0F11F460FFC7
:100D00001BC06F5F7F4F8F4F9F4F16C0882311F01E
:100D100096E911C0772321F09EE8872F762F05C032
:100D2000662371F096E8862F70E060E02AF09A95CD
:100D3000660F771F881FDAF7880F9695879597F9C2
:100D400008950E94B4060C9425070E94170738F0F6
:100D50000E941E0720F0952311F00C940E070C94AE
:100D6000140711240C9459070E94360770F3959FBD
:100D7000C1F3950F50E0551F629FF001729FBB2792
:100D8000F00DB11D639FAA27F00DB11DAA1F649F2E
:100D90006627B00DA11D661F829F2227B00DA11DE1
:100DA000621F739FB00DA11D621F839FA00D611D67
:100DB000221F749F3327A00D611D231F849F600D88
:100DC000211D822F762F6A2F11249F5750409AF0B1
:100DD000F1F088234AF0EE0FFF1FBB1F661F771F3D
:100DE000881F91505040A9F79E3F510580F00C9408
:100DF0000E070C9459075F3FE4F3983ED4F38695B1
:100E000077956795B795F795E7959F5FC1F7FE2BA7
:100E1000880F911D9695879597F9089597F99F6783
:100E200080E870E060E008959FEF80EC0895002472
:100E30000A941616170618060906089500240A943F
:100E400012161306140605060895092E0394000CC5
:100E500011F4882352F0BB0F40F4BF2B11F460FF54
:100E600004C06F5F7F4F8F4F9F4F089557FD90587D
:100E7000440F551F59F05F3F71F04795880F97FB5E
:100E8000991F61F09F3F79F0879508951216130618
:100E90001406551FF2CF4695F1DF08C01616170647
:100EA0001806991FF1CF869571056105089408957C
:100EB000E894BB2766277727CB0197F90895A1E22D
:100EC0001A2EAA1BBB1BFD010DC0AA1FBB1FEE1FC4
:100ED000FF1FA217B307E407F50720F0A21BB30B0F
:100EE000E40BF50B661F771F881F991F1A9469F78B
:100EF00060957095809590959B01AC01BD01CF01E7
:100F000008950E9488076894B1110C9459070895B8
:100F10000E943E0788F09F5798F0B92F9927B75144
:100F2000B0F0E1F0660F771F881F991F1AF0BA958D
:100F3000C9F714C0B13091F00E945807B1E008958C
:100F40000C945807672F782F8827B85F39F0B93F7E
:100F5000CCF3869577956795B395D9F73EF4909540
:100F60008095709561957F4F8F4F9F4F0895EE0F3D
:100F7000FF1F0590F491E02D099481E090E0F89432
:080F80000C94C207F894FFCFA6
:100F8800000000009301FC002B01DA015C013A012A
:100F98004E01564D4450565F317C315F564D44509A
:100FA800560D0A00564D4450455F003A323A007CCF
:080FB800005F564D4450450056
:00000001FF
